:020000040800F2
:1000000000800020291500087D1500087D150008D6
:100010007D1500087D1500087D1500080000000012
:100020000000000000000000000000007D15000836
:100030007D150008000000007D1500087D150008F2
:100040007D1500087D1500087D1500087D15000848
:100050007D1500087D1500087D1500087D15000838
:100060007D1500087D1500087D1500087D15000828
:100070007D1500087D1500087D1500087D15000818
:100080007D1500087D1500087D1500087D15000808
:100090007D1500087D1500087D1500087D150008F8
:1000A0007D1500087D1500087D1500087D150008E8
:1000B0007D1500087D150008496900087D150008B8
:1000C0007D1500087D1500087D1500087D150008C8
:1000D0007D1500087D8C00087D1500087D15000841
:1000E0007D1500087D1500087D1500087D150008A8
:1000F000FD6800087D1500080000000000000000F9
:1001000000000000000000007D1500087D150008BB
:1001100000000000000000007D1500087D150008AB
:100120007D1500087D1500087D1500087D15000867
:100130007D1500087D1500087D1500087D15000857
:100140007D15000800000000000000000000000015
:10015000000000000000000000000000000000009F
:1001600000000000000000007D1500087D1500085B
:100170007D150008000000007D150008000000004B
:100180007D15000880B487B000AF78604FF00003A1
:100190007B614FF000033B614FF00F03FB607B6816
:1001A000DB78002B47D04FF46D43CEF20003DB68C1
:1001B0006FEA030303F4E0634FEA13237B617B6977
:1001C000C3F104033B617B69FA6822FA03F3FB6025
:1001D0007B685B781A463B6902FA03F37B617B68B4
:1001E0009B781A46FB6813407A6913437B617B69ED
:1001F0004FEA03137B614FF46143CEF200037A6848
:10020000127811467A69D2B25B1883F800234FF452
:100210006143CEF200037A6812784FEA5212D2B2EA
:100220007968097801F01F014FF0010000FA01F12F
:1002300043F8221014E04FF46143CEF200037A68D1
:1002400012784FEA5212D2B27968097801F01F0190
:100250004FF0010000FA01F102F1200243F82210F0
:1002600007F11C07BD4680BC704700BF80B584B055
:1002700002AF78600B46FB707B681B6818464FF036
:10028000100101F03DF87B681B684FF400520092AA
:1002900018464FF0EC014FF001024FF0007300F0F0
:1002A000BFFF00BF7B681B6818464FF0020101F0DA
:1002B00003F80346002B09D17B681B6818464FF0F2
:1002C000100100F0F9FF0346002BEBD07B681B68A0
:1002D00018464FF0100100F0EFFF0346012B0BD141
:1002E0007B681B6818464FF0100101F009F87B6825
:1002F0004FF001029A7118E07B681A68FB7810468B
:10030000194600F0BDFF00BF7B681B6818464FF020
:10031000200100F0D1FF0346002BF5D07B681B685D
:1003200018464FF0200100F0EBFF07F10807BD462B
:1003300080BD00BF80B588B002AFF860B9601346D9
:10034000FB71FB681A68FB794FF41051009110465D
:100350004FF0EC011A464FF0007300F061FF4FF0D0
:1003600000037B612DE04FF47A733B6103E03B694E
:1003700003F1FF333B61FB681B6818464FF0040133
:1003800000F09AFF0346002B02D13B69002BEEDC04
:100390003B69002B04D1FB684FF001029A7126E003
:1003A000FB681B68184600F079FF03461A46BB68D5
:1003B0001A70BB6803F10103BB607B6903F10103A1
:1003C0007B61FA797B699A42CDDC00BFFB681B68D0
:1003D00018464FF0200100F06FFF0346002BF5D0C8
:1003E000FB681B6818464FF0200100F089FF07F1F9
:1003F0001807BD4680BD00BF80B584B000AF7860EF
:1004000078684FF0A201FFF731FF07F10C0378681D
:1004100019464FF00202FFF78DFF3B7B4FEA0323A3
:100420009AB27B7B13439BB29AB27B681A8178683D
:100430004FF0A401FFF71AFF07F10C037868194683
:100440004FF00202FFF776FF3B7B4FEA03239AB29D
:100450007B7B13439BB29AB27B685A8178684FF0DA
:10046000A601FFF703FF07F10C03786819464FF068
:100470000202FFF75FFF3B7B4FEA03239AB27B7BCD
:1004800013439BB29AB27B689A8178684FF0A801B7
:10049000FFF7ECFE07F10C03786819464FF00202F3
:1004A000FFF748FF3B7B4FEA03239AB27B7B134362
:1004B0009BB29AB27B68DA8178684FF0AA01FFF7A5
:1004C000D5FE07F10C03786819464FF00202FFF7DA
:1004D00031FF3B7B4FEA03239AB27B7B13439BB2F2
:1004E0009AB27B681A8278684FF0AC01FFF7BEFEC3
:1004F00007F10C03786819464FF00202FFF71AFF64
:100500003B7B4FEA03239AB27B7B13439BB29AB2A5
:100510007B685A8207F11007BD4680BD2DE9F00FB8
:100520009CB000AF78637B6B1B6A7B657B6B5B6AFF
:100530003B657B6B1B8A1A4613464FEA03639B1A83
:100540004FEA03231A467B6DD318FB64FB6C1C46F1
:100550004FEAE4757B6B5B8A98B24FF0000100FBB9
:1005600005F204FB01F3D618A4FB0023F1180B4697
:10057000002A73F1000008DA4FF6FF70C0F27F0026
:100580004FF00001121843EB01034FEA43214FEAF9
:10059000D25841EA08084FEAE35942464B4613460F
:1005A00003F5FA63BB647B6B59898AB24FF0000391
:1005B0004FEAD2314FEA4340F862F86A0843F862E2
:1005C0004FEA4241B9627B6BDB899CB24FF0000578
:1005D000F96C0A464FEAE27302FB05F004FB03F1F3
:1005E0004118A4FB0223C9180B46002A73F100002E
:1005F00006DA4FF03F004FF00001121843EB010301
:100600004FEA83614FEA921A41EA0A0A4FEAA31BB2
:1006100052465B46D7E90A01121843EB0103C7E9CA
:1006200010237B6B19898AB24FF000034FEA124105
:100630004FEA03407862786A084378624FEA0241E1
:1006400039627B6B99898AB24FF00003FC6C2046BB
:100650004FEAE07100FB03F502FB01F42C19A2FB49
:100660000023E1180B46002A73F1000006DA4FF070
:100670007F004FF00001121843EB01034FEA436182
:100680004FEAD210B861B8690843B8614FEAE31184
:10069000F961D7E90623D7E90801121843EB0103F2
:1006A000C7E90E23BA6C40F2CF739A4200F38B80F5
:1006B000FB6C18464FEAE071FC6C22464FEAE2738D
:1006C00002FB01F500FB03F42C19A0FB0223E11847
:1006D0000B46002A73F1000106DA6FF000404FF07C
:1006E0000001121843EB01034FEA43014FEAD270B5
:1006F00038613869084338614FEAE3717961D7E9B5
:1007000004231346FB66BA6C13464FEA03139B1A85
:100710004FEA83039B18A3F5EE33A3F19003BA6C61
:10072000A2F5FA6202FB03F3002B01DA03F10F03D7
:100730004FEA231319460A464FEAE273C7E9182322
:10074000BB6CA3F5FA63BA6CA2F5FA6202FB03F381
:100750004FEA43010A464FEAE273C7E91623BA6C2F
:100760004FF62423CFF6FF739A423BDABA6C134656
:100770004FEA03139B1A03F5AF4303F16403BA6C0A
:1007800002F2DC5202FB03F10A464FEAE273D7E9B8
:100790001801121843EB0103C7E91823BB6C03F2DD
:1007A000DC53BA6C02F2DC5202FB03F34FEAC301E2
:1007B0000A464FEAE273D7E91601121843EB010328
:1007C000C7E916230EE04FF00003FB664FF000026E
:1007D0004FF00003C7E918234FF000024FF0000369
:1007E000C7E91623BA6CFB6ED31ABB64D7E91001B4
:1007F000D7E91823821A61EB0303C7E91023D7E96D
:100800000E01D7E91623821A61EB0303C7E90E2311
:100810007B6BBA6C9A62396D0A464FF00003B96B74
:1008200003FB01F0F96B02FB01F14118B86BA0FB6F
:100830000223C9180B46002A73F1000008DA4FF6AC
:10084000FF70C0F21F004FF00001121843EB0103CC
:100850004FEAC3214FEA5250B860B8680843B86005
:100860004FEA6351F960D7E90201D7E91023821AF0
:1008700061EB0303002A73F1000006DA47F6FF700C
:100880004FF00001121843EB01034FEA43414FEAD6
:10089000D23038603868084338604FEAE331796015
:1008A000D7E900237B6BDA627B6BDA6A7B6B9B8A0E
:1008B0001BB2D2187B6BDA6207F17007BD46BDE848
:1008C000F00F704780B582B000AF78600B46FB70C8
:1008D000FB78012B02D0022B06D00BE078684FF09A
:1008E0004801FFF7C3FC06E078684FF05801FFF7B6
:1008F000BDFC00E000BF07F10807BD4680BD00BF9A
:10090000B0B588B000AF78600B46FB7078684FF0E8
:100910000001FFF7ABFC07F10C03786819464FF0B4
:100920000302FFF707FD7B689B79012B00F0BA807B
:100930004FF00003FB613B7B4FEA0343FA6913432B
:10094000FB617B7B4FEA0323FA691343FB61BB7BAB
:10095000FA691343FB61FB78012B02D0022B50D0C4
:100960009FE07B68FA69DA617B685B6A002B03D1E0
:100970007B68FA695A6295E0D7ED077AF8EE677AF4
:10098000C7ED067A7B68D3ED097AF8EE677AC7ED92
:10099000057A78690AF0A4FD02460B46104619460E
:1009A0004FF000024FF00003C3F6E0730AF0ECFDD5
:1009B00002460B4614461D46B8690AF091FD0246F0
:1009C0000B46104619464FF000024FF00003C3F6E5
:1009D000E0730AF0D9FD02460B46204629460AF08C
:1009E00021FC02460B46104619460BF0AFF80346B1
:1009F0003B61D7ED047AFCEEE77A7B68C3ED097AB8
:100A000050E07B68FA699A617B681B6A002B03D10E
:100A10007B68FA691A6245E0D7ED077AF8EE677AE3
:100A2000C7ED067A7B68D3ED087AF8EE677AC7EDF2
:100A3000057A78690AF054FD02460B4610461946BD
:100A40004FF000024FF00003C3F6E0730AF09CFD84
:100A500002460B4614461D46B8690AF041FD02469F
:100A60000B46104619464FF000024FF00003C3F644
:100A7000E0730AF089FD02460B46204629460AF03B
:100A8000D1FB02460B46104619460BF05FF80346B1
:100A90003B61D7ED047AFCEEE77A7B68C3ED087A18
:100AA00000E000BF07F12007BD46B0BD80B586B0AD
:100AB00000AF78607B681B6B07F10C02104619468B
:100AC0004FF0060201F01AF87B6803F1340207F1D7
:100AD0000C03104619460BF0C7FA07F11807BD467C
:100AE00080BD00BF0000000080B586B000AF786018
:100AF0007B68DB6A18460AF0E1FC02460B461046AA
:100B000019464FF000024FF00003C4F259030AF0F7
:100B100065FE02460B46C7E904234FF000024FF082
:100B20000003C7E90223D7E9040125A3D3E9002381
:100B30000AF02AFD02460B4610461946D7E904235F
:100B40000AF022FD02460B46D7E902010AF06AFBD1
:100B500002460B46C7E90223D7E904011AA3D3E9E9
:100B600000230AF011FD02460B46D7E902010AF004
:100B700059FB02460B46C7E90223D7E9020114A339
:100B8000D3E900230AF04EFB02460B46C7E90223D5
:100B9000D7E902014FF000024FF00003C4F25903FD
:100BA0000AF0F2FC02460B46104619460AF086FF90
:100BB00003461A467B681A6307F11807BD4680BDD5
:100BC0008DEDB5A0F7C6C03E20D26F5F07CEEF3FD8
:100BD000ED0DBE3099AA114080B582B000AF7860AB
:100BE0007A684FF4A843C4F2000313607B684FF0A7
:100BF00000025A717B684FF000021A717B684FF057
:100C000000029A717B684FF000021A817B684FF0F6
:100C100000025A817B684FF000029A817B684FF096
:100C20000002DA817B684FF000021A827B684FF085
:100C300000025A827B684FF000029A827B684FF074
:100C400000029A617B684FF00002DA617B684FF026
:100C500000021A627B684FF000025A627B684FF014
:100C600000029A627B684FF00002DA62786800F056
:100C700023F87B689B79012B04D17B684FF000023D
:100C80001A7114E07868FFF7B7FB40F68803C2F2E8
:100C90000003DA8B7B689A827B684FF001021A713D
:100CA000786800F03BF87B681B79012BF8D107F1DD
:100CB0000807BD4680BD00BF80B584B000AF786036
:100CC00078684FF01E01FFF7D1FA7B689B79012B02
:100CD00004D17B684FF000021A711AE07B685B79DF
:100CE00018464FF00A0105F029FD4FF00003FB60A4
:100CF00003E0FB6803F10103FB607B685B79184646
:100D000005F044FD0346012BF3D07B684FF006024B
:100D10001A7107F11007BD4680BD00BF80B582B0D3
:100D200000AF78607B685B79184605F02FFD0346BD
:100D3000012B77D07B689B79012B0BD17B684FF01F
:100D400000029A717B681B79002B03D07B684FF0FF
:100D500001021A717B681B7903F1FF33052B63D8FD
:100D600001A252F823F000BF810D0008A30D000876
:100D7000C50D0008E70D0008FB0D0008290E00084E
:100D80007B684FF002021A7178684FF00201FFF79A
:100D900099FD7B685B7918464FF00A0105F0CEFC9F
:100DA00043E07B684FF003021A7178684FF002014C
:100DB000FFF7A6FD7B685B7918464FF0020105F04E
:100DC000BDFC32E07B684FF004021A7178684FF086
:100DD0000101FFF777FD7B685B7918464FF00A0148
:100DE00005F0ACFC21E07B684FF005021A717868D1
:100DF0004FF00101FFF784FD17E07868FFF78EFBE5
:100E00007868FFF771FE7868FFF750FE7B684FF057
:100E100001021A717B685B7918464FF0020105F0F8
:100E20008DFC02E000BF00E000BF07F10807BD46EF
:100E300080BD00BF80B582B000AF78607A684FF4A3
:100E40004053C4F201039A420CD14FF480504FF04A
:100E5000010105F061F94FF480504FF0000105F0F9
:100E60005BF926E07A684FF46053C4F200039A42BB
:100E70000CD14FF480404FF0010105F077F94FF4A9
:100E800080404FF0000105F071F912E07A684FF4EC
:100E90007053C4F200039A420BD14FF400404FF05C
:100EA000010105F063F94FF400404FF0000105F037
:100EB0005DF907F10807BD4680BD00BF80B485B06D
:100EC00000AF786039604FF00003FB817B681B88BE
:100ED000FB81FB8903F44153FB813B681A883B6823
:100EE000DB8913439AB23B68DB8813439AB23B68B1
:100EF0001B8913439AB23B685B8913439AB23B68E0
:100F00009B8913439AB2FB891343FB817B68FA895F
:100F10001A807B689B88FB81FB8923F47063FB81CB
:100F20003B689A88FB891343FB817B68FA899A8026
:100F30003B681A8A7B681A827B681B88FB81FB8965
:100F400023F00403FB813B685A88FB891343FB8130
:100F50007B68FA891A807B689B8B9BB223F40063C1
:100F60009AB27B689A8307F11407BD4680BC70472C
:100F700080B483B000AF78600B46FB70FB78002B29
:100F800008D07B681B889BB243F040039AB27B6811
:100F90001A8007E07B681B889BB223F040039AB25B
:100FA0007B681A8007F10C07BD4680BC704700BF04
:100FB00080B483B000AF78600B467B807B689B88F1
:100FC0009BB223F480539AB27B689A807B689B889B
:100FD0009AB27B8813439AB27B689A8007F10C0718
:100FE000BD4680BC704700BF80B485B000AF78605C
:100FF0000B46FB704FF00003FB607B68FB60FB68F7
:1010000003F10C03FB60FB68FA781A7007F1140710
:10101000BD4680BC704700BF80B485B000AF78602B
:101020004FF00003FB607B68FB60FB6803F10C037F
:10103000FB60FB681B78DBB2184607F11407BD465E
:1010400080BC704780B483B000AF78607B681B8938
:101050009BB203F4C0539BB2184607F10C07BD4680
:1010600080BC704780B485B000AF78600B467B8051
:101070004FF00003FB737B681B899AB27B88134097
:101080009BB2002B03D04FF00103FB7302E04FF043
:101090000003FB73FB7B184607F11407BD4680BCB9
:1010A000704700BF80B483B000AF78600B467B8090
:1010B0007B886FEA03039AB27B681A8107F10C07F9
:1010C000BD4680BC704700BF80B582B000AF78607D
:1010D0007A684FF4A843C4F200039A420CD14FF44B
:1010E00000104FF0010105F041F84FF400104FF0EF
:1010F000000105F03BF80BE04FF480004FF00101D8
:1011000005F034F84FF480004FF0000105F02EF8A0
:1011100007F10807BD4680BD80B485B000AF786098
:1011200039604FF00003FB607B681B6823F001020D
:101130007B681A607B681B68FB60FA684EF2FF03ED
:10114000C0F2CF031340FB603B685A683B689B6862
:101150004FEA03231343FA681343FB607B68FA6882
:101160001A603B681B6823F070627B681A617B68B9
:101170001B6843F001027B681A604FF00003FB60BC
:101180007B68FA689A607B68FA68DA603B689A69FB
:101190003B681B691343FB607B68FA689A607B6855
:1011A0009B6843F400427B689A603B68DB68FB60A5
:1011B0007B681A68FB681A437B681A607B685B6807
:1011C000FB60FB6823F0784323F40043FB603B683B
:1011D0005B69FA681343FB607B68FA685A6007F141
:1011E0001407BD4680BC704780B483B000AF786000
:1011F0000B46FB70FB78002B06D07B681B6843F026
:1012000001027B681A6005E07B681B6823F001021D
:101210007B681A6007F10C07BD4680BC704700BFB1
:1012200080B487B000AFF8607B600B467B811346CB
:101230007B724FF000037B61FB685B687B617A69BE
:101240004FF41843CFF6004313407B617B894FEA8C
:1012500083534FEA93537A7A4FEA024202F47F02B1
:101260001A437B681A433B6A13437A6913437B61D1
:10127000FB687A695A6007F11C07BD4680BC70475D
:1012800080B483B000AF78600B46FB70FA787B685F
:101290009A6207F10C07BD4680BC704780B483B0EA
:1012A00000AF78607B685B6ADBB2184607F10C0719
:1012B000BD4680BC704700BF80B485B000AF786089
:1012C00039604FF00003BB604FF00003FB737B6895
:1012D0009B69BB60BA683B681340BB60BB68002B6E
:1012E00003D04FF00103FB7302E04FF00003FB73E8
:1012F000FB7B184607F11407BD4680BC704700BF52
:1013000080B483B000AF786039607B683A68DA6196
:1013100007F10C07BD4680BC704700BF80B500AF29
:1013200040F66003C2F200034FF000021A6040F67C
:101330006003C2F200034FF001029A8040F660039E
:10134000C2F200034FF0010283F8202040F6600350
:10135000C2F2000342F60A32C3F684229A6040F6D3
:101360006003C2F2000345F2A222C3F68912DA60DA
:1013700040F66003C2F200034FF000021A6140F62B
:101380006003C2F2000343F22A22C3F221425A61EF
:1013900040F66003C2F200034FF000021A8340F6E9
:1013A0006003C2F200034FF000029A8340F660032C
:1013B000C2F200034FF00002DA8300F065F880BD4E
:1013C000B0B58CB000AF4FF0040387F82D3004F0B7
:1013D0000BF840F68800C2F200004FF0020104F062
:1013E0002DF8024640F68803C2F200035A6240F626
:1013F0008803C2F2000307F104041D460FCD0FC499
:101400000FCD0FC495E8030084E8030007F058FCF3
:101410004FF0340007F006FD4FF47840C0F60000AE
:1014200007F080FC034687F82D304FF00003FB8562
:1014300019E0FB8D4FEA430303F1006303F57843A2
:10144000FA8D4FEA420207F130018A1832F82C2C4B
:101450001846114607F0ACFC034687F82D30FB8D8B
:1014600003F10103FB85FB8D132B03D897F82D3077
:10147000042BDED007F044FC97F82D30184607F116
:101480003007BD46B0BD00BFB0B58CB000AF4FF067
:101490000003FB8513E0F98DFB8D03F1806303F5F9
:1014A000F8434FEA43031A884FEA410307F130013A
:1014B000CB1823F8302CFB8D03F10103FB85FB8D4A
:1014C000132BE8D903F090FF3B4618464FF002017A
:1014D00003F0B4FFB8627A6ABB6A9A4212D040F64F
:1014E0008802C2F2000240F66003C2F20003144612
:1014F0001D460FCD0FC40FCD0FC495E8030084E83F
:1015000003000DE040F68803C2F200031C463D468E
:101510000FCD0FC40FCD0FC495E8030084E803007E
:1015200007F13007BD46B0BD0E488546002100F0EA
:1015300004B80D4B5B58435004310C480C4B421817
:101540009A42FFF4F6AF0B4A00F003B8002342F8CA
:10155000043B094B9A42FFF4F9AF03F099FF01F005
:1015600023FD70470080002080C700080000002095
:101570007004002070040020700C0020FFF7FEBFF4
:1015800080B485B000AF78600FE040F65843FB6050
:1015900000BFFB68002B0CBF00230123DBB2FA68FD
:1015A00002F1FF32FA60002BF3D17B68002B0CBFF5
:1015B00000230123DBB27A6802F1FF327A60002B4C
:1015C000E3D107F11407BD4680BC704780B487B0F3
:1015D00000AF78604FF001033B614FF00003FB81E7
:1015E0007B681B78002B02D14FF000034DE07B6835
:1015F0001B782D2B07D14FF0FF333B617B6803F144
:1016000001037B6007E07B681B782B2B03D17B6891
:1016100003F101037B604FF000037B6129E07B68ED
:101620001B78002B29D07B681B78392B03D87B686B
:101630001B782F2B02D84FF0000326E0FB891A46B7
:101640004FEA8202D3184FEA43039BB2FB817B68C7
:101650001B781A46FB89D3189BB2A3F130039BB2C7
:10166000FB817B6803F101037B607B6903F101036C
:101670007B617B69042BD2DD00E000BF3B699BB23C
:10168000FA8902FB03F39BB29BB21BB2184607F127
:101690001C07BD4680BC7047B0B58AB000AF78600B
:1016A0004FF001033B624FF00003FB614FF000037A
:1016B000BB614FF000024FF00003C7E904234FF075
:1016C00000024FF00003C3F6F073C7E902237B6802
:1016D0001B78002B02D1DFEDA67ABBE17B681B787B
:1016E0002D2B07D14FF0FF333B627B6803F10103E1
:1016F0007B6013E07B681B782B2B04D17B6803F1A4
:1017000001037B600AE07B681B78392B03D87B6878
:101710001B782F2B02D8DFED967A9BE14FF0000368
:10172000FB614FF000037B625AE07B681B78002B63
:1017300008D1FB693A6A02FB03F307EE103AF8EEB0
:10174000C77A87E17B681B782E2B09D17B6803F170
:1017500001037B60FB693A6A02FB03F3FB6142E031
:101760007B681B78452B03D07B681B78652B15D1D4
:101770007B6803F101037B60FB693A6A02FB03F3B8
:10178000FB61D7ED077AF8EEE77A17EE900A09F0D9
:10179000A7FE02460B46C7E90423CFE07B681B780F
:1017A000392B03D87B681B782F2B02D8DFED707A9A
:1017B00050E1FA6913464FEA83039B184FEA43034B
:1017C000FB617B681B78A3F13003FA69D318FB61D6
:1017D0007B6803F101037B607B6A03F101037B6299
:1017E0007B6A092BA1DD4FF00003BB614FF00002C3
:1017F0004FF00003C3F6F073C7E902234FF0000374
:101800007B6297E07B681B78002B2DD1BB693A6A1D
:1018100002FB03F3BB61D7ED077AF8EEE77A17EE28
:10182000900A09F05DFE04460D46D7ED067AF8EE03
:10183000E77A17EE900A09F053FE02460B4610466F
:101840001946D7E9022309F0C9FF02460B46204694
:10185000294609F0E7FC02460B46104619460AF0F5
:1018600075F907EE900AF5E07B681B78452B03D0ED
:101870007B681B78652B2DD17B6803F101037B60AE
:10188000BB693A6A02FB03F3BB61D7ED077AF8EE56
:10189000E77A17EE900A09F023FE04460D46D7EDCD
:1018A000067AF8EEE77A17EE900A09F019FE02467A
:1018B0000B4610461946D7E9022309F08FFF02466E
:1018C0000B462046294609F0ADFC02460B46C7E907
:1018D000042333E07B681B78392B03D87B681B78A3
:1018E0002F2B02D8DFED227AB4E0BA6913464FEA13
:1018F00083039B184FEA4303BB617B681B78A3F10A
:101900003003BA69D318BB61D7E902014FF0000276
:101910004FF00003C4F2240309F036FE02460B46E2
:10192000C7E902237B6803F101037B607B6A03F153
:1019300001037B627B6A092B7FF764AF4FF00002E3
:101940004FF00003C3F6F073C7E902234FF0000322
:10195000FB614FF001033B627B681B782D2B09D1A3
:101960004FF0FF333B627B6803F101037B6009E0CA
:10197000000000007B681B782B2B03D17B6803F1F0
:1019800001037B604FF000037B6225E07B681B78DE
:10199000002B25D07B681B78392B03D87B681B78FC
:1019A0002F2B02D85FED0E7A54E0FA6913464FEA06
:1019B00083039B184FEA4303FB617B681B78A3F109
:1019C0003003FA69D318FB617B6803F101037B6084
:1019D0007B6A03F101037B627B6A022BD6DD00E0A8
:1019E00000BF4FF000037B6220E03B6A012B0ED169
:1019F000D7E902014FF000024FF00003C4F22403C4
:101A000009F0C2FD02460B46C7E902230AE0D7E906
:101A1000020113A3D3E9002309F0B6FD02460B46E9
:101A2000C7E902237B6A03F101037B627A6AFB69DF
:101A30009A42DADBD7E90401D7E9022309F0A4FDD1
:101A400002460B46C7E90423D7E904010AF07EF8F1
:101A500007EE900AB0EE670A07F12807BD46B0BD51
:101A60009A9999999999B93F80B489B000AFF86073
:101A7000B9601346FB71BB68BB614FF00103FB61AA
:101A80002DE0BA694CF6CD43CCF6CC43A3FB021350
:101A90004FEAD3010B464FEA83035B184FEA430337
:101AA000D31A7B61FA79FB69D31AFA68D3187A6979
:101AB000D2B202F13002D2B21A70BA697B69D31A7B
:101AC000BB61BA694CF6CD43CCF6CC43A3FB021301
:101AD0004FEAD303BB61FB6903F10103FB61FA79B0
:101AE000FB699A42CDDAFB79FA68D3184FF000020D
:101AF0001A7007F12407BD4680BC704780B489B0D6
:101B000000AFF860B9601346FB71BB68002B08DAC0
:101B1000FB684FF02D021A70BB68C3F10003BB6174
:101B200005E0FB684FF02B021A70BB68BB614FF0F9
:101B30000003FB612DE0BA694CF6CD43CCF6CC43F3
:101B4000A3FB02134FEAD3010B464FEA83035B1852
:101B50004FEA4303D31A7B61FA79FB69D31AFA6817
:101B6000D3187A69D2B202F13002D2B21A70BA69CD
:101B70007B69D31ABB61BA694CF6CD43CCF6CC4332
:101B8000A3FB02134FEAD303BB61FB6903F101031B
:101B9000FB61FA79FB699A42CDDCFB7903F1010321
:101BA000FA68D3184FF000021A7007F12407BD46F7
:101BB00080BC704700000000B0B588B000AFF8608E
:101BC00087ED020A0B46FB71D7ED027AF5EE407AFB
:101BD000F1EE10FA07D1FA684CF27833C0F6000340
:101BE0001B88138048E1D7ED027AF5EEC07AF1EE5A
:101BF00010FA03DB4FF00103BB6102E04FF0FF334B
:101C0000BB61D7ED067AB8EEE77AD7ED027A67EED8
:101C1000277AC7ED077A97ED077AF7EE007AB4EEE8
:101C2000E77AF1EE10FA40F394804FF00003FB7571
:101C30000BE097ED077AF2EE047AC7EE277AC7ED4C
:101C4000077AFB7D03F10103FB7597ED077AF2EE4E
:101C5000047AB4EEE77AF1EE10FAEADCD7ED077A0F
:101C6000FCEEE77A17EE903ABB75BB7D07EE103AB3
:101C7000F8EE477A97ED077A77EE677AC7ED077A3D
:101C8000F86909F02DFC04460D46FB79184609F069
:101C900005FC02460B469FED7A0B43EC112B07F037
:101CA00083F953EC102B2046294609F06DFC0246BF
:101CB0000B461046194609F029FF03463B61BB7DE0
:101CC000BA6902FB03F3F86819464FF00102FFF707
:101CD00015FFFB6803F10203FB60F8680AF022FAC3
:101CE0000346FA68D2184CF27C33C0F600031B8816
:101CF0001380FB6803F10103FB60FB79F868396925
:101D00001A46FFF7B1FEFB79FA68D318FB60F86852
:101D10000AF008FA0346FA68D2184CF28033C0F68B
:101D2000000319889B7811809370FB6803F102030C
:101D3000FB60FB7DF86819464FF00202FFF794FE46
:101D4000FB6803F10203FB60FB684FF000021A70AE
:101D500092E04FF00003FB750BE097ED077AF2EE8F
:101D6000047A67EE277AC7ED077AFB7D03F101035A
:101D7000FB7597ED077AF7EE007AB4EEE77AF1EEAD
:101D800010FAEAD4D7ED077AFCEEE77A17EE903A2C
:101D9000BB75BB7D07EE103AF8EE477A97ED077AF0
:101DA00077EE677AC7ED077AF86909F099FB044680
:101DB0000D46FB79184609F071FB02460B469FED74
:101DC000300B43EC112B07F0EFF853EC102B2046AF
:101DD000294609F0D9FB02460B461046194609F080
:101DE00095FE03463B61BB7DBA6902FB03F3F868CD
:101DF00019464FF00102FFF781FEFB6803F1020371
:101E0000FB60F8680AF08EF90346FA68D2184CF2C3
:101E10007C33C0F600031B881380FB6803F10103C9
:101E2000FB60FB79F86839691A46FFF71DFEFB79FC
:101E3000FA68D318FB60F8680AF074F90346FA6888
:101E4000D2184CF28433C0F6000319889B781180B5
:101E50009370FB6803F10203FB60FB7DF868194691
:101E60004FF00202FFF700FEFB6803F10203FB6084
:101E7000FB684FF000021A7007F12007BD46B0BDA5
:101E8000000000000000244080B485B000AF7860FE
:101E900013460A46FA70BB704FF00003FB814FF007
:101EA0000003BB81FB78BB600FE0BB687A68D31886
:101EB0001B781A46FB89D318FB81BA89FB89D31892
:101EC000BB81BB6803F10103BB60BA78BB689A426F
:101ED000EBDABB894FEA03239AB2FB8913439BB227
:101EE0009BB2184607F11407BD4680BC704700BF7F
:101EF00080B485B000AF786039604FF00003FB819B
:101F00007B681B88FB817B68B3F1804F1BD07A68AC
:101F10004FF48063C4F200039A4214D07A684FF4FD
:101F20000063C4F200039A420DD07A684FF4406314
:101F3000C4F200039A4206D07A684FF4B843C4F260
:101F400001039A4208D1FB8923F07003FB813B68AF
:101F50005A88FB891343FB817A684FF48053C4F29B
:101F600000039A4216D07A684FF4A053C4F20003DB
:101F70009A420FD07A684FF41C43C4F200039A428D
:101F800008D0FB8923F44073FB813B681A89FB89E5
:101F90001343FB817B68FA891A803B685A687B6827
:101FA000DA623B681A887B681A857A684FF4804346
:101FB000C4F201039A420DD07A684FF48843C4F208
:101FC00001039A4206D07A684FF49043C4F20103A9
:101FD0009A4204D13B689B7A1A467B681A867B68D2
:101FE0004FF001029A8207F11407BD4680BC70478A
:101FF00080B483B000AF78607B685B6A184607F1F5
:102000000C07BD4680BC704780B483B000AF7860D9
:102010000B46FB70FB78002B08D07B681B889BB2BB
:1020200043F001039AB27B681A8007E07B681B8843
:102030009BB223F001039AB27B681A8007F10C0768
:10204000BD4680BC704700BF80B483B000AF7860ED
:1020500039607B683A685A6307F10C07BD4680BC5B
:10206000704700BF80B483B000AF786013460A4663
:102070007A807B707B78002B08D07B689B899AB232
:102080007B8813439AB27B689A810AE07B689B89BC
:102090009AB27B886FEA03039BB213409AB27B68C3
:1020A0009A8107F10C07BD4680BC704780B483B0AD
:1020B00000AF78600B467B807B886FEA03039AB29F
:1020C0007B681A8207F10C07BD4680BC704700BFD1
:1020D00080B485B000AF78600B467B804FF0000382
:1020E000FB734FF00003BB814FF000037B817B68E3
:1020F0001B8A9AB27B881340BB817B689B899AB20A
:102100007B8813407B81BB89002B06D07B89002B09
:1021100003D04FF00103FB7302E04FF00003FB73A9
:10212000FB7B184607F11407BD4680BC704700BF13
:1021300080B483B000AF78600B467B807B886FEA09
:1021400003039AB27B681A8207F10C07BD4680BC74
:10215000704700BF80B483B000AF0346FB714FF4FB
:102160003053C4F20003FA7902F07F021A6007F1DB
:102170000C07BD4680BC704780B483B000AF0346F7
:10218000FB714FF43053C4F20003FA7962F07F021E
:10219000D2B21A6007F10C07BD4680BC704700BF81
:1021A00080B582B000AF78607B6893ED0A7A7B6877
:1021B000D3ED0B7AC7EE277A17EE900A09F090F963
:1021C00002460B46104619464FF000024FF000033E
:1021D000C3F6F07309F024F802460B461046194680
:1021E00009A3D3E9002309F0CFF902460B461046B4
:1021F000194609F0ABFC02467B681A6307F1080731
:10220000BD4680BDAFF300800000000080B0EF400D
:1022100080B52DED028B84B000AF78607B68D3ED84
:102220000C7AB0EE670A07F073F887ED030A7B6853
:1022300093ED057A7B68D3ED066AD7ED037A66EEF7
:10224000A77A37EE278A7B68D3ED078A97ED030AD2
:10225000F0EE000A07F0D6F8F0EE407A68EEA77AC2
:1022600038EE278A7B68D3ED088A97ED030AF0EEF3
:10227000080A07F0C7F8F0EE407A68EEA77A78EE21
:10228000277AB7EE007AC7EE277AC7ED027AB868E8
:1022900009F026F902460B461046194613A3D3E966
:1022A000002308F0BDFF02460B461046194609F010
:1022B0004DFC0346BB6097ED027ADFED0B7A67EECB
:1022C000277AFDEEE77A7B68C3ED0D7A7B685A6B5F
:1022D0007B689B8C1BB2D2187B685A6307F110078E
:1022E000BD46BDEC028B80BD0000C84266666666D6
:1022F00066127140AFF3008080B582B000AF7860A5
:102300007B684FF000021A707B684FF000021A637E
:102310007A6847F66113CFF6FE7353637B684FF01C
:10232000000283F838207B684FF001025A7040F6B3
:102330008803C2F200039A687B685A6140F68803FA
:10234000C2F20003DA687B689A6140F68803C2F241
:1023500000031A697B68DA6140F68803C2F2000361
:102360005A697B681A6240F68803C2F200031A8B2E
:102370007B689A8440F27443C2F200034FF000027B
:102380001A7040F27443C2F200034FF000025A7018
:1023900040F27443C2F200034FF001029A7040F21F
:1023A0007443C2F200034FF00502DA7040F270434A
:1023B000C2F200034FF000021A7040F27043C2F202
:1023C00000034FF001025A7040F27043C2F2000362
:1023D0004FF001029A7040F27043C2F200034FF0D6
:1023E0000502DA7040F27843C2F200034FF00002B7
:1023F0001A707A6840F27443C2F2000313617B687A
:1024000003F10403184600F0D3FB7B6803F10403D7
:10241000184600F0E1FB7B681B7B012B04D17B6835
:102420004FF000021A700AE07B684FF001021A7048
:10243000786800F009F87B681B78012BF8D107F168
:102440000807BD4680BD00BF80B586B000AF78608C
:102450007B685B78184604F099F90346012B00F07D
:10246000CF807B681B7B012B14D17B684FF000026F
:102470001A737B689B68184604F0A0F87B684FF0DD
:1024800001021A707B685B7818464FF0020104F075
:1024900055F9B5E07B681B78072B00F2B08001A2EC
:1024A00052F823F0FF250008C5240008CF240008B7
:1024B000FF2400083925000869250008A325000825
:1024C000FF2500087B684FF002021A7098E07A68D6
:1024D00040F27043C2F2000313617B6803F104030E
:1024E000184600F049FC7B684FF003021A707B68C5
:1024F0005B7818464FF0190104F020F980E07A6803
:1025000040F27043C2F2000313617B6803F10403DD
:10251000184600F0E9FCF0EE407A7B68C3ED0A7AD9
:102520007B684FF004021A707B685B7818464FF0A6
:10253000020104F003F963E07A6840F27443C2F2E6
:10254000000313617B6803F10403184600F014FCD8
:102550007B684FF005021A707B685B7818464FF075
:10256000190104F0EBF84BE07A6840F27443C2F2D0
:10257000000313617B6803F10403184600F0B4FC08
:10258000F0EE407A7B68C3ED0B7A7B684FF0060271
:102590001A707B685B7818464FF0020104F0CEF8A1
:1025A0002EE07868FFF7FCFD7868FFF731FE7B6866
:1025B0004FF0000283F838207B685B6B07F10C0258
:1025C000104619464FF00402FFF798FA7B6803F1B2
:1025D000380207F10C031046194609F0B3FB7B687B
:1025E0004FF001029A707B684FF001021A707B680D
:1025F0005B7818464FF0640104F0A0F800E000BFDB
:1026000007F11807BD4680BD80B588B002AF78607D
:102610000B467B804FF001033B737B884FEA13230B
:102620009BB2DBB27B737B88DBB2BB737B685B687E
:1026300018464FF01001FEF763FE7B685A687B680E
:102640001B784FF400510091104619464FF00302D9
:102650004FF00073FEF7E4FD4FF000037B613FE0B5
:102660004FF4FA737B8203E07B8A03F1FF337B82B2
:102670007B685B6818464FF00201FEF71DFE0346BB
:10268000002B0CD17B685B6818464FF01001FEF7F9
:1026900013FE0346002B02D17B8A002BE4D17B681A
:1026A0005B6818464FF01001FEF706FE0346012B4B
:1026B00002D07B8A002B04D17B684FF001021A7292
:1026C0001CE07B685A6807F10C017B69CB181B780A
:1026D00010461946FEF7D4FD7B6903F101037B61C7
:1026E0007B69022BBCDD00BF7B685B6818464FF03E
:1026F0004001FEF7E1FD0346012BF5D007F1180775
:10270000BD4680BD80B586B002AF78604FF0000353
:102710007B817B685B6818464FF01001FEF7F0FD87
:102720007B685A687B681B784FF400510091104613
:1027300019464FF001024FF00073FEF771FD41F2B0
:102740008833FB6003E0FB6803F1FF33FB607B68C9
:102750005B6818464FF00201FEF7AEFD0346002B02
:102760000CD17B685B6818464FF01001FEF7A4FDA2
:102770000346002B02D1FB68002BE4D17B685B6829
:1027800018464FF01001FEF797FD0346012B02D0CB
:10279000FB68002B0DD17B685B6818464FF0100179
:1027A000FEF7AEFD7B684FF001021A724FF0000396
:1027B0009DE07B685B6818464FF00101FEF760FD05
:1027C00041F28833FB6003E0FB6803F1FF33FB60F9
:1027D0007B685B6818464FF02001FEF76DFD0346ED
:1027E000002B02D1FB68002BEED17B685B6818469A
:1027F0004FF02001FEF784FD7B685A687B681B78E8
:102800004FF410510091104619464FF002024FF05C
:102810000073FEF705FD41F28833FB6003E0FB68BF
:1028200003F1FF33FB607B685B6818464FF00401DF
:10283000FEF742FD0346002B02D1FB68002BEED1D0
:10284000FB68002B06D17B684FF001021A724FF033
:1028500000034CE07B685B681846FEF71FFD0346EB
:102860007B727B7A9BB24FEA03237B8141F28833F0
:10287000FB6003E0FB6803F1FF33FB607B685B6890
:1028800018464FF00401FEF717FD0346002B02D156
:10289000FB68002BEED1FB68002B06D17B684FF064
:1028A00001021A724FF0000321E07B685B68184652
:1028B000FEF7F4FC03467B727B7A9AB27B89134362
:1028C0007B8141F28833FB6003E0FB6803F1FF3357
:1028D000FB607B685B6818464FF02001FEF7ECFC5C
:1028E0000346002B02D1FB68002BEED17B891846F2
:1028F00007F11007BD4680BD80B584B000AF786099
:102900007868FFF7FFFE0346FB817B681B7A012B8B
:1029100013D0FB891BB2002B0ADAFB896FEA434311
:102920006FEA53439BB278681946FFF76DFE05E0E6
:102930007B684FF001021A7200E000BF07F1100738
:10294000BD4680BD80B586B002AF786003E04FF031
:102950000100FEF715FE786800F0E8F90346012B48
:10296000F5D07B685B6818464FF01001FEF7C8FC95
:102970007B685B6818464FF02001FEF7C1FC7B685E
:102980005A687B681B784FF4005100911046194635
:102990004FF001024FF00073FEF742FC41F2883322
:1029A000FB8103E0FB8903F1FF33FB817B685B68FC
:1029B00018464FF00201FEF77FFC0346002B0CD1B6
:1029C0007B685B6818464FF01001FEF775FC034604
:1029D000002B02D1FB89002BE4D17B685B68184691
:1029E0004FF01001FEF768FC0346012B06D17B680F
:1029F0004FF001021A724FF00003D2E0FB89002B66
:102A000006D17B684FF001021A724FF00003C8E054
:102A10007B685B6818464FF00001FEF731FC41F21D
:102A20008833FB8103E0FB8903F1FF33FB817B6883
:102A30005B6818464FF02001FEF73EFC0346002B72
:102A400002D1FB89002BEED17B685B6818464FF002
:102A50002001FEF755FC7B685A687B681B784FF4B1
:102A600010510091104619464FF002024FF00073CA
:102A7000FEF7D6FB41F28833FB8103E0FB8903F1CB
:102A8000FF33FB817B685B6818464FF00401FEF75B
:102A900013FC0346002B0CD17B685B6818464FF093
:102AA0001001FEF709FC0346002B02D1FB89002B25
:102AB000E4D17B685B6818464FF01001FEF7FCFB21
:102AC0000346012B02D0FB89002B0DD17B685B688C
:102AD00018464FF01001FEF713FC7B684FF001021F
:102AE0001A724FF000035CE07B685B681846FEF7E3
:102AF000D5FB03467B737B7B9BB24FEA03239BB2E0
:102B00007B8141F28833FB8103E0FB8903F1FF33D2
:102B1000FB817B685B6818464FF00401FEF7CCFB35
:102B20000346002B0CD17B685B6818464FF0100100
:102B3000FEF7C2FB0346002B02D1FB89002BE4D138
:102B4000FB89002B06D17B684FF001021A724FF00F
:102B5000000326E07B685B681846FEF79FFB034690
:102B60007B737B7B9BB21A467B8913437B8141F24B
:102B70008833FB8103E0FB8903F1FF33FB817B6832
:102B80005B6818464FF02001FEF796FB0346002BCA
:102B9000F1D07B685B6818464FF02001FEF7B0FB70
:102BA0007B891BB2184607F11007BD4680BD00BFE8
:102BB00080B582B000AF78607B684FF000021A7277
:102BC0007868FFF79FFD7B681B7A012B00BF07F138
:102BD0000807BD4680BD00BF80B584B000AF7860F7
:102BE0004FF00003FB81FB8943F00303FB817B680B
:102BF000DB681B78002B22D1FB8943F48043FB81E7
:102C00007B68DB685B78032B19D801A252F823F0AC
:102C10003F2C0008212C00082B2C0008352C000824
:102C2000FB8943F48053FB8109E0FB8943F40053A3
:102C3000FB8104E0FB8943F44053FB8100BF7B68C8
:102C4000DB689B78052B28D801A252F823F000BF3F
:102C50009B2C0008692C0008732C00087D2C0008B0
:102C6000872C0008912C0008FB8943F40073FB813A
:102C700013E0FB8943F48063FB810EE0FB8943F49E
:102C8000C063FB8109E0FB8943F40063FB8104E03E
:102C9000FB8943F42063FB8100BF7B68DB68DB7842
:102CA000072B36D801A252F823F000BF132D0008DD
:102CB000CD2C0008D72C0008E12C0008EB2C0008D4
:102CC000F52C0008FF2C0008092D0008FB8943F0B3
:102CD0002003FB811DE0FB8943F04003FB8118E0EA
:102CE000FB8943F0C003FB8113E0FB8943F08003C1
:102CF000FB810EE0FB8943F0A003FB8109E0FB8927
:102D000043F0C003FB8104E0FB8943F0E003FB8157
:102D100000BFFB8943F48073FB81FB897868194607
:102D2000FFF772FC07F11007BD4680BD80B584B087
:102D300000AF78604FF00103FB737868FFF7E2FCA7
:102D40000346BB817B681B7A012B03D14FF0000344
:102D5000FB730AE0BB891BB2002B03DA4FF00003C0
:102D6000FB7302E04FF00103FB73FB7B184607F196
:102D70001007BD4680BD00BF80B584B000AF78604D
:102D80004FF00003FB81FB8943F00303FB817B6869
:102D9000DB681B78002B22D1FB8943F48043FB8145
:102DA0007B68DB685B78032B19D801A252F823F00B
:102DB000DF2D0008C12D0008CB2D0008D52D0008FF
:102DC000FB8943F48053FB8109E0FB8943F4005302
:102DD000FB8104E0FB8943F44053FB8100BF7B6827
:102DE000DB689B78052B28D801A252F823F000BF9E
:102DF0003B2E0008092E0008132E00081D2E000887
:102E0000272E0008312E0008FB8943F40073FB8154
:102E100013E0FB8943F48063FB810EE0FB8943F4FC
:102E2000C063FB8109E0FB8943F40063FB8104E09C
:102E3000FB8943F42063FB8100BF7B68DB68DB78A0
:102E4000072B36D801A252F823F000BFB32E00089A
:102E50006D2E0008772E0008812E00088B2E0008AA
:102E6000952E00089F2E0008A92E0008FB8943F02C
:102E70002003FB811DE0FB8943F04003FB8118E048
:102E8000FB8943F0C003FB8113E0FB8943F080031F
:102E9000FB810EE0FB8943F0A003FB8109E0FB8985
:102EA00043F0C003FB8104E0FB8943F0E003FB81B6
:102EB00000BFFB8943F48073FB81FB897868194666
:102EC000FFF7A2FB7868FFF71DFC0346FB817B68D8
:102ED0001B7A012B03D07868FFF70EFD00E000BFDE
:102EE00007F11007BD4680BD80B584B000AF7860A3
:102EF0007868FFF727FD03467B817B681B7A012BEF
:102F000002D1DFED277A45E07B68DB689B78052BF3
:102F100032D801A252F823F0312F00083D2F0008CB
:102F2000492F0008552F0008612F00086D2F000859
:102F300049F6A633C4F2C403FB601DE041F26F23DF
:102F4000C4F28303FB6017E041F26F23C4F2030372
:102F5000FB6011E041F26F23C3F68373FB600BE06B
:102F600041F26F23C3F60373FB6005E041F26F2368
:102F7000C3F68363FB6000BFB7F90A3007EE903AEF
:102F8000B8EEE77AD7ED037A27EE277ADFED057AF8
:102F9000C7EE277AB0EE670A07F11007BD4680BD7D
:102FA0009AF979C40000004780B500AF40F27C4335
:102FB000C2F200034FF000021A7003F0D7FA05F0D6
:102FC00089FB4CF28830C0F6000005F0FFFB40F6AC
:102FD0004440C2F2000003F003FB05E040F6444029
:102FE000C2F2000003F04CFB40F64443C2F200037F
:102FF0001B78002BF2D0FEF791F940F6DC00C2F20C
:10300000000000F0EBFC00F0F9F900E000BF40F632
:103010004440C2F2000003F033FB03F02DFC40F209
:103020003073C2F2000393F82E31002B08D005F064
:103030008FFC40F6B003C2F200034FF000021A808A
:1030400040F24850C2F20000FDF768FE40F2A05086
:10305000C2F20000FFF7F8F940F60040C2F20000AB
:1030600002F04EFD40F67010C2F2000002F020F9AE
:1030700040F6DC00C2F2000000F014FD40F67013D0
:10308000C2F200031B7A012BC0D140F67013C2F2CA
:1030900000034FF000021A7240F6B003C2F20003C0
:1030A0001B8803F101039AB240F6B003C2F2000399
:1030B0001A8040F6DC03C2F2000393F88C30012B37
:1030C00004D14FF0030003F0A9FB1DE040F670139C
:1030D000C2F20003DB79012B0BD140F64143C2F26F
:1030E00000031B78012B0FD04FF0010003F096FB7B
:1030F0000AE040F64143C2F200031B78022B03D0E2
:103100004FF0020003F08AFB40F68803C2F200038E
:103110009A8840F6B003C2F200031B889A427FF4FB
:1031200075AF40F64243C2F200031B78002B7FF4D8
:103130006DAF40F6B003C2F200034FF000021A80F8
:1031400040F27C43C2F200034FF000021A7040F2DA
:103150007C40C2F2000008F0E5FF03461A4640F248
:103160007C43C2F20003D2184CF29C33C0F6000339
:103170001868106040F27C40C2F200009B4908F0E1
:10318000E1FD40F27C40C2F2000008F0CBFF0346B4
:103190001A4640F27C43C2F20003D2184CF2A0332C
:1031A000C0F600031B88138040F27C40C2F200008E
:1031B0008F4908F0C7FD40F27C40C2F2000008F0E1
:1031C000B1FF03461A4640F27C43C2F20003D21814
:1031D0004CF2A033C0F600031B88138040F27C4001
:1031E000C2F20000834908F0ADFD40F27C40C2F21B
:1031F000000008F097FF03461A4640F27C43C2F2F3
:103200000003D2184CF2A033C0F600031B881380D1
:1032100040F27C40C2F20000774908F093FD40F292
:103220007C40C2F2000008F07DFF03461A4640F2DF
:103230007C43C2F20003D2184CF2A433C0F6000360
:1032400019889B781180937040F27C40C2F2000094
:1032500005F0BCFA40F67013C2F20003B3F878210F
:1032600040F6B403C2F200031A8040F67013C2F2B3
:10327000000393F87A2140F6B403C2F200039A7077
:1032800040F67013C2F2000393F87B2140F6B403BA
:10329000C2F20003DA7040F67013C2F2000393F832
:1032A0007C2140F6B403C2F200031A7140F6701399
:1032B000C2F2000393F87D2140F6B403C2F200038A
:1032C0005A7140F67013C2F2000393F87E2140F663
:1032D000B403C2F200039A7140F24853C2F20003F1
:1032E0005B6A1A4640F6B403C2F200039A6040F2E9
:1032F000A053C2F200035B6B9AB240F6B403C2F271
:1033000000039A8140F60043C2F200035A8A40F655
:10331000B403C2F20003DA8140F60043C2F20003B4
:103320009A8A40F6B403C2F200031A8240F6701380
:10333000C2F20003D3F8902140F6B403C2F20003B6
:103340005A6140F67013C2F20003D3F88C2140F6A4
:10335000B403C2F200039A6140F67013C2F2000394
:10336000D3F8982140F6B403C2F20003DA6140F6C4
:103370007013C2F2000393F88A2140F6B403C2F23C
:10338000000383F8202040F6DC03C2F2000393F828
:103390008C30002B7FF43AAE40F6D803C2F2000323
:1033A0001B78012B03D0022B13D0002B1DE040F61D
:1033B0007013C2F20003DB79012B15D140F6DC005B
:1033C000C2F2000040F6B401C2F2000100F0ECFBD2
:1033D0000AE040F6DC00C2F2000040F6B401C2F29E
:1033E000000100F0E1FB00E000BF0FE67C050020DB
:1033F000D8050020160C00207909002080B500AF08
:1034000040F24850C2F20000FDF7E6FB40F2A05344
:10341000C2F200034FF4A842C4F200029A6040F2E4
:10342000A053C2F200034FF090021A7140F2A05074
:10343000C2F20000FEF760FF40F60040C2F200005A
:1034400002F014FB40F67013C2F200034FF4A842DE
:10345000C4F200021A6040F67010C2F2000001F0DF
:103460004FFE40F67013C2F200031B79002B06D00A
:1034700040F67013C2F200034FF001021A7180BDD2
:1034800080B582B000AF4FF480204FF0010102F010
:10349000C5FD4FF004033B604FF001033B714FF05B
:1034A00003037B714FF00003BB714FF00103FB710D
:1034B0003B464FF48060C4F60000194603F0AAFAB8
:1034C0004FF48060C4F600004FF0040103F06AFB83
:1034D00007F10807BD4680BD80B588B000AF4FF446
:1034E00000304FF0010102F099FD4FF400304FF031
:1034F000010102F093FD4FF400304FF0010102F0A2
:103500008DFD4FF400404FF0010102F0DBFD4FF064
:1035100090404FF001014FF0060203F05FFB4FF0C7
:1035200090404FF003014FF0060203F057FB4FF0BD
:1035300090404FF002014FF0060203F04FFB4FF0B6
:1035400002033B774FF003037B774FF00003BB7719
:103550004FF00203FB774FF00203BB6107F1180342
:103560004FF09040194603F055FA4FF00803BB6145
:1035700007F118034FF09040194603F04BFA4FF053
:103580000403BB6107F118034FF09040194603F0A4
:1035900041FA4FF47050C4F200004FF00001FDF703
:1035A000E7FC4FF47050C4F20000FDF743FC4FF00D
:1035B0000003BB804FF48273FB804FF4E0633B81D8
:1035C0004FF000037B814FF00003BB814FF4007389
:1035D000FB814FF000033B824FF000037B824FF0F2
:1035E0000703BB8207F104034FF47050C4F20000DC
:1035F0001946FDF763FC4FF47050C4F200004FF41D
:103600008051FDF7D5FC4FF47050C4F200004FF02C
:103610000101FDF7ADFC07F12007BD4680BD00BFED
:1036200080B584B000AF78600B46FB7000BF4FF4EC
:103630007050C4F20000FDF705FD0346002BF6D1E3
:1036400000BF4FF47050C4F200004FF08001FDF74E
:1036500009FD0346012BF4D04FF00003FB602AE084
:10366000FB687A68D3181B784FF47050C4F20000DE
:103670001946FDF7B9FC00BF4FF47050C4F20000CA
:10368000FDF7E0FC0346002BF6D100BF4FF470506D
:10369000C4F200004FF08001FDF7E4FC0346012B6B
:1036A000F4D04FF47050C4F20000FDF7B5FCFB6895
:1036B00003F10103FB60FA78FB689A42D0DC07F162
:1036C0001007BD4680BD00BF90B585B000AF7860E3
:1036D0000B46FB704FF00003FB602AE04FF4705084
:1036E000C4F200004FF00101FDF7DCFC4FF4705014
:1036F000C4F200004FF00001FDF776FC00BF4FF46C
:103700007050C4F200004FF00101FDF7ABFC03461E
:10371000002BF4D0FB687A68D4184FF47050C4F2D0
:103720000000FDF779FC03462370FB6803F10103F9
:10373000FB60FA78FB689A42D0DC07F11407BD46BB
:1037400090BD00BF80B582B000AF4FF005033B7164
:103750004FF48060C4F600004FF0040103F030FA2B
:1037600007F1040318464FF00101FFF759FF3B46EC
:1037700018464FF00101FFF7A7FF4FF48060C4F631
:1037800000004FF0040103F00DFA3B7803F0010351
:10379000002B02D04FF0010301E04FF00003184668
:1037A00007F10807BD4680BD80B500AF40F66C1339
:1037B000C2F200034FF006021A704FF48060C4F6A4
:1037C00000004FF0040103F0FBF940F66C10C2F268
:1037D00000004FF00101FFF723FF4FF48060C4F6B3
:1037E00000004FF0040103F0DDF980BD80B500AFAB
:1037F00040F66C13C2F200034FF004021A704FF44B
:103800008060C4F600004FF0040103F0D9F940F6DF
:103810006C10C2F200004FF00101FFF701FF4FF4FE
:103820008060C4F600004FF0040103F0BBF980BDD6
:1038300080B584B000AF78600B46FB704FF0020398
:103840003B727B68D3F888304FEA1343DBB27B725C
:103850007B68D3F888304FEA1323DBB2BB727B68F6
:10386000D3F88830DBB2FB72FB783B73FFF79CFF29
:103870004FF48060C4F600004FF0040103F0A0F99B
:1038800007F1080318464FF00501FFF7C9FE4FF492
:103890008060C4F600004FF0040103F083F9FFF7E5
:1038A000A5FF7B68D3F88830B3F5001F05D17B688E
:1038B0004FF0010283F88C2007E07B68D3F8883052
:1038C00003F101027B68C3F8882007F11007BD46A9
:1038D00080BD00BF80B584B000AF78604FF00303B7
:1038E0003B737B684FEA1343DBB27B737B684FEA21
:1038F0001323DBB2BB737B68DBB2FB734FF48060D6
:10390000C4F600004FF0040103F05AF907F10C036C
:1039100018464FF00401FFF783FE07F1080318462D
:103920004FF00101FFF7D0FE4FF48060C4F60000B5
:103930004FF0040103F036F93B7A184607F11007FF
:10394000BD4680BD80B485B000AF78604FF0000305
:10395000FB6009E07A68FB68D3184FF000021A7028
:10396000FB6803F10103FB60FB687F2BF2DD7B68E2
:103970004FF00002A3F880207B684FF00002A3F80C
:10398000822007F11407BD4680BC704780B483B025
:1039900000AF78600B46FB707B68B3F882307A68C2
:1039A000F978D1547B68B3F8823003F101024FF00B
:1039B0007F03C8F200031340002B05DA03F1FF3345
:1039C00063F07F0303F101039AB27B68A3F88220BE
:1039D00007F10C07BD4680BC704700BF80B584B0BE
:1039E00000AF78607B684FF00002C3F888207B68E6
:1039F0004FF0000283F88C207B684FF000025A7071
:103A00007B684FF000021A7040F68803C2F2000390
:103A100093F8202040F6D803C2F200031A7040F653
:103A2000B003C2F200034FF000021A80FFF728FD36
:103A3000FFF752FD4FF00003FB607B6803F10203C8
:103A40001846FFF77FFF1BE0FA684FF6E173C0F2FC
:103A50001F039A420AD97B684FF0010283F88C2039
:103A60007B684FF00002C3F8882012E0F868FFF787
:103A700031FF0346FF2B0BD0FB6803F11E03FB60F5
:103A8000FA684FF6E173C0F21F039A42DCD900E0F6
:103A900000BF7B68FA68C3F8882007F11007BD46AD
:103AA00080BD00BF80B582B000AF78607B681B78B6
:103AB000002B02D0012B0DD039E07B68B3F88220B7
:103AC0007B68B3F884309A4233D07B684FF00102B0
:103AD0001A702EE07B68B3F882307A68D3189B782E
:103AE00078681946FFF7A4FE7B68B3F8823003F1CB
:103AF00001024FF07F03C8F200031340002B05DAE8
:103B000003F1FF3363F07F0303F101039AB27B6893
:103B1000A3F882207B68B3F882207B68B3F88430F6
:103B20009A4208D17B684FF000021A7003E000BF90
:103B300002E000BF00E000BF07F10807BD4680BDFE
:103B400080B584B000AF78604FF0C7033B73FFF7D8
:103B50002BFE4FF48060C4F600004FF0040103F028
:103B60002FF807F10C0318464FF00101FFF758FD3D
:103B70004FF48060C4F600004FF0040103F012F827
:103B800000BFFFF7DFFD0346012BFAD07B684FF043
:103B90000002C3F888207B684FF0000283F88C2075
:103BA00007F11007BD4680BD80B58CB000AF7860CE
:103BB00039607B68D3F888204FF6E173C0F21F03A9
:103BC0009A4205D97B684FF0010283F88C20C9E046
:103BD00007F10803BB623B68B86A19464FF002025E
:103BE00008F00EF8BB6A03F10203BB623B6803F105
:103BF0000203B86A19464FF0010208F001F8BB6AE7
:103C000003F10103BB623B6803F10303B86A194681
:103C10004FF0010207F0F4FFBB6A03F10103BB623E
:103C20003B6803F10403B86A19464FF0010207F03C
:103C3000E7FFBB6A03F10103BB623B6803F10503C5
:103C4000B86A19464FF0010207F0DAFFBB6A03F1C8
:103C50000103BB623B6803F10603B86A19464FF0E3
:103C6000010207F0CDFFBB6A03F10103BB623B68B1
:103C700003F10803B86A19464FF0040207F0C0FFC9
:103C8000BB6A03F10403BB623B6803F10C03B86A2F
:103C900019464FF0020207F0B3FFBB6A03F10203BB
:103CA000BB623B6803F10E03B86A19464FF002028B
:103CB00007F0A6FFBB6A03F10203BB623B6803F196
:103CC0001003B86A19464FF0020207F099FFBB6A69
:103CD00003F10203BB623B6803F12003B86A194693
:103CE0004FF0010207F08CFFBB6A03F10103BB62D6
:103CF0003B6803F11803B86A19464FF0040207F055
:103D00007FFFBB6A03F10403BB623B6803F114034A
:103D1000B86A19464FF0040207F072FFBB6A03F15C
:103D20000403BB623B6803F11C03B86A19464FF0F9
:103D3000040207F065FF4FF00003FB620FE07B68B1
:103D400003F1020207F10801FB6ACB181B78104649
:103D50001946FFF71BFEFB6A03F10103FB62FB6AD6
:103D60001D2BECDD07F13007BD4680BD80B58EB060
:103D700000AFF860B9607A604FF000037B6311E038
:103D80007868FFF7A7FD03461A4607F110017B6B21
:103D9000CB181A707B6803F101037B607B6B03F126
:103DA00001037B637B6B1D2BEADD07F110033B6393
:103DB000BB681846396B4FF0020207F021FF3B6BDE
:103DC00003F102033B63BB6803F102031846396B3E
:103DD0004FF0010207F014FF3B6B03F101033B635B
:103DE000BB6803F103031846396B4FF0010207F07B
:103DF00007FF3B6B03F101033B63BB6803F1040363
:103E00001846396B4FF0010207F0FAFE3B6B03F1E5
:103E100001033B63BB6803F105031846396B4FF0A0
:103E2000010207F0EDFE3B6B03F101033B63BB684E
:103E300003F106031846396B4FF0010207F0E0FE6C
:103E40003B6B03F101033B63BB6803F108031846B6
:103E5000396B4FF0040207F0D3FE3B6B03F1040310
:103E60003B63BB6803F10C031846396B4FF0020249
:103E700007F0C6FE3B6B03F102033B63BB6803F133
:103E80000E031846396B4FF0020207F0B9FE3B6B88
:103E900003F102033B63BB6803F110031846396B5F
:103EA0004FF0020207F0ACFE3B6B03F102033B63F1
:103EB000BB6803F120031846396B4FF0010207F08D
:103EC0009FFE3B6B03F101033B63BB6803F11803E7
:103ED0001846396B4FF0040207F092FE3B6B03F17A
:103EE00004033B63BB6803F114031846396B4FF0BE
:103EF000040207F085FE3B6B03F104033B63BB68E0
:103F000003F11C031846396B4FF0040207F078FEEA
:103F100007F13807BD4680BD80B485B000AF78603A
:103F20004FF00003FB604FF4E043C4F200031B6852
:103F3000FB60FB6823F0E003FB60FA687B681343D7
:103F4000FB604FF4E043C4F20003FA681A6007F123
:103F50001407BD4680BC704780B483B000AF0346F1
:103F6000FB714FF01003C4F20E23FA791A6007F1C7
:103F70000C07BD4680BC704780B485B000AF786048
:103F80004FF00003FB734FF4E043C4F200035A68A0
:103F90007B681340002B03D04FF00103FB7302E05A
:103FA0004FF00003FB73FB7B184607F11407BD4677
:103FB00080BC704780B592B000AF786039604FF038
:103FC00000037B644FF000033B644FF00003FB638E
:103FD0007B681B6823F001027B681A607B685B6862
:103FE000FB63FB6B23F44053FB633B689B68FA6BFA
:103FF0001343FB637B68FA6B5A607B681B68FB6347
:10400000FB6B23F4B05323F00C03FB633B685A684B
:104010003B68DB681A433B681B691343FA6B134325
:10402000FB637B68FA6B1A607B689B68FB63FB6BC6
:1040300023F44073FB633B685B69FA6B1343FB63D8
:104040007B68FA6B9A6007F10C03184601F0F6FDE5
:104050007A684FF46053C4F201039A4202D13B6B79
:104060003B640BE07A684FF48843C4F200039A4241
:1040700002D17B6B3B6401E0BB6B3B647B681B68DC
:1040800003F40043002B13D03B6C4FEA43023B6820
:104090001B68B2FBF3F37B643B6C4FEA43033A6863
:1040A0001268B3FBF2F102FB01F29B1AFB630EE014
:1040B0003B681B683A6CB2FBF3F37B643B681A689D
:1040C0003B6CB3FBF2F102FB01F29B1AFB633B6812
:1040D0001B684FEA5302FB6B9A4203D87B6C03F1D7
:1040E00001037B647B681B6803F40043002B0CD046
:1040F0007B6C03F00F034FEA5303FB637A6C4FF6BC
:10410000F0731340FA6B13437B647B6C9AB27B6849
:104110009A8107F14807BD4680BD00BF80B483B0D7
:1041200000AF78600B46FB70FB78002B06D07B68F5
:104130001B6843F001027B681A6005E07B681B681E
:1041400023F001027B681A6007F10C07BD4680BCB2
:10415000704700BF80B483B000AF78600B467B80AF
:104160007B884FEAC3534FEAD3539AB27B681A85D0
:1041700007F10C07BD4680BC704700BF80B483B018
:1041800000AF78607B689B8C9BB24FEAC3534FEAC9
:10419000D3539BB2184607F10C07BD4680BC70474D
:1041A00080B489B000AFF860B9601346FB714FF07E
:1041B0000003BB614FF000037B614FF000033B61E4
:1041C0004FF00003FB61FB68FB61BB689BB24FEAE9
:1041D00013239BB2BB61BB68DBB27B617B694FF091
:1041E000010202FA03F33B61BB69022B04D1FB69B4
:1041F00003F10403FB6106E0BB69032B03D1FB69F8
:1042000003F10803FB61FB79002B06D0FB69FA6917
:1042100011683A690A431A6007E0FB69FA69116894
:104220003A696FEA02020A401A6007F12407BD46A4
:1042300080BC704780B485B000AF786039604FF0C3
:104240000003FB737B68DA693B681340002B03D0E3
:104250004FF00103FB7302E04FF00003FB73FB7BA5
:10426000184607F11407BD4680BC704780B483B080
:1042700000AF786039607B683A681A6207F10C0712
:10428000BD4680BC704700BF80B487B000AF786087
:1042900039604FF00003FB604FF000037B614FF08B
:1042A0000003BB604FF00003FB743B689BB24FEA16
:1042B00013239BB2BB603B68DBB27B617B694FF031
:1042C000010202FA03F37B61BB68012B05D17B6815
:1042D0001B687A6913407B610DE0BB68022B05D136
:1042E0007B685B687A6913407B6104E07B689B684C
:1042F0007A6913407B613B684FEA1343FB60FB68BC
:104300004FF0010202FA03F3FB607B68DB69FA6895
:104310001340FB607B69002B06D0FB68002B03D0A9
:104320004FF00103FB7402E04FF00003FB74FB7CD1
:10433000184607F11C07BD4680BC704780B588B0A1
:1043400002AFF8600B467A60FB72FB681B68184688
:104350004FF01001FCF7D4FFFB681A68FB7A4FF4AA
:104360000051009110464FF084011A464FF000733F
:10437000FCF756FF4FF000037B613BE000BFFB689A
:104380001B6818464FF00201FCF796FF0346002B0E
:1043900009D1FB681B6818464FF01001FCF78CFF31
:1043A0000346002BEBD0FB681B6818464FF010014A
:1043B000FCF782FF0346012B0CD1FB681B681846F3
:1043C0004FF01001FCF79CFFFB684FF001029A715F
:1043D00000BF13E0FB681A687B681B78104619461B
:1043E000FCF74EFF7B6803F101037B607B6903F1FF
:1043F00001037B61FA7A7B699A42BFDC00BFFB68EC
:104400001B6818464FF02001FCF756FF0346002BAF
:10441000F5D007F11807BD4680BD00BF80B586B056
:1044200002AF78604FF0FF037B734FF4FA63FB81B8
:104430007B681B684FF41052009218464FF08401BD
:104440004FF001024FF00073FCF7EAFE03E0FB8936
:1044500003F1FF33FB817B681B6818464FF00401B2
:10446000FCF72AFF0346002B02D1FB89002BEED17B
:104470007B681B681846FCF711FF03467B73FB89BA
:10448000002B03D17B684FF001029A7100BF7B685B
:104490001B6818464FF04001FCF70EFF0346012B46
:1044A000F5D07B7B184607F11007BD4680BD00BFE5
:1044B00080B584B000AF78604FF000037B817868EE
:1044C00000F08CF87B68B3F86E317A68D31893F8F3
:1044D0006E30622B55D17B68B3F86E3103F1010366
:1044E0009AB27B68A3F86E21786800F077F87B6851
:1044F000B3F86E3103F101039AB27B68A3F86E2121
:10450000786800F06BF87B68B3F86E3103F1010353
:104510009AB27B68A3F86E21786800F05FF87B6838
:10452000B3F86E317A68D31893F86E301A467B89E7
:1045300013437B817B68B3F86E3103F101039AB2B8
:104540007B68A3F86E21786800F048F87B68B3F8C0
:104550006E317A68D31893F86E304FEA03239AB21B
:104560007B8913439BB27B817B68B3F86E3103F187
:1045700001039AB27B68A3F86E214FF00003FB6041
:1045800014E07B684FF001021A7122E0786800F0B5
:1045900025F87B68B3F86E3103F101039AB27B68AA
:1045A000A3F86E21FB6803F10103FB607A89FB68C5
:1045B0009A42EBDC786800F011F87B68B3F86E3152
:1045C00003F101039AB27B68A3F86E21786800F0CA
:1045D00005F807F11007BD4680BD00BF90B583B058
:1045E00000AF78607B68B3F86E311C467868FFF7DF
:1045F00015FF03461A467B681B1983F86E207B68FB
:104600009B79012B04D17B684FF001029A7100BFA6
:1046100007F10C07BD4690BD80B485B000AF78604F
:104620007B684FF00002A3F86E214FF00003FB609F
:104630000BE07A68FB68D31803F168034FF00002BF
:104640009A71FB6803F10103FB60FB68FE2BF0DD50
:1046500007F11407BD4680BC704700BF90B587B016
:1046600000AF78604FF000033B727B6803F1740386
:104670007B617B6803F5BA73184679694FF00402D1
:1046800007F0BEFA7B6903F104037B617B6803F5E5
:10469000BC73184679694FF0020207F0B1FA7B69E2
:1046A00003F102037B617B6803F5BD7318467969EA
:1046B0004FF0010207F0A4FA7B6903F101037B616B
:1046C0007B6803F27B13184679694FF0010207F00B
:1046D00097FA7B6903F101037B617B6803F5BE7385
:1046E000184679694FF0010207F08AFA7B6903F1F5
:1046F00001037B617B6803F27D13184679694FF0F3
:10470000010207F07DFA7B6903F101037B617B689D
:1047100003F5BF73184679694FF0010207F070FA8C
:104720007B6903F101037B617B6803F27F13184609
:1047300079694FF0010207F063FA7B6903F1010325
:104740007B617B6803F5C073184679694FF00402FA
:1047500007F056FA7B6903F104037B617B6803F57C
:10476000C273184679694FF0040207F049FA7B6971
:1047700003F104037B617B6803F5C4731846796910
:104780004FF0010207F03CFA7B6903F101037B6102
:104790007B6803F28913184679694FF0010207F02C
:1047A0002FFA7B6903F101037B617B6903F101034C
:1047B0007B617B6803F5C573184679694FF0010288
:1047C00007F01EFA7B6903F101037B617B6803F547
:1047D000C673184679694FF0040207F011FA7B6935
:1047E00003F104037B617B6803F5C873184679699C
:1047F0004FF0040207F004FA7B6903F104037B61C4
:104800007B6803F5CA73184679694FF0040207F014
:10481000F7F97B6903F104037B617B6803F5CC73D3
:10482000184679694FF0040207F0EAF97B684FF007
:1048300000025A727B68B3F8783107F1080210461B
:1048400019464FF00402FDF70FF97B6803F10902E6
:1048500007F108031046194607F074FA7B6803F164
:104860000904204607F05EFC0346E2184CF2A83328
:10487000C0F600031B8813807B6893F87A3107F138
:104880000802104619464FF00202FDF7EDF87B686A
:1048900003F1090207F108031046194607F052FA1E
:1048A0007B6803F10904204607F03CFC0346E2184C
:1048B0004CF2A833C0F600031B8813807B6893F882
:1048C0007B3107F10802104619464FF00202FDF74E
:1048D000CBF87B6803F1090207F10803104619467B
:1048E00007F030FA7B6803F10904204607F01AFC50
:1048F0000346E2184CF2AC33C0F600031B88138069
:104900007B6893F87C3107F10802104619464FF096
:104910000202FDF7A9F87B6803F1090207F1080319
:104920001046194607F00EFA7B6803F10904204689
:1049300007F0F8FB0346E2184CF2B033C0F6000370
:104940001B8813807B6893F87D3107F108021046BD
:1049500019464FF00202FDF787F87B6803F1090260
:1049600007F108031046194607F0ECF97B6803F1DC
:104970000904204607F0D6FB0346E2184CF2B03398
:10498000C0F600031B8813807B6893F87E3107F123
:104990000802104619464FF00202FDF765F87B68E1
:1049A00003F1090207F108031046194607F0CAF996
:1049B0007B6803F10904204607F0B4FB0346E218C4
:1049C0004CF2AC33C0F600031B8813807B68D3F82D
:1049D0008C3107F10802104619464FF00A02FDF724
:1049E0008DF87B6803F1090207F1080310461946A8
:1049F00007F0A8F97B6803F10904204607F092FB51
:104A00000346E2184CF2AC33C0F600031B88138057
:104A10007B68D3F8903107F10802104619464FF031
:104A20000A02FDF76BF87B6803F1090207F108033E
:104A30001046194607F086F97B6803F10904204601
:104A400007F070FB0346E2184CF2AC33C0F60003EB
:104A50001B8813807B68D3F8983107F10802104651
:104A600019464FF00802FDF749F87B6803F1090287
:104A700007F108031046194607F064F97B6803F153
:104A80000904204607F04EFB0346E2184CF2AC3313
:104A9000C0F600031B8813807B6893F88A3107F106
:104AA0000802104619464FF00202FCF7DDFF7B6852
:104AB00003F1090207F108031046194607F042F90D
:104AC00007F11C07BD4690BD80B588B000AF786087
:104AD0004FF47A73FB610FE07868FFF79FFC0346A1
:104AE000FB75FB7DFF2B04D1FB6903F1FF33FB61F9
:104AF00002E0FB7D3B7202E0FB69002BECD1FB691D
:104B0000002B02D14FF0020348E03B7AB52B09D1CC
:104B10007868FFF783FC03467B7200BF7B7A622BC9
:104B200006D108E07868FFF779FC03463B72ECE7B2
:104B30007B7A3B72E9E74FF00203BB610DE07868D6
:104B4000FFF76CFC03461A4607F10801BB69CB1856
:104B50001A70BB6903F10103BB61BB69092BEED974
:104B600007F1080318464FF002014FF00702FDF766
:104B70008BF90346BB82BB8ADAB23B7C9A4202D0F5
:104B80004FF003030AE0BB8A4FEA13239AB27B7CFF
:104B90009A4202D04FF0030300E0FB7A184607F177
:104BA0002007BD4680BD00BF80B58AB000AF7860E9
:104BB0004FF0B5033B724FF062037B724FF0060378
:104BC000BB724FF00003FB724FF014033B734FF0C6
:104BD00000037B734FF00003BB734FF00003FB73C4
:104BE0004FF000033B744FF000037B744FF08403DD
:104BF000BB744FF00003FB744FF000033B754FF0A4
:104C000000037B754FF00003BB754FF00003FB758D
:104C10004FF000033B764FF000037B764FF001032B
:104C2000BB764FF00003FB764FF001033B774FF06C
:104C300000037B774FF00203BB774FF00003FB7755
:104C40004FF0000387F820304FF0000387F8213041
:104C500007F1080318464FF002014FF01902FDF763
:104C600013F90346FB84FB8CDBB287F82230FB8C04
:104C70004FEA13239BB2DBB287F8233007F1080316
:104C800078684FF01C011A46FFF758FB7B689B7948
:104C9000002B0DD17868FFF717FF034687F8253002
:104CA00097F82530012B03D07B684FF001029A71F1
:104CB0007B685B7918464FF0640101F03FFD00BF4F
:104CC0007B685B79184601F061FD0346012BF7D044
:104CD00000BF7868FFF7A2FB0346FF2BF9D1786885
:104CE000FFF79AFC07F12807BD4680BD80B588B064
:104CF00000AF786013460A46FA70BB704FF0B503F8
:104D00003B734FF062037B734FF00603BB734FF0AE
:104D10000103FB734FF008033B744FF000037B74F7
:104D2000FB78BB74BB78FB744FF001033B754FF00D
:104D300000037B754FF00003BB754FF00003FB755C
:104D40004FF000033B764FF000037B7607F10C0336
:104D500018464FF002014FF00D02FDF795F803469B
:104D6000FB83FB8BDBB2BB76FB8B4FEA13239BB23F
:104D7000DBB2FB7607F10C0378684FF010011A469E
:104D8000FFF7DCFA7B689B79002B0BD17868FFF783
:104D90009BFE03467B777B7F012B03D07B684FF024
:104DA00001029A7107F12007BD4680BD80B58EB023
:104DB00000AF78604FF0B5033B724FF062037B7237
:104DC0004FF00603BB724FF02403FB724FF0240335
:104DD0003B734FF000037B734FF0FF03BB734FF047
:104DE000FF03FB734FF007033B744FF002037B7428
:104DF0004FF00003BB744FF00003FB744FF000034F
:104E00003B754FF000037B754FF01003BB754FF0FF
:104E10002703FB754FF000033B764FF000037B76D2
:104E20004FF00003BB764FF00003FB764FF0FA0320
:104E30003B774FF000037B774FF0FA03BB774FF0DF
:104E40000003FB774FF0640387F820304FF0000336
:104E500087F821304FF02C0387F822304FF0010300
:104E600087F823304FF0000387F824304FF03C03DD
:104E700087F825304FF0000387F826304FF0000305
:104E800087F827304FF0000387F828304FF00003F1
:104E900087F829304FF0C80387F82A304FF0000315
:104EA00087F82B304FF0000387F82C304FF00003C9
:104EB00087F82D304FF0000387F82E304FF00003B5
:104EC00087F82F304FF0000387F830304FF00003A1
:104ED00087F831304FF0150387F832304FF0B103C7
:104EE00087F8333007F1080378684FF02C011A4631
:104EF000FFF724FA7B689B79002B0DD17868FFF7C8
:104F0000E3FD034687F8373097F83730012B03D09D
:104F10007B684FF001029A7107F13807BD4680BDEA
:104F200080B590B000AF78604FF0B5033B734FF0A1
:104F300062037B734FF00603BB734FF02303FB73D5
:104F40004FF028033B744FF000037B744FF00003D5
:104F5000BB744FF00003FB744FF04C033B754FF0F4
:104F600066037B754FF00003BB754FF00003FB75C4
:104F70004FF000033B764FF000037B764FF00003C9
:104F8000BB764FF00003FB764FF004033B774FF006
:104F900010037B774FF00603BB774FF00003FB77DE
:104FA0004FF0010387F820304FF0000387F82130DD
:104FB0004FF0000387F822304FF0000387F82330CA
:104FC0004FF0DC0387F824304FF0060387F82530D4
:104FD0004FF0000387F826304FF0000387F82730A2
:104FE0004FF0000387F828304FF0000387F829308E
:104FF0004FF0000387F82A304FF0000387F82B307A
:105000004FF0000387F82C304FF0000387F82D3065
:105010004FF0000387F82E304FF0000387F82F3051
:105020004FF0640387F830304FF0000387F83130D9
:105030004FF0000387F832304FF0000387F8333029
:105040004FF0000387F834304FF0000387F8353015
:105050004FF0000387F836304FF0000387F8373001
:105060004FF0000387F838304FF0000387F83930ED
:1050700007F10C0318464FF002014FF02D02FCF728
:1050800003FF0346FB87FB8FDBB287F83A30FB8FC9
:105090004FEA13239BB2DBB287F83B3007F10C03D6
:1050A00078684FF030011A46FFF748F97B689B7922
:1050B000002B0DD17868FFF707FD034687F83D30D8
:1050C00097F83D30012B03D07B684FF001029A71B5
:1050D00007F14007BD4680BD80B483B000AF786063
:1050E0007B6893F88A31032B02D84FF0000301E06C
:1050F0004FF00103184607F10C07BD4680BC70470E
:1051000080B582B000AF78607B684FF000021A7102
:105110007B684FF000029A717B684FF00002DA71F1
:105120007B684FF000021A727B684FF000025A72DF
:105130007B684FF003025A717868FFF76DFA786860
:1051400000F064F87868FFF72FFD4FF06400FCF77B
:1051500017FA7B689B79012B06D14CF2B430C0F66C
:10516000000003F033FBFEE77868FFF71FFE4FF007
:105170006400FCF705FA7B689B79012B06D14CF2A1
:10518000DC30C0F6000003F021FBFEE77868FFF793
:10519000C7FE4FF06400FCF7F3F97B689B79012BA5
:1051A00006D14CF20840C0F6000003F00FFBFEE70A
:1051B00078684FF001014FF00702FFF797FD4FF0BD
:1051C0006400FCF7DDF97B689B79012B06D14CF27A
:1051D0003440C0F6000003F0F9FAFEE77B689B79E3
:1051E000012B06D14CF26040C0F6000003F0EEFA4D
:1051F000FEE77B684FF004021A714FF00A00FCF7DB
:10520000BFF907F10807BD4680BD00BF80B586B075
:1052100000AF78604FF0B5033B724FF062037B72D2
:105220004FF00603BB724FF00403FB724FF0040310
:105230003B734FF000037B734FF00003BB734FF0E1
:105240000003FB734FF000033B744FF000037B74CB
:1052500007F1080318464FF002014FF00902FCF76E
:1052600013FE0346FB82FB8ADBB2BB74FB8A4FEA68
:1052700013239BB2DBB2FB7407F1080378684FF08D
:105280000C011A46FFF75AF87B685B7918464FF411
:10529000FA7101F053FA00BF7B685B79184601F0A0
:1052A00075FA0346012BF7D007F11807BD4680BDFC
:1052B00080B582B000AF78607B685B79184601F0FA
:1052C00065FA0346012B00F087807B689B79012BF0
:1052D0001AD17B684FF000029A717B684FF001028F
:1052E0001A717B681B68184601F068F97B685B7966
:1052F00018464FF0020101F021FA4CF28C40C0F642
:10530000000003F063FA6AE07B681B7903F1FF3366
:10531000032B63D801A252F823F000BF2D530008DD
:105320004153000895530008DD5300087B684FF097
:105330000002A3F86E217B684FF002021A714EE062
:105340007868FFF74BF97B68B3F86E317A68D31849
:1053500093F86E30B52B10D17B68B3F86E3103F142
:1053600001039AB27B68A3F86E217868FFF7A0F872
:105370007B684FF003021A7104E07B684FF0000273
:10538000A3F86E217B685B7918464FF0020101F0AB
:10539000D5F924E07B6893F87130072B02D1786847
:1053A000FFF75CF97868FFF737F97868FFF794FE44
:1053B00003461A467B68DA717B684FF001021A7265
:1053C0007B684FF001021A717B685B7918464FF0D9
:1053D000640101F0B3F902E000BF00E000BF07F193
:1053E0000807BD4680BD00BF80B400AF4FF44053F6
:1053F000C4F202034FF0FF321A604FF44053C4F27C
:10540000020341F6B752C0F2C1425A614FF4405311
:10541000C4F202034FF000021A714FF44053C4F279
:1054200002034FF0FF321A614FF44053C4F20203FB
:105430004FF001029A60BD4680BC704780B485B0D1
:1054400000AF786039604FF00003FB604FF000035D
:10545000FB600EE04FF44053C4F20203FA684FEAD7
:10546000820279688A1812681A60FB6803F10103E6
:10547000FB60FA683B689A42ECD34FF44053C4F2A5
:1054800002031B68184607F11407BD4680BC70472D
:1054900080B500AF4FF46D43CEF200034FF46D4280
:1054A000CEF20002D2F8882042F47002C3F88820BD
:1054B0004FF48053C4F202034FF48052C4F202024C
:1054C000126842F001021A604FF48053C4F20203E2
:1054D0004FF48052C4F20202526802F47F025A6012
:1054E0004FF48053C4F202034FF48052C4F202021C
:1054F000126822F0847222F480321A604FF48053D2
:10550000C4F202034FF48052C4F20202126822F481
:1055100080221A604FF48053C4F202034FF4805289
:10552000C4F20202526822F4FE025A604FF4805321
:10553000C4F202034FF48052C4F20202D26A22F093
:105540000F02DA624FF48053C4F202034FF4805228
:10555000C4F20202126B22F0F02222F073021A63EC
:105560004FF48053C4F202034FF000029A6000F03F
:1055700009F84FF46D43CEF200034FF000629A60D9
:1055800080BD00BF80B400AF4FF40053C4F20203EB
:105590004FF001021A604FF48053C4F202034FF43B
:1055A0008052C4F2020252685A604FF48053C4F22F
:1055B00002034FF48052C4F2020252685A604FF460
:1055C0008053C4F202034FF48052C4F202025268C4
:1055D00042F480625A604FF48053C4F202034FF4E5
:1055E0008052C4F20202526822F47C125A604FF4D4
:1055F0008053C4F202034FF48052C4F20202526894
:1056000042F420125A604FF48053C4F202034FF464
:105610008052C4F20202126842F080721A6000BF27
:105620004FF48053C4F202031B6803F00073002B95
:10563000F6D04FF48053C4F202034FF48052C4F208
:105640000202526822F003025A604FF48053C4F2FF
:1056500002034FF48052C4F20202526842F0020286
:105660005A6000BF4FF48053C4F202035B6803F03A
:105670000C03082BF6D1BD4680BC704780B584B0C2
:1056800002AF78607B681B6818464FF03001FBF76B
:1056900037FE7B681B684FF40052009218464FF0AB
:1056A00050014FF000024FF00073FBF7B9FD00BF4F
:1056B0007B681B6818464FF02001FBF7FDFD034691
:1056C000002B09D17B681B6818464FF00001FBF7DF
:1056D000F3FD0346002BEBD17B681B6818464FF0A7
:1056E0001001FBF7E9FD0346012B0AD17B681B681B
:1056F00018464FF01001FBF703FE7B684FF00102E4
:10570000DA7107F10807BD4680BD00BF90B587B0CC
:1057100002AF78607B681B6818464FF01001FBF7FA
:10572000EFFD7B681B684FF41052009218464FF053
:1057300050014FF004024FF00073FBF771FD4FF082
:105740000003FB8148E04FF47A73BB8103E0BB891F
:1057500003F1FF33BB817B681B6818464FF00401DF
:10576000FBF7AAFD0346002B0CD17B681B6818468B
:105770004FF01001FBF7A0FD0346002B02D1BB89BF
:10578000002BE4D17B681B6818464FF01001FBF733
:1057900093FD0346012B02D0BB89002B0BD17B6804
:1057A0001B6818464FF01001FBF7AAFD7B684FF00D
:1057B0000102DA7152E0FC897B681B681846FBF72E
:1057C0006DFD03461A4607F110010B1903F8082C6A
:1057D000FB8903F10103FB81FB89032BB3D900BFD4
:1057E0007B681B6818464FF02001FBF765FD0346F8
:1057F000002BF5D03B7A03F04003002B04D07B68EC
:105800004FF001021A7203E07B684FF000021A7237
:105810003B7A4FEA03239BB24FEA83434FEA934319
:105820009AB27B685A817B685A897B7A13439AB211
:105830007B685A81BB7A4FEA03239AB27B689A81CC
:105840007B689A89FB7A13439AB27B689A817B685A
:105850009B894FEA93039AB27B689A8107F11407F8
:10586000BD4690BD0000000080B584B000AF7860F8
:105870007B685B8907EE103AF8EE477A17EE900ADC
:1058800005F02EFE02460B46104619464FF0000268
:105890004FF00003C4F2590305F076FE02460B46B2
:1058A0001046194648A3D3E9002305F097FF0246A6
:1058B0000B461046194606F049F90346FB607B6823
:1058C0009B8907EE103AF8EE477A17EE900A05F03A
:1058D00007FE02460B46104619463DA3D3E90023B6
:1058E00005F052FE02460B461046194636A3D3E990
:1058F000002305F073FF02460B46104619464FF091
:1059000000024FF00003C4F2440305F089FC024694
:105910000B461046194606F019F90346BB60F868B5
:1059200005F0DEFD02460B46104619464FF0000218
:105930004FF00003C4F2240305F026FE02460B4696
:1059400043EC172BB0EE470AF0EE670A03F0D8FAE3
:1059500053EC102B1046194606F0B0F803469AB2E5
:105960007B68DA81B86805F0BBFD02460B4610463D
:1059700019464FF000024FF00003C4F2590305F03E
:1059800003FE02460B4643EC172BB0EE470AF0EE3F
:10599000670A03F0B5FA53EC102B1046194606F0CF
:1059A0008DF803469AB27B681A827B68DA897B6835
:1059B0005A827B681A8A7B689A8207F11007BD4673
:1059C00080BD00BFAFF300800000000080FFCF402B
:1059D0000000000000A0644080B58AB000AF78608D
:1059E0004FF000033B727B685B8A1BB207F11C021D
:1059F000104619464FF00402FCF780F807F1080240
:105A000007F11C031046194606F09CF907F108033C
:105A1000184606F087FB034607F10802D2184CF23D
:105A2000A043C0F600031B8813807B689B8A1BB2CF
:105A300007F11C02104619464FF00402FCF75EF80D
:105A400007F1080207F11C031046194606F07AF91F
:105A50007B6803F1160207F108031046194606F0A9
:105A600003FB07F12807BD4680BD00BF80B582B0AB
:105A700000AF78607A684FF4A843C4F20003136063
:105A80007B684FF000021A717B684FF002025A7176
:105A90007B684FF00002DA717B684FF000021A72E7
:105AA0007B684FF000025A817B684FF000029A81B8
:105AB0007B6842F20F72DA817B6842F20F721A82BF
:105AC0007B6842F20F725A827B6842F20F729A82AE
:105AD0007B684FF001021A71786800F011F87B685A
:105AE000DB79012B04D17B684FF000021A7103E0CF
:105AF0007B681B79012BEFD107F10807BD4680BDFC
:105B000080B582B000AF78607B685B79184600F0A2
:105B10003DFE0346012B52D07B68DB79012B07D178
:105B20007B684FF00002DA717B684FF001021A7156
:105B30007B681B79042B44D801A252F823F000BFE4
:105B4000C35B0008555B0008C35B00089B5B000853
:105B5000C35B00087868FFF791FD7B68DB79002B59
:105B600003D17B684FF002021A717B685B7918469B
:105B70004FF0320100F0E2FD00BF7B685B79184610
:105B800000F004FE0346012BF7D07868FFF7BEFD56
:105B90007B684FF003021A7114E07868FFF764FE27
:105BA0007868FFF719FF7B684FF001021A717B6874
:105BB0005B7918464FF00A0100F0C0FD02E000BF1B
:105BC00000E000BF07F10807BD4680BD80B485B086
:105BD00000AF78604FF00003FB607B684FEA1373FF
:105BE000FB60FB68002B0CD14FF48053C4F202031E
:105BF0004FF48052C4F20202126B22F010021A63B8
:105C00000BE04FF48053C4F202034FF48052C4F20D
:105C10000202126B22F020021A634FF48053C4F286
:105C200002034FF48052C4F20202116B7A680A43F5
:105C30001A6307F11407BD4680BC704780B489B071
:105C400000AF78604FF00003FB614FF00003BB61D1
:105C50004FF000037B614FF000033B614FF0000306
:105C6000FB604FF48053C4F202035B6803F00C0343
:105C7000FB61FB69042B0AD0082B0FD0002B47D106
:105C80007A684FF49053C0F27A03136047E07A6861
:105C90004FF41053C0F2F403136040E04FF480530C
:105CA000C4F202035B6803F47013BB614FF48053CA
:105CB000C4F202035B6803F480337B61BB694FEA83
:105CC000934303F10203BB617B69002B09D1BA69DD
:105CD0004FF41063C0F23D0303FB02F27B681A60CD
:105CE0001DE04FF48053C4F20203DB6A03F00F039C
:105CF00003F101033B614FF41053C0F2F4033A691E
:105D0000B3FBF2F3BA6902FB03F27B681A6006E0A8
:105D10007A684FF49053C0F27A03136000BF4FF4D7
:105D20008053C4F202035B6803F0F003FB61FB697C
:105D30004FEA1313FB6140F21403C2F20003FA6945
:105D40009B181B78DBB2FB607B681A68FB6822FA41
:105D500003F27B685A604FF48053C4F202035B681D
:105D600003F4E063FB61FB694FEA1323FB6140F23C
:105D70001403C2F20003FA699B181B78DBB2FB60C4
:105D80007B685A68FB6822FA03F27B689A604FF4DA
:105D90008053C4F202035B6803F46053FB61FB6948
:105DA0004FEAD323FB6140F21403C2F20003FA6905
:105DB0009B181B78DBB2FB607B685A68FB6822FA91
:105DC00003F27B68DA604FF48053C4F202035B682D
:105DD00003F44043FB61FB694FEA9333FB6140F2FC
:105DE0002403C2F20003FA699B181B78DBB2FB6044
:105DF0007B68DA68FB68B2FBF3F27B681A614FF4E8
:105E00008053C4F202035B6803F07843FB61FB69D3
:105E10004FEAD36303F00F03FB6140F22803C2F2A1
:105E20000003FA699B181B78DBB2FB607B681A6879
:105E3000FB68B2FBF3F27B685A614FF48053C4F203
:105E400002031B6B03F04003002B04D17B6848F274
:105E500012029A6103E07B684FF400429A614FF4AA
:105E60008053C4F202031B6B03F01003002B06D116
:105E70007A684FF49053C0F27A03D36103E07B68F1
:105E80001A687B68DA614FF48053C4F202031B6B1B
:105E900003F02003002B06D17A684FF49053C0F230
:105EA0007A03136203E07B681A687B681A624FF416
:105EB0008053C4F202031B6B03F00303002B04D1D5
:105EC0007B68DA687B685A622AE04FF48053C4F238
:105ED00002031B6B03F00303012B04D17B681A68D8
:105EE0007B685A621CE04FF48053C4F202031B6BC0
:105EF00003F00303022B04D17B684FF400425A6283
:105F00000EE04FF48053C4F202031B6B03F0030353
:105F1000032B05D17A684FF49053C0F27A03536291
:105F20004FF48053C4F202031B6B03F44033002B85
:105F300004D17B689A687B689A622DE04FF48053A5
:105F4000C4F202031B6B03F44033B3F5803F04D16A
:105F50007B681A687B689A621EE04FF48053C4F233
:105F600002031B6B03F44033B3F5003F04D17B689D
:105F70004FF400429A620FE04FF48053C4F20203E0
:105F80001B6B03F44033B3F5403F05D17A684FF4FF
:105F90009053C0F27A0393624FF48053C4F2020329
:105FA0001B6B03F44023002B04D17B689A687B6849
:105FB000DA622DE04FF48053C4F202031B6B03F44A
:105FC0004023B3F5802F04D17B681A687B68DA62BE
:105FD0001EE04FF48053C4F202031B6B03F4402312
:105FE000B3F5002F04D17B684FF40042DA620FE072
:105FF0004FF48053C4F202031B6B03F44023B3F548
:10600000402F05D17A684FF49053C0F27A03D362DF
:1060100007F12407BD4680BC704700BF80B483B041
:1060200000AF78600B46FB70FB78002B0CD04FF470
:106030008053C4F202034FF48052C4F20202516949
:106040007A680A435A610DE04FF48053C4F20203A8
:106050004FF48052C4F2020251697A686FEA020278
:106060000A405A6107F10C07BD4680BC704700BF6B
:1060700080B483B000AF78600B46FB70FB78002BD8
:106080000CD04FF48053C4F202034FF48052C4F298
:10609000020291697A680A439A610DE04FF48053D5
:1060A000C4F202034FF48052C4F2020291697A688A
:1060B0006FEA02020A409A6107F10C07BD4680BCF4
:1060C000704700BF80B483B000AF78600B46FB70B0
:1060D000FB78002B0CD04FF48053C4F202034FF432
:1060E0008052C4F20202D1697A680A43DA610DE093
:1060F0004FF48053C4F202034FF48052C4F2020200
:10610000D1697A686FEA02020A40DA6107F10C0786
:10611000BD4680BC704700BF80B483B000AF7860DC
:106120000B46FB70FB78002B0CD04FF48053C4F26D
:1061300002034FF48052C4F20202D1687A680A4323
:10614000DA600DE04FF48053C4F202034FF4805242
:10615000C4F20202D1687A686FEA02020A40DA6089
:1061600007F10C07BD4680BC704700BF80B483B008
:1061700000AF78600B46FB70FB78002B0CD04FF41F
:106180008053C4F202034FF48052C4F20202116938
:106190007A680A431A610DE04FF48053C4F2020397
:1061A0004FF48052C4F2020211697A686FEA020267
:1061B0000A401A6107F10C07BD4680BC704700BF5A
:1061C00080B500AF4FF0E000FDF7A6FE4FF00100F4
:1061D000FDF7C2FE00BF4FF00400FDF7CDFE034601
:1061E000012BF8D080BD00BF80B483B000AF4FF06A
:1061F00000037B6017E040F62C43C2F200037A688C
:106200004FF0000103F8221040F62C42C2F20002C7
:106210007B684FEA8303D3184FF000025A807B68F3
:1062200003F101037B607B68042BE4DD07F10C07BD
:10623000BD4680BC704700BF80B586B000AF4FF050
:1062400080004FF00101FFF73DFF4FF02C033B743E
:106250004FF00103FB7407F110031846F9F792FFA2
:1062600040F20003C2F200031B684FEA531245F6E6
:10627000C523C0F67C23A3FB02134FEAD3139BB2C2
:1062800003F1FF33FB82FB8ABB804FF00003FB80EE
:106290004FF06303BB604FF00003BB8107F10403C1
:1062A0004FF4E050C4F200001946FBF721FE4FF412
:1062B000E050C4F200004FF001014FF00102FBF783
:1062C000D1FE4FF4E050C4F200004FF00101FBF7A3
:1062D0009BFE07F11807BD4680BD00BF80B586B0A4
:1062E00000AF4FF004004FF00101FFF7EBFE4FF05D
:1062F0001E033B744FF00103FB7407F110031846B3
:10630000F9F740FF40F20003C2F200031A6844F6B6
:10631000D353C1F26203A3FB02134FEA93139BB260
:1063200003F1FF33FB82FB8ABB804FF00003FB804D
:106330004FF6FF73BB604FF00003BB8107F104030E
:106340004FF40060C4F200001946FBF7D1FD4FF492
:106350000060C4F200004FF006014FF00002FBF7AE
:1063600081FE4FF40060C4F200004FF00101FBF722
:106370004BFE07F11807BD4680BD00BF80B582B057
:1063800000AF4FF480204FF00101FFF747FE4FF0C0
:1063900000033B714FF001037B714FF00003BB71B1
:1063A0004FF00103FB714FF002033B603B464FF49B
:1063B0008060C4F60000194600F02CFB07F10807C6
:1063C000BD4680BD80B582B000AF4FF400104FF0E5
:1063D0000101FFF723FE4FF001033B714FF0010372
:1063E0007B714FF00003BB714FF00203FB714FF460
:1063F00080733B603B464FF48050C4F60000194662
:1064000000F008FB4FF48050C4F600004FF4807198
:1064100000F0D6FB07F10807BD4680BD80B582B00D
:1064200000AF4FF480004FF00101FFF7F7FD4FF090
:1064300001033B714FF001037B714FF00003BB710F
:106440004FF00103FB714FF080033B603B464FF47C
:10645000A050C4F60000194600F0DCFA4FF4A0503A
:10646000C4F600004FF0800100F0AAFB07F1080716
:10647000BD4680BD80B58AB000AF4FF01000FFF779
:10648000A5FB4FF400104FF00101FFF71BFE4FF486
:1064900080204FF00101FFF7C1FD4FF48060C4F68A
:1064A00000004FF008014FF0040200F097FB4FF49A
:1064B0008060C4F600004FF009014FF0040200F0C4
:1064C0008DFB4FF480733B624FF0020387F824305A
:1064D0004FF0010387F825304FF0010387F826308D
:1064E0004FF0000387F8273007F120034FF4806056
:1064F000C4F60000194600F08DFA4FF400733B62B9
:1065000007F120034FF48060C4F60000194600F044
:1065100081FA4FF000033B614FF00003FB604FF046
:106520000003BB604FF000037B614FF00003BB61D1
:106530004FF00003FB6145F68963C1F280037B6085
:1065400007F104034FF4A840C4F200001946FAF71B
:10655000E3FD4FF4A840C4F200004FF00101FAF748
:1065600043FE07F12807BD4680BD00BF80B500AFE0
:1065700040F64043C2F200034FF000021A7040F6AA
:106580004243C2F200034FF000021A7040F641434A
:10659000C2F200034FF000021A70FFF711FEFFF77E
:1065A0009DFEFFF7EBFEFFF70DFFFFF737FFFFF74D
:1065B0001BFEFFF741FEFFF75DFF80BD80B582B097
:1065C00000AF786078684FF00001FAF70DFE786848
:1065D000FAF77AFDFFF74EFF07F10807BD4680BDC9
:1065E00080B584B000AF78607B684FF000025A60DD
:1065F0007B684FF000029A707B684FF00002DA70FF
:106600004FF48060C4F600004FF0020100F0AAFAD7
:106610000346002B08D17B684FF000021A707B689C
:106620004FF001025A700BE07B684FF003021A70C2
:106630007B684FF000025A704FF0020000F0EEF855
:106640004FF40060C4F20000FBF7D2FC0346FB816C
:10665000FB8903F164034FF40060C4F200001946A3
:10666000FBF7F2FC4FF40060C4F200004FF00201AF
:106670004FF00102FBF7F6FC07F11007BD4680BDA5
:1066800080B582B000AF78607B681B78032B50D850
:1066900001A252F823F000BFA9660008FB660008BB
:1066A00033670008336700087B685B680A2B0FD9E3
:1066B0004FF48050C4F600004FF4807100F072FA7D
:1066C0007B684FF001029A704FF0010000F0A6F8CD
:1066D0007B689B78012B29D17B685B78002B25D1C7
:1066E0007B684FF000025A607B684FF001021A701D
:1066F0004FF0020000F092F818E07B685B68322BE4
:1067000016D97B684FF00102DA707B684FF0020205
:106710001A704FF48050C4F600004FF4807100F0FE
:106720004FFA4FF0000000F079F801E000BF00E000
:1067300000BF07F10807BD4680BD00BF80B483B02D
:1067400000AF02460B46FA71BB80F87940F2445321
:10675000C2F200031A88BB88D31899B240F62C42C3
:10676000C2F200024FEA8003D3180A465A80FA792F
:1067700040F62C43C2F200034FF0010103F822104F
:1067800007F10C07BD4680BC704700BF80B483B0E2
:1067900000AF0346FB71FA7940F62C43C2F20003C6
:1067A00013F82230184607F10C07BD4680BC70472D
:1067B00080B483B000AF4FF000037B6025E040F66B
:1067C0002C43C2F200037A6813F82230012B18D14F
:1067D00040F62C42C2F200027B684FEA8303D318D2
:1067E0005A8840F24453C2F200031B889A4208D1EF
:1067F00040F62C43C2F200037A684FF0000103F820
:1068000022107B6803F101037B607B68042BD6DDDB
:1068100007F10C07BD4680BC704700BF80B582B051
:1068200000AF0346FB7140F64143C2F20003FA7920
:106830001A7040F24653C2F200034FF000021A8071
:1068400040F64143C2F200031B78002B08D14FF4FD
:10685000A050C4F600004FF0800100F0B1F907E04D
:106860004FF4A050C4F600004FF0800100F09AF9F8
:1068700007F10807BD4680BD80B500AF4FF00400AA
:10688000FFF784FF0346012B35D040F64143C2F2A7
:1068900000031B78022B02D0032B15D029E04FF404
:1068A000A053C4F600034FF4A052C4F60002928A2B
:1068B00092B282F0800292B29A824FF004004FF4BA
:1068C0007A71FFF73BFF17E04FF4A053C4F60003C3
:1068D0004FF4A052C4F60002928A92B282F0800273
:1068E00092B29A824FF004004FF06401FFF726FF46
:1068F00002E000BF00E000BF80BD00BF80B500AF78
:106900004FF4E050C4F200004FF00101FBF7E0FB50
:106910000346002B16D04FF4E050C4F200004FF0B5
:106920000101FBF7C3FB40F24453C2F200031B8892
:1069300003F101039AB240F24453C2F200031A80F9
:10694000FFF736FF80BD00BF80B582B000AF4FF4C7
:106950000060C4F200004FF00201FBF7B9FB0346F0
:10696000012B52D14FF40060C4F200004FF002013D
:10697000FBF7DEFB4FF40060C4F20000FBF738FBCE
:106980000346FB80FB8803F164034FF40060C4F20C
:1069900000001946FBF758FB4FF48060C4F6000076
:1069A0004FF0020100F0DEF80346002B13D140F651
:1069B0004443C2F200034FF001025A7040F64443D0
:1069C000C2F200035B6803F1010240F64443C2F2E5
:1069D00000035A6019E040F64443C2F200034FF04E
:1069E00000025A7040F64443C2F200035B68002B79
:1069F0000BD040F64443C2F200035B6803F1FF3260
:106A000040F64443C2F200035A6007F10807BD464E
:106A100080BD00BF80B487B000AF786039604FF0B0
:106A200000037B614FF000033B614FF00003FB600C
:106A30004FF000037B618CE07B694FF0010202FAAA
:106A400003F33B613B681A683B691340FB60FA68DB
:106A50003B699A4279D13B681B79012B03D03B6893
:106A60001B79022B3AD17B689A687B694FEA430312
:106A70004FF0030101FA03F36FEA03031A407B6846
:106A80009A607B689A683B685B7919467B694FEA34
:106A9000430301FA03F31A437B689A607B689B887F
:106AA0009AB27B699BB24FF0010101FA03F39BB2EA
:106AB0006FEA03039BB213409AB27B689A807B68AB
:106AC0009B889AB23B689B7919467B699BB201FA15
:106AD00003F39BB213439AB27B689A807B681A686F
:106AE0007B694FEA43034FF0030101FA03F36FEAB6
:106AF00003031A407B681A607B681A683B681B793D
:106B000019467B694FEA430301FA03F31A437B6892
:106B10001A607B68DA687B699BB24FEA43034FF0E7
:106B2000030101FA03F36FEA03031A407B68DA609A
:106B30007B68DA683B68DB7919467B694FEA430377
:106B400001FA03F31A437B68DA607B6903F10103FE
:106B50007B617B690F2B7FF66FAF07F11C07BD468A
:106B600080BC704780B485B000AF78600B467B80F6
:106B70004FF00003FB737B681B8A9AB27B8813403B
:106B80009BB2002B03D04FF00103FB7302E04FF0E8
:106B90000003FB73FB7B184607F11407BD4680BC5E
:106BA000704700BF80B483B000AF78600B467B8035
:106BB0007A887B689A6107F10C07BD4680BC7047F4
:106BC00080B483B000AF78600B467B807B687A88A6
:106BD0001A8507F10C07BD4680BC704780B485B0AC
:106BE00000AF786013460A467A807B704FF000034E
:106BF000FB604FF00003BB607A787B8803F00703EB
:106C00004FEA830302FA03F3FB607B884FEAD30366
:106C10009BB21A467B884FEAD3039BB219467B6826
:106C200001F1080153F821107B8803F007034FEAB4
:106C300083034FF00F0000FA03F36FEA03031940D8
:106C40007B6802F1080243F822107B884FEAD303E5
:106C50009BB21A467B6802F1080253F82220FB68B7
:106C60001343BB607B884FEAD3039BB21A467B6811
:106C700002F10802B96843F8221007F11407BD4673
:106C800080BC704780B58AB000AF4FF400304FF041
:106C90000101FFF7C3F94FF480404FF00101FFF706
:106CA000E7F94FF4C063BB604FF002033B734FF052
:106CB00003037B734FF00003BB734FF00203FB73BE
:106CC00007F108034FF090401946FFF7A3FE4FF07D
:106CD00090404FF009014FF00702FFF77FFF4FF0A0
:106CE00090404FF00A014FF00702FFF777FF4FF493
:106CF00061433B614FF000037B614FF00003BB61D8
:106D00004FF00003FB614FF000037B624FF00C0378
:106D10003B6207F110034FF46050C4F201001946C2
:106D2000FDF748F94FF025033B714FF00103FB716C
:106D300007F104031846F9F725FA4FF46050C4F23E
:106D4000010040F20711C0F207014FF00002FDF709
:106D500027FA00BF4FF46050C4F201004FF0400129
:106D6000FDF768FA0346002BF4D04FF46050C4F2EC
:106D7000010040F20511C0F205014FF00102FDF7DC
:106D80000FFA00BF4FF46050C4F2010040F2051149
:106D9000C0F20501FDF74EFA0346002BF2D14FF485
:106DA0006050C4F201004FF00101FDF7B7F907F19F
:106DB0002807BD4680BD00BF80B500AF40F200632C
:106DC000C2F200031B781A4640F20063C2F20003CD
:106DD0009B189B784FF46050C4F201001946FDF7F0
:106DE000B9F900BF4FF46050C4F201004FF0000148
:106DF000FDF720FA0346002BF4D140F20063C2F203
:106E000000031B7803F1010248F2B513C1F64E33BB
:106E100083FB02134FEA63114FEAE273CB1A4FF47C
:106E2000967101FB03F3D31ADAB240F20063C2F2A7
:106E300000031A7040F20063C2F200031A7840F2B5
:106E40000063C2F200035B789A420BD14FF46050AA
:106E5000C4F2010040F20711C0F207014FF0000236
:106E6000FDF79EF980BD00BF98B500AF40F23073CA
:106E7000C2F200035B781C464FF46050C4F201007C
:106E8000FDF77CF90346DAB240F23073C2F2000338
:106E90001B199A704FF46050C4F201004FF02001AA
:106EA000FDF7E4F940F23073C2F200035B781A4652
:106EB00040F23073C2F200039B189B780A2B39D141
:106EC00040F23073C2F2000393F82E3103F1010354
:106ED000DAB240F23073C2F2000383F82E2140F29E
:106EE0003073C2F200035B7803F1010248F2B5137C
:106EF000C1F64E3383FB02134FEA63114FEAE2738C
:106F0000CB1A4FF4967101FB03F3D31ADAB240F2B5
:106F10003073C2F200035A7040F23073C2F20003C1
:106F20005B781A4640F23073C2F200039B184FF0B0
:106F300000029A7040F23073C2F200035B7803F1F2
:106F4000010248F2B513C1F64E3383FB02134FEA38
:106F500063114FEAE273CB1A4FF4967101FB03F30E
:106F6000D31ADAB240F23073C2F200035A7098BDFD
:106F700080B483B000AF40F65043C2F200034FF03C
:106F800000021A7040F23073C2F200031A7840F225
:106F90003073C2F200035B789A4208D140F230733A
:106FA000C2F200034FF0000283F82E2161E04FF09F
:106FB00000037B603CE040F23073C2F200031B78B8
:106FC0001A4640F23073C2F200039B189A7840F6DA
:106FD0005043C2F2000379685B181A7040F23073B4
:106FE000C2F200031B7803F1010248F2B513C1F6A7
:106FF0004E3383FB02134FEA63114FEAE273CB1A5D
:107000004FF4967101FB03F3D31ADAB240F23073F6
:10701000C2F200031A7040F65043C2F200037A68CD
:107020009B181B78002B07D07B6803F101037B6062
:107030007B681D2BBFDD00E000BF7B681E2B09D1E4
:107040007B6803F1FF3240F65043C2F200034FF079
:107050000001995440F23073C2F2000393F82E31CC
:1070600003F1FF33DAB240F23073C2F2000383F867
:107070002E2107F10C07BD4680BC704780B500AFDC
:1070800040F66E43C2F200031B78002B0ED14FF482
:1070900000604FF00101FFF715F84FF07F00FBF79C
:1070A0006BF84FF03F00FBF755F805E04CF2A440B9
:1070B000C0F6000001F08AFB80BD00BF80B500AFC4
:1070C00040F66E43C2F200031B78002B0DD140F650
:1070D0004243C2F200034FF001021A704CF2AC407E
:1070E000C0F6000001F072FB05E04CF2A440C0F6CF
:1070F000000001F06BFB80BD80B500AF40F66E4331
:10710000C2F200031B78002B0DD140F64243C2F2BD
:1071100000034FF000021A704CF2AC40C0F60000C1
:1071200001F054FB05E04CF2A440C0F6000001F071
:107130004DFB80BD80B500AF40F66E43C2F2000348
:107140001B78002B12D14CF2B440C0F6000001F0C5
:107150003DFB40F6DC00C2F20000FCF7F1FC4CF213
:10716000AC40C0F6000001F031FB05E04CF2A44059
:10717000C0F6000001F02AFB80BD00BF80B582B0E0
:1071800000AF40F66E43C2F200031B78012B02D021
:10719000022B50D0B7E040F6D803C2F200031B78B0
:1071A00040F29050C2F2000019464FF00102FAF787
:1071B0005BFC40F65043C2F200034FF000021A702D
:1071C00040F65040C2F2000004F0ACFF03461A46FD
:1071D00040F65043C2F20003D2184CF2CC43C0F642
:1071E0000003186810601B79137140F65040C2F21A
:1071F000000040F29051C2F2000104F0A3FD40F6FD
:107200005040C2F2000004F08DFF03461A4640F6DB
:107210005043C2F20003D2184CF2D443C0F600032C
:1072200019889B781180937040F65040C2F200009C
:1072300001F0CCFA6EE040F64C43C2F200031B684A
:1072400018464CF2D841C0F6000104F09BFF40F60E
:107250004C43C2F200031B681846FAF7B7F903461D
:107260007B607B68002B15D140F6D803C2F2000387
:107270004FF000021A7040F68803C2F200034FF08C
:10728000000283F820204CF2DC40C0F6000001F040
:107290009DFA3FE07B68012B15D140F6D803C2F27E
:1072A00000034FF001021A7040F68803C2F2000397
:1072B0004FF0010283F820204CF2E440C0F60000B9
:1072C00001F084FA26E07B68022B15D140F6D80342
:1072D000C2F200034FF002021A7040F68803C2F2B5
:1072E00000034FF0020283F820204CF2EC40C0F67D
:1072F000000001F06BFA0DE04CF2F440C0F6000023
:1073000001F064FA06E04CF2A440C0F6000001F07F
:107310005DFA00BF07F10807BD4680BD80B5A8B083
:1073200000AF40F66E43C2F200031B78002B06D07C
:107330004CF2A440C0F6000001F048FA0FE24FF012
:107340000003C7F89C30FFE13B4640F6DC00C2F288
:1073500000001946D7F89C20FCF708FDD7F89C30B0
:1073600003F11E03C7F89C304FF0000387F8383054
:1073700007F13803184604F0D5FE034607F138023A
:10738000D2184CF2FC43C0F6000318681060BB68CA
:1073900007F12402104619464FF00602FAF7AEFB39
:1073A00007F1380207F124031046194604F0CAFC1D
:1073B00007F13803184604F0B5FE034607F138021A
:1073C000D2184CF20053C0F600031B881380BB890F
:1073D0001BB207F12402104619464FF00402FAF7D7
:1073E0008DFB07F1380207F124031046194604F01B
:1073F000A9FC07F13803184604F094FE034607F190
:107400003802D2184CF20053C0F600031B881380D8
:10741000FB891BB207F12402104619464FF0040203
:10742000FAF76CFB07F1380207F1240310461946FE
:1074300004F088FC07F13803184604F073FE034695
:1074400007F13802D2184CF20053C0F600031B8833
:1074500013803B8A1BB207F12402104619464FF0F5
:107460000402FAF74BFB07F1380207F12403104638
:10747000194604F067FC07F13803184604F052FE81
:10748000034607F13802D2184CF20053C0F600034D
:107490001B8813803B8807F12402104619464FF0E1
:1074A0000402FAF7E1FA07F1380207F12403104663
:1074B000194604F047FC07F13803184604F032FE81
:1074C000034607F13802D2184CF20453C0F6000309
:1074D0001B881380BB7807F12402104619464FF031
:1074E0000202FAF7C1FA07F1380207F12403104645
:1074F000194604F027FC07F13803184604F012FE81
:10750000034607F13802D2184CF20453C0F60003C8
:107510001B881380FB7807F12402104619464FF0B0
:107520000202FAF7A1FA07F1380207F12403104624
:10753000194604F007FC07F13803184604F0F2FD81
:10754000034607F13802D2184CF20053C0F600038C
:107550001B8813803B7907F12402104619464FF02F
:107560000202FAF781FA07F1380207F12403104604
:10757000194604F0E7FB07F13803184604F0D2FD82
:10758000034607F13802D2184CF20853C0F6000344
:107590001B8813807B7907F12402104619464FF0AF
:1075A0000202FAF761FA07F1380207F124031046E4
:1075B000194604F0C7FB07F13803184604F0B2FD82
:1075C000034607F13802D2184CF20853C0F6000304
:1075D0001B881380BB7907F12402104619464FF02F
:1075E0000202FAF741FA07F1380207F124031046C4
:1075F000194604F0A7FB07F13803184604F092FD82
:10760000034607F13802D2184CF20053C0F60003CB
:107610001B881380BB6907F12402104619464FF0FE
:107620000A02FAF76BFA07F1380207F12403104651
:10763000194604F087FB07F13803184604F072FD81
:10764000034607F13802D2184CF20053C0F600038B
:107650001B8813807B6907F12402104619464FF0FE
:107660000A02FAF74BFA07F1380207F12403104631
:10767000194604F067FB07F13803184604F052FD81
:10768000034607F13802D2184CF20053C0F600034B
:107690001B881380FB6907F12402104619464FF03E
:1076A0000802FAF72BFA07F1380207F12403104613
:1076B000194604F047FB07F13803184604F032FD81
:1076C000034607F13802D2184CF20053C0F600030B
:1076D0001B88138097F8203007F1240210461946C2
:1076E0004FF00202FAF7C0F907F1380207F124035C
:1076F0001046194604F026FB07F13803184604F03B
:1077000011FD034607F13802D2184CF2D443C0F6FB
:10771000000319889B781180937007F1380318468D
:1077200001F054F84FF001004FF01901FFF706F88F
:1077300003E04FF07F00FAF70DFD4FF00100FFF777
:1077400025F80346012BF4D040F6DC03C2F2000317
:10775000D3F88820D7F89C309A423FF6F5AD07F170
:10776000A007BD4680BD00BF80B594B000AF40F615
:107770006E43C2F200031B78002B06D04CF2A440EB
:10778000C0F6000001F022F8D9E04FF00003FB64DE
:10779000CBE007F10403BB6407F1240340F6DC00EF
:1077A000C2F200001946FA6CFCF7E0FAFB6C03F138
:1077B0001E03FB6407F12403B86C19464FF0020264
:1077C00004F01EFABB6C03F10203BB6497F8262099
:1077D000BB6C1A70BB6C03F10103BB6497F82720E4
:1077E000BB6C1A70BB6C03F10103BB6497F82820D3
:1077F000BB6C1A70BB6C03F10103BB6497F82920C2
:10780000BB6C1A70BB6C03F10103BB6497F82A20B0
:10781000BB6C1A70BB6C03F10103BB6407F124035A
:1078200003F10803B86C19464FF0040204F0E8F9BC
:10783000BB6C03F10403BB6407F1240303F10C03E5
:10784000B86C19464FF0020204F0DAF9BB6C03F190
:107850000203BB6407F1240303F10E03B86C19465D
:107860004FF0020204F0CCF9BB6C03F10203BB64DD
:1078700007F1240303F11003B86C19464FF002021C
:1078800004F0BEF9BB6C03F10203BB6407F12403EF
:1078900003F11803B86C19464FF0040204F0B0F974
:1078A000BB6C03F10403BB6407F1240303F114036D
:1078B000B86C19464FF0040204F0A2F9BB6C03F156
:1078C0000403BB6407F1240303F11C03B86C1946DD
:1078D0004FF0040204F094F9BB6C03F10403BB64A1
:1078E00097F84420BB6C1A70BB6C03F10103BB64B6
:1078F000BB6C4FF000021A7007F1040318464FF0FA
:107900001F0100F0C1FF4FF001004FF00701FEF72B
:1079100015FF03E04FF07F00FAF71CFC4FF0010069
:10792000FEF734FF0346012BF4D040F6DC03C2F22D
:107930000003D3F88820FB6C9A423FF62AAF07F188
:107940005007BD4680BD00BF80B582B000AF40F695
:107950006E43C2F200031B78012B74D140F6DC03A6
:10796000C2F20003D3ED227AB8EE677ADFED3B7AFC
:1079700087EE277ADFED3A7A67EE277AC7ED017A4C
:10798000786803F0ADFD02460B46104619464FF0ED
:1079900000024FF00003C4F2240303F0F5FD024699
:1079A0000B461046194604F0B1F803467B807B88ED
:1079B00040F29050C2F2000019464FF00402FAF76C
:1079C00053F840F65043C2F200034FF000021A7021
:1079D00040F65040C2F2000004F0A4FB03461A46F1
:1079E00040F65043C2F20003D2184CF20C53C0F6DA
:1079F0000003186810601B79137140F65040C2F202
:107A0000000040F29051C2F2000104F09BF940F6F0
:107A10005040C2F2000004F085FB03461A4640F6CF
:107A20005043C2F20003D2184CF2D443C0F6000314
:107A300019889B781180937040F65040C2F2000084
:107A400000F0C4FE05E04CF2A440C0F6000000F0D7
:107A5000BDFE07F10807BD4680BD00BF0000004A1B
:107A60000000C84280B582B000AF40F66E43C2F25B
:107A700000031B78012B59D140F6DC03C2F200034E
:107A8000D3F8882048F68903C8F68803A3FB0213BD
:107A90004FEA13137B6040F29050C2F20000796805
:107AA0004FF00502F9F7E0FF40F65043C2F2000341
:107AB0004FF000021A7040F65040C2F2000004F08D
:107AC00031FB03461A4640F65043C2F20003D21877
:107AD0004CF21453C0F60003186810601B79137140
:107AE00040F65040C2F2000040F29051C2F2000154
:107AF00004F028F940F65040C2F2000004F012FBF6
:107B000003461A4640F65043C2F20003D2184CF224
:107B1000D443C0F6000319889B781180937040F617
:107B20005040C2F2000000F051FE05E04CF2A440CB
:107B3000C0F6000000F04AFE07F10807BD4680BD10
:107B400080B500AF40F66E43C2F200031B78002BF5
:107B500012D1F9F735FC0346042B06D14CF2AC40A8
:107B6000C0F6000000F032FE0CE04CF21C50C0F6F3
:107B7000000000F02BFE05E04CF2A440C0F600002F
:107B800000F024FE80BD00BF80B582B000AF40F69B
:107B90006E43C2F200031B78012B02D0022B50D09F
:107BA000CCE040F68803C2F200031B6840F290501C
:107BB000C2F2000019464FF00802F9F755FF40F6EF
:107BC0005043C2F200034FF000021A7040F65040DA
:107BD000C2F2000004F0A6FA03461A4640F65043EB
:107BE000C2F20003D2184CF22453C0F60003186806
:107BF00010601B79137140F65040C2F2000040F251
:107C00009051C2F2000104F09DF840F65040C2F2DB
:107C1000000004F087FA03461A4640F65043C2F2C9
:107C20000003D2184CF2D443C0F6000319889B78A5
:107C30001180937040F65040C2F2000000F0C6FD83
:107C400083E040F64C43C2F200031B6818464CF236
:107C5000D841C0F6000104F095FA40F64C43C2F258
:107C600000031B68184603F0C1FF03467B607B6876
:107C7000002B06D07A684EF2FF03C0F2F5539A4209
:107C800006D94CF2F440C0F6000000F09FFD5CE025
:107C900040F68803C2F200037A681A6040F688034F
:107CA000C2F200031B6840F29050C2F20000194675
:107CB0004FF00802F9F7D8FE40F65043C2F2000335
:107CC0004FF000021A7040F65040C2F2000004F07B
:107CD00029FA03461A4640F65043C2F20003D2186E
:107CE0004CF22453C0F60003186810601B7913711E
:107CF00040F65040C2F2000040F29051C2F2000142
:107D000004F020F840F65040C2F2000004F00AFAF5
:107D100003461A4640F65043C2F20003D2184CF212
:107D2000D443C0F6000319889B781180937040F605
:107D30005040C2F2000000F049FD06E04CF2A440C1
:107D4000C0F6000000F042FD00BF07F10807BD4685
:107D500080BD00BF80B582B000AF40F66E43C2F276
:107D600000031B78012B02D0022B50D0B3E040F669
:107D70008803C2F200039B8840F29050C2F20000D8
:107D800019464FF00402F9F76FFE40F65043C2F275
:107D900000034FF000021A7040F65040C2F200009B
:107DA00004F0C0F903461A4640F65043C2F20003FD
:107DB000D2184CF22C53C0F60003186810601B79DF
:107DC000137140F65040C2F2000040F29051C2F2EE
:107DD000000103F0B7FF40F65040C2F2000004F08B
:107DE000A1F903461A4640F65043C2F20003D218E6
:107DF0004CF2D443C0F6000319889B78118093702D
:107E000040F65040C2F2000000F0E0FC6AE040F6AC
:107E10004C43C2F200031B6818464CF2D841C0F62E
:107E2000000104F0AFF940F64C43C2F200031B68B6
:107E30001846F9F7CBFB0346FB80FB88002B06D1E5
:107E40004CF2F440C0F6000000F0C0FC4AE040F6FE
:107E50008803C2F20003FA889A8040F65043C2F2C7
:107E600000034CF22C52C0F6000292E803001860A6
:107E700003F104031970FB8840F29050C2F2000035
:107E800019464FF00402F9F7EFFD40F65040C2F2F8
:107E9000000040F29051C2F2000103F053FF40F69F
:107EA0005040C2F2000004F03DF903461A4640F685
:107EB0005043C2F20003D2184CF2D443C0F6000380
:107EC00019889B781180937040F65040C2F20000F0
:107ED00000F07CFC06E04CF2A440C0F6000000F08C
:107EE00075FC00BF07F10807BD4680BD80B584B0B2
:107EF00000AF0346FB7140F66E43C2F200031B78ED
:107F0000012B6ED0022B65D140F64C43C2F2000328
:107F10001B6818464CF2D441C0F6000104F032F957
:107F200040F64C43C2F200031B681846F9F7B4FB55
:107F300087ED030AFB79002B10D140F2A053C2F267
:107F40000003FA685A6140F2A053C2F200035A6972
:107F500040F68803C2F200039A6044E0FB79012BEB
:107F600010D140F2A053C2F20003FA689A6140F2C5
:107F7000A053C2F200039A6940F68803C2F20003DC
:107F8000DA6030E0FB79022B10D140F2A053C2F24C
:107F90000003FA68DA6140F2A053C2F20003DA6922
:107FA00040F68803C2F200031A611CE0FB79032B40
:107FB00019D140F2A053C2F20003FA681A6240F2EB
:107FC000A053C2F200031A6A40F68803C2F200030B
:107FD0005A6108E04CF2A440C0F6000000F0F6FB45
:107FE0004BE100BF00E000BF40F65043C2F2000387
:107FF0004FF000021A70FB79032B00F2378101A2C7
:1080000052F823F015800008AB8000084181000879
:10801000D781000840F65040C2F2000004F082F818
:1080200003461A4640F65043C2F20003D2184CF2FF
:108030003453C0F60003186810601B79137140F2C6
:10804000A053C2F20003D3ED057A40F29050C2F281
:108050000000B0EE670A4FF00601F9F7ADFD40F6FB
:108060005040C2F2000040F29051C2F2000103F011
:1080700069FE40F65040C2F2000004F053F8034697
:108080001A4640F65043C2F20003D2184CF2D443D1
:10809000C0F6000319889B781180937040F6504019
:1080A000C2F2000000F092FBE7E040F65040C2F25E
:1080B000000004F037F803461A4640F65043C2F277
:1080C0000003D2184CF23C53C0F60003186810604D
:1080D0001B79137140F2A053C2F20003D3ED067A6C
:1080E00040F29050C2F20000B0EE670A4FF0060175
:1080F000F9F762FD40F65040C2F2000040F29051A4
:10810000C2F2000103F01EFE40F65040C2F2000031
:1081100004F008F803461A4640F65043C2F2000342
:10812000D2184CF2D443C0F6000319889B78118012
:10813000937040F65040C2F2000000F047FB9CE014
:1081400040F65040C2F2000003F0ECFF03461A462E
:1081500040F65043C2F20003D2184CF24453C0F62A
:108160000003186810601B79137140F2A053C2F22B
:108170000003D3ED077A40F29050C2F20000B0EE57
:10818000670A4FF00601F9F717FD40F65040C2F2BA
:10819000000040F29051C2F2000103F0D3FD40F61E
:1081A0005040C2F2000003F0BDFF03461A4640F6FD
:1081B0005043C2F20003D2184CF2D443C0F600037D
:1081C00019889B781180937040F65040C2F20000ED
:1081D00000F0FCFA51E040F65040C2F2000003F01B
:1081E000A1FF03461A4640F65043C2F20003D218DC
:1081F0004CF24C53C0F60003186810601B791371E1
:1082000040F2A053C2F20003D3ED087A40F290503E
:10821000C2F20000B0EE670A4FF00601F9F7CCFC9D
:1082200040F65040C2F2000040F29051C2F200010C
:1082300003F088FD40F65040C2F2000003F072FFE8
:1082400003461A4640F65043C2F20003D2184CF2DD
:10825000D443C0F6000319889B781180937040F6D0
:108260005040C2F2000000F0B1FA06E04CF2A44027
:10827000C0F6000000F0AAFA00BF07F11007BD46E3
:1082800080BD00BF80B582B000AF40F66E43C2F241
:1082900000031B78012B02D0022B51D0FAE040F2F0
:1082A0004853C2F200039B8A1BB240F29050C2F2C4
:1082B000000019464FF00302F9F720FC40F6504346
:1082C000C2F200034FF000021A7040F65040C2F2B2
:1082D000000003F027FF03461A4640F65043C2F25F
:1082E0000003D2184CF25453C0F600031868106013
:1082F0001B79137140F65040C2F2000040F29051D9
:10830000C2F2000103F01EFD40F65040C2F2000030
:1083100003F008FF03461A4640F65043C2F200033A
:10832000D2184CF2D443C0F6000319889B78118010
:10833000937040F65040C2F2000000F047FAB0E0FF
:1083400040F64C43C2F200031B6818464CF2D84179
:10835000C0F6000103F016FF40F64C43C2F20003E2
:108360001B6818464CF25C51C0F6000103F08EFD0C
:108370000346002B0ED040F64C43C2F200031B68AC
:1083800018464CF26051C0F6000103F07FFD034631
:10839000002B03D14FF00003FB8022E040F64C435A
:1083A000C2F200031B681846F9F710F90346FB8078
:1083B000B7F90630002B0DD0B7F9062040F2E733AD
:1083C0009A4207DCB7F906204FF61943CFF6FF7340
:1083D0009A4206DA4CF2F440C0F6000000F0F6F9DA
:1083E0005FE040F68803C2F20003FA88DA8340F2C5
:1083F0004853C2F20003FA889A8240F65043C2F210
:1084000000034FF000021A7040F65040C2F2000024
:1084100003F088FE03461A4640F65043C2F20003BA
:10842000D2184CF25453C0F60003186810601B7940
:108430001371B7F9063040F29050C2F200001946AD
:108440004FF00302F9F75AFB40F65040C2F2000029
:1084500040F29051C2F2000103F074FC40F650402B
:10846000C2F2000003F05EFE03461A4640F6504397
:10847000C2F20003D2184CF2D443C0F600031988AC
:108480009B781180937040F65040C2F2000000F0DB
:108490009DF906E04CF2A440C0F6000000F096F909
:1084A00000BF07F10807BD4680BD00BF80B582B0A0
:1084B00000AF40F66E43C2F200031B78012B02D0DE
:1084C000022B51D0FAE040F2A053C2F200039B8C81
:1084D0001BB240F29050C2F2000019464FF0030266
:1084E000F9F70CFB40F65043C2F200034FF00002D4
:1084F0001A7040F65040C2F2000003F013FE03462B
:108500001A4640F65043C2F20003D2184CF26453AC
:10851000C0F60003186810601B79137140F65040D4
:10852000C2F2000040F29051C2F2000103F00AFCD6
:1085300040F65040C2F2000003F0F4FD03461A4634
:1085400040F65043C2F20003D2184CF2D443C0F6B6
:10855000000319889B781180937040F65040C2F256
:10856000000000F033F9B0E040F64C43C2F20003E3
:108570001B6818464CF2D841C0F6000103F002FE19
:1085800040F64C43C2F200031B6818464CF25C51A3
:10859000C0F6000103F07AFC0346002B0ED040F633
:1085A0004C43C2F200031B6818464CF26051C0F6FF
:1085B000000103F06BFC0346002B03D14FF00003D6
:1085C000FB8022E040F64C43C2F200031B681846D1
:1085D000F8F7FCFF0346FB80B7F90630002B0DD0FF
:1085E000B7F9062040F2E7339A4207DCB7F90620D4
:1085F0004FF61943CFF6FF739A4206DA4CF2F44075
:10860000C0F6000000F0E2F85FE040F68803C2F236
:108610000003FA881A8340F2A053C2F20003FA88DA
:108620009A8440F65043C2F200034FF000021A70E1
:1086300040F65040C2F2000003F074FD03461A46B3
:1086400040F65043C2F20003D2184CF26453C0F615
:108650000003186810601B791371B7F9063040F2F7
:108660009050C2F2000019464FF00302F9F746FAA3
:1086700040F65040C2F2000040F29051C2F20001B8
:1086800003F060FB40F65040C2F2000003F04AFDE8
:1086900003461A4640F65043C2F20003D2184CF289
:1086A000D443C0F6000319889B781180937040F67C
:1086B0005040C2F2000000F089F806E04CF2A440FD
:1086C000C0F6000000F082F800BF07F10807BD46C1
:1086D00080BD00BF80B582B000AF40F64C43C2F20F
:1086E00000034FF000021A6040F66E43C2F200032E
:1086F0004FF000021A7040F20063C2F200034FF024
:1087000000021A7040F20063C2F200034FF0000250
:108710005A704FF000037B600CE040F20063C2F23D
:1087200000037A689B184FF000029A707B6803F18F
:1087300001037B607A6840F22B139A42EDDD40F230
:108740003073C2F200034FF000021A7040F230732F
:10875000C2F200034FF000025A7040F23073C2F2CE
:1087600000034FF0000283F82E214FF000037B60DE
:108770000CE040F23073C2F200037A689B184FF0AD
:1087800000029A707B6803F101037B607A6840F213
:108790002B139A42EDDD4FF000037B600CE040F6B6
:1087A0005043C2F200037A689B184FF000021A701F
:1087B0007B6803F101037B607B681D2BEFDDFEF717
:1087C00061FA07F10807BD4680BD00BF90B585B0CE
:1087D00000AF78604FF00003FB6030E040F20063D0
:1087E000C2F200035B781946FB687A68D3181A78DE
:1087F00040F20063C2F200035B189A7040F200631B
:10880000C2F200035B7803F1010248F2B513C1F62E
:108810004E3383FB02134FEA63114FEAE273CB1A24
:108820004FF4967101FB03F3D31ADAB240F20063FE
:10883000C2F200035A70FB6803F10103FB60FC689D
:10884000786803F06FFC03469C42C7D34FF4605036
:10885000C4F2010040F20711C0F20701FBF714FD5A
:108860000346002B0BD14FF46050C4F2010040F2DC
:108870000711C0F207014FF00102FBF791FC07F16D
:108880001407BD4690BD00BF80B584B000AF7860CE
:108890000B467B804FF00003FB6032E040F2006348
:1088A000C2F200035B7819467B681A7840F20063D5
:1088B000C2F200035B189A707B6803F101037B60CE
:1088C00040F20063C2F200035B7803F1010248F258
:1088D000B513C1F64E3383FB02134FEA63114FEA1F
:1088E000E273CB1A4FF4967101FB03F3D31ADAB299
:1088F00040F20063C2F200035A70FB6803F1010307
:10890000FB607A88FB689A4204DDFA6840F22B1318
:108910009A42C3DD4FF46050C4F2010040F20711E7
:10892000C0F20701FBF7B0FC0346002B0BD14FF45C
:108930006050C4F2010040F20711C0F207014FF08D
:108940000102FBF72DFC07F11007BD4680BD00BFFB
:1089500080B500AF40F23073C2F2000393F82E31BD
:10896000002B00F08881FEF703FB40F65040C2F276
:10897000000003F0E9FC40F65040C2F200004FF066
:108980003F0103F005FA0346002B07D040F66E4383
:10899000C2F200034FF001021A7033E040F650407B
:1089A000C2F200004FF03D0103F0F2F90346002B44
:1089B00021D040F66E43C2F200034FF002021A705B
:1089C00040F65040C2F200004FF03D0103F0E0F9E4
:1089D000024640F64C43C2F200031A6040F64C4394
:1089E000C2F200031B6803F1010240F64C43C2F2DD
:1089F00000031A6006E040F66E43C2F200034FF037
:108A000000021A7040F65040C2F200004CF26C5165
:108A1000C0F6000103F0B6FB40F65040C2F2000081
:108A20004CF27051C0F6000103F030FA0346002BFF
:108A300002D1FEF723FB1FE140F65040C2F20000D6
:108A40004CF27851C0F6000103F020FA0346002BE7
:108A500002D1FEF733FB0FE140F65040C2F20000B6
:108A60004CF28051C0F6000103F010FA0346002BCF
:108A700002D1FEF741FBFFE040F65040C2F2000099
:108A80004CF28851C0F6000103F000FA0346002BB7
:108A900002D1FEF74FFBEFE040F65040C2F200007B
:108AA0004CF29051C0F6000103F0F0F90346002BA0
:108AB00002D1FEF763FBDFE040F65040C2F2000057
:108AC0004CF29851C0F6000103F0E0F90346002B88
:108AD00002D1FEF723FCCFE040F65040C2F2000086
:108AE0004CF2A051C0F6000103F0D0F90346002B70
:108AF00002D1FEF739FEBFE040F65040C2F200005E
:108B00004CF2A851C0F6000103F0C0F90346002B57
:108B100002D1FEF719FFAFE040F65040C2F200006C
:108B20004CF2B051C0F6000103F0B0F90346002B3F
:108B300002D1FEF797FF9FE040F65040C2F20000DE
:108B40004CF2B851C0F6000103F0A0F90346002B27
:108B500002D1FEF7F5FF8FE040F65040C2F2000070
:108B60004CF2C051C0F6000103F090F90346002B0F
:108B700002D1FFF709F87FE040F65040C2F2000052
:108B80004CF2C851C0F6000103F080F90346002BF7
:108B900002D1FFF7DFF86FE040F65040C2F200006C
:108BA0004CF2D051C0F6000103F070F90346002BDF
:108BB00004D14FF00000FFF799F95DE040F6504016
:108BC000C2F200004CF2D851C0F6000103F05EF989
:108BD0000346002B04D14FF00100FFF787F94BE06B
:108BE00040F65040C2F200004CF2E051C0F60001E5
:108BF00003F04CF90346002B04D14FF00200FFF7BD
:108C000075F939E040F65040C2F200004CF2E851EC
:108C1000C0F6000103F03AF90346002B04D14FF0EF
:108C20000300FFF763F927E040F65040C2F200006E
:108C30004CF2F051C0F6000103F028F90346002B76
:108C400002D1FFF71FFB17E040F65040C2F20000D0
:108C50004CF2F851C0F6000103F018F90346002B5E
:108C600002D1FFF723FC07E04CF20060C0F60000E1
:108C7000FFF7ACFD00E000BF80BD00BF80B500AFD6
:108C80004FF46050C4F2010040F20511C0F205013A
:108C9000FBF7FAFA0346002B01D0FEF7E5F84FF494
:108CA0006050C4F2010040F20711C0F20701FBF767
:108CB000EBFA0346002B01D0FEF77EF880BD00BF23
:108CC00080B400AF4FF40053C4F202031B6903F0F9
:108CD0008003002B11D04FF40053C4F2020340F282
:108CE0002312C4F267525A604FF40053C4F20203D5
:108CF00048F6AB12CCF6EF525A60BD4680BC7047C6
:108D000080B400AF4FF40053C4F202034FF400529A
:108D1000C4F20202126942F080021A61BD4680BCB0
:108D2000704700BF80B584B000AF78604FF0040397
:108D3000FB734FF4302000F0BDF80346FB73FB7B60
:108D4000042B2FD14FF40053C4F202034FF400520E
:108D5000C4F20202126942F002021A614FF4005397
:108D6000C4F202037A685A614FF40053C4F202035A
:108D70004FF40052C4F20202126942F040021A613A
:108D80004FF4302000F096F80346FB734FF4005385
:108D9000C4F202034FF40052C4F20202126922F03C
:108DA00002021A61FB7B184607F11007BD4680BD21
:108DB00080B584B000AF78600B467B804FF0040331
:108DC000FB734FF4302000F075F80346FB73FB7B18
:108DD000042B20D14FF40053C4F202034FF400528D
:108DE000C4F20202126942F001021A617B687A88B9
:108DF0001A804FF4302000F05DF80346FB734FF407
:108E00000053C4F202034FF40052C4F2020212698A
:108E100022F001021A61FB7B184607F11007BD46DC
:108E200080BD00BF80B483B000AF78604FF40053C2
:108E3000C4F202037A68DA6007F10C07BD4680BC11
:108E4000704700BF80B483B000AF4FF00403FB71E4
:108E50004FF40053C4F20203DB6803F00103002B5C
:108E600003D04FF00103FB711CE04FF40053C4F238
:108E70000203DB6803F01003002B03D04FF0020362
:108E8000FB710FE04FF40053C4F20203DB6803F000
:108E90000403002B03D04FF00303FB7102E04FF0FB
:108EA0000403FB71FB79184607F10C07BD4680BC33
:108EB000704700BF80B584B000AF78604FF0040306
:108EC000FB73FFF7BFFF0346FB7307E0FFF7BAFF33
:108ED0000346FB737B6803F1FF337B60FB7B012B55
:108EE00002D17B68002BF1D17B68002B02D14FF0BF
:108EF0000503FB73FB7B184607F11007BD4680BDD9
:108F000053EC102BC3F30A5110B51C46A1F2FF33EA
:108F1000132B16DC002B3ADB4FF6FF70C0F20F006C
:108F200040FA03F020422FD04FF4002242FA03F31C
:108F30001C1924EA000400222146104641EC100BC3
:108F400010BD332B0CDDB3F5806FF9D151EC100B54
:108F500010EE102A0B4602F065F941EC100B10BD23
:108F6000A1F213434FF0FF3020FA03F31342E7D08E
:108F7000C1F586610120023100FA01F18A1828BF8B
:108F8000241822EA0302D7E7002ACDD1D8E701331B
:108F900004F0004401D00022CEE744F07F5444F4B2
:108FA00040140022C8E700BF70B52DED068BB0EE6F
:108FB00040AAF0EE60AAB0EE419AF0EE619AAB4E94
:108FC0008AB000F0E1FB96F90030B0EE408AF0EE96
:108FD000608A013306D0B0EE490AF0EE690A01F06A
:108FE000EBFE38B9B0EE480AF0EE680A0AB0BDEC04
:108FF000068B70BDB0EE4A0AF0EE6A0A01F0DCFEA4
:10900000044668BB51EC190B0022002302F024FD3A
:109010000028E7D0012100910021954A96F90030FF
:1090200001920020C3F6F07141EC170B5A1C089412
:109030008DED02AB8DED049B8DED067B0DD0022BEB
:109040000BD0684601F0F0FE002800F0A3800898DD
:1090500018B102F0CFFD089A02609DED068BC1E7C2
:1090600051EC1A0B0022002302F0F6FC20B351EC65
:10907000190B0022002302F0EFFC00285CD0012134
:1090800000200091089000210020794A96F90030D4
:10909000019241EC160B8DED02AB8DED049B8DED35
:1090A000066B002BCDD000210020C3F6F07141ECFF
:1090B000180B8DED068BD0E7B0EE480AF0EE680A8B
:1090C00001F072FE0446002869D051EC180B002212
:1090D000002302F0C1FC002884D0B0EE4A0AF0EE72
:1090E0006A0A01F061FE00283FF47CAFB0EE490A45
:1090F000F0EE690A01F058FE00283FF473AF042037
:10910000002196F900300090089100200021584A73
:1091100041EC170B022B01928DED02AB8DED049B00
:109120008DED067B70D0684601F07EFE00286BD086
:109130000898002891D08CE7B0EE490AF0EE690A51
:1091400001F032FE00283FF44DAF51EC190B002224
:10915000002302F08BFC00283FF444AF44483378EE
:10916000019000210122089100928DED02AB8DED5E
:10917000049B00200021002B43D0CFF6F07141EC7E
:10918000140B022B8DED064B35D102F033FD21235C
:109190000360CDE702F02EFD2123036057E7B0EE18
:1091A0004A0AF0EE6A0A01F0FFFD00288DD0B0EE09
:1091B000490AF0EE690A01F0F7FD002885D0B0EE0B
:1091C000480AF0EE680A01F0F7FD10BB284A34782F
:1091D00008900121009101928DED02AB8DED049B71
:1091E000002000216CB102460B4602F0F7FA022C77
:1091F000CDE90601C9D0684601F016FE002897D1D6
:10920000C3E7CDE90601F6E702F0F4FC2223036090
:109210008EE7174A96F900500192032000900894B7
:109220008DED02AB8DED049B51EC1A0B00220DBBB2
:109230004FF6FF754FF06044C4F2EF7545EC124BEA
:1092400000238DED062B02F011FC00283ED196F98B
:109250000010022905D0684601F0E6FD00287FF4E1
:10926000F6AE02F0C7FC22230360F0E638000020CF
:1092700008C6000800250024C7F6F07545EC104B21
:1092800000238DED060B02F0F1FB0028DFD0002358
:109290000022C3F6E07351EC190B02F075F9044695
:1092A0000D4645EC104B01F0CBFD224651EC100B66
:1092B0002B4602F0D1FB0028C9D100210020CFF6B7
:1092C000F07141EC110B8DED061BC0E7002300226D
:1092D000C3F6E07351EC190B02F056F904460D4643
:1092E00045EC104B01F0ACFD224651EC100B2B4627
:1092F00002F0B2FB0028AAD14FF6FF714FF0604098
:10930000CCF2EF7141EC130B8DED063B9FE700BFF4
:1093100010B52DED028B384C8AB0B0EE408A01F0CA
:10932000E7F894F900300133F0EE408A09D0B0EE4E
:10933000480A01F0B7FE20B1B5EEC08AF1EE10FA8E
:1093400005DDB0EE680A0AB0BDEC028B10BD2B49FA
:10935000002218EE100A0191089202F0C1F8237859
:10936000CDE90401CDE902016BBB4FF6FF714FF06F
:109370006040CCF2EF7141EC100B8DED060BB5EEB9
:10938000408AF1EE10FA10D102229342009228D0C6
:10939000684601F049FD20B3089838BBDDE90601B5
:1093A00002F0D4FB08EE900ACBE70120022B0090DC
:1093B00012D0684601F038FD70B1114801F038FD57
:1093C0008DED060BE8E700210020CFF6F07141ECAF
:1093D000170B8DED067BD2E702F00CFC212101601A
:1093E000EBE702F007FC22230360D5E702F002FC62
:1093F00008990160D2E700BF380000200CC60008C1
:1094000010C6000870B52DED048B9B4E8AB0B0EEEF
:10941000409AF0EE608A01F06BF996F90030013362
:10942000B0EE408A04D0B0EE680A01F03BFE28B9E5
:10943000B0EE480A0AB0BDEC048B70BDB0EE490A2C
:1094400001F030FE002836D1F5EE408AF1EE10FA38
:10945000EED18A490890012319EE100A0093019178
:1094600002F03EF8CDE9020118EE900A02F038F859
:10947000CDE904010021002096F90030C3F6F07117
:1094800041EC100B5A1C8DED060B0DD0022B0BD0AE
:10949000684601F0C9FC002800F0AC80089818B1BB
:1094A00002F0A8FB08990160DDE9060102F04EFB1D
:1094B00008EE100ABCE7B5EE409AF1EE10FA29D199
:1094C000F5EE408AF1EE10FA63D16C4B01220021D7
:1094D00019EE100A00920193089102F001F8CDE90B
:1094E000020118EE900A01F0FBFFCDE90401002013
:1094F000002141EC160B96F900208DED066B002A39
:10950000C6D000210020C3F6F07141EC170B8DEDA1
:10951000067BC9E7B0EE480A01F0BAFD0446002810
:109520006DD0B5EE408AF1EE10FA81D1B0EE490A65
:1095300001F0AEFD00283FF47BAFB0EE680A01F009
:10954000A7FD00283FF474AF4C4A0023042119EE14
:10955000100A01920893009101F0C2FFCDE90201C7
:1095600018EE900A01F0BCFF96F90020CDE9040145
:109570000020002141EC170B022A8DED067B76D0EE
:10958000684601F051FC002871D0089800288BD063
:1095900086E7B0EE680A01F07BFD00283FF448AF93
:1095A000F5EEC08AF1EE10FA7FF542AF33490123A0
:1095B000002219EE100A00930892019101F090FF29
:1095C000CDE9020118EE900A01F08AFF3378CDE967
:1095D000040100200021002B46D0CFF6F07141ECB1
:1095E000140B022B8DED064B38D102F003FB212129
:1095F0000160CAE702F0FEFA212202604EE7B0EEF7
:10960000490A01F045FD00288BD0B0EE680A01F050
:109610003FFD002885D0B0EE480A01F043FD002848
:109620002ED1164A0890012419EE100A00940192D6
:1096300001F056FFCDE9020118EE900A01F050FF4B
:109640003478CDE90401002000216CB102460B46BC
:1096500002F0C4F8022CCDE90601C6D0684601F03C
:10966000E3FB002891D1C0E7CDE90601F6E702F05F
:10967000C1FA2221016088E73800002014C60008E2
:109680003F4A0894032319EE100A0093019201F057
:1096900027FFCDE9020118EE900A01F021FF96F9AB
:1096A0000030CDE90401EBB94FF6FF714FF0604097
:1096B000C4F2EF7141EC120BB5EEC09AF1EE10FA64
:1096C0008DED062B3AD496F90000022805D06846A5
:1096D00001F0AAFB00287FF4E1AE02F08BFA222110
:1096E0000160DBE600210020C7F6F07141EC100BB1
:1096F000B5EEC09AF1EE10FA8DED060BE3D5F6EE5D
:10970000007A68EEA70A10EE900A01F0E9FE04461E
:109710000D4645EC104B01F093FB2046294653ECD7
:10972000102B02F099F90028CDD100210020CFF6AE
:10973000F07141EC110B8DED061BC4E7F6EE001A3B
:1097400068EEA12A12EE900A01F0CAFE04460D4608
:1097500045EC104B01F074FB2046294653EC102BCE
:1097600002F07AF90028AED14FF6FF714FF0604059
:10977000CCF2EF7141EC130B8DED063BA3E700BF7C
:1097800014C60008000000002DE9F04F11EE90AA69
:1097900011EE10BA10EE905A2AF0004C5CEA0B0160
:1097A00091B010EE104A11EE100A10EE102A11EED0
:1097B000909A2F4646D0002325F00048C7F6F07354
:1097C000984511DD08F1404808F5801B5BEA020B63
:1097D0003ED14FF0000AC3F6F07A5A46534643ECA6
:1097E000102B11B0BDE8F08F38D00021C7F6F07112
:1097F0008C45E7DC00F0BF80002FC0F2928000268D
:1098000000282FD10021C7F6F0718C4500F0B780F9
:109810000020C3F6F070844500F0A680B9F1804FB7
:1098200000F0FA830023C3F6E07399451AD1002FA4
:1098300018DB22462B4643EC102B11B0BDE8F04F4D
:1098400000F04ABD4FF0000A8B46C3F6F07AC4E739
:109850005B4811B0BDE8F04F01F0EABA002CB1D17D
:10986000C3E700262046294641EC100B0192CDF8B3
:1098700000C001F08FFA019ADDF800C010EE100A66
:1098800010EE901A4ABB0023C7F6F073984507D034
:10989000B8F1000F04D00022C3F6F07290451CD13D
:1098A000B9F1000FC0F2238483468A46002F94DA70
:1098B00008F1404303F5801256EA020340F0B484F5
:1098C00058465A465146534601F0AAFC02460B46FA
:1098D00001F084FF83468A467FE7FF0F013F56EA87
:1098E000070364D00023C4F2E0139C456ADD002224
:1098F000C4F2F032944540F30B844FF6FF70C3F688
:10990000EF70804540F3EE83B9F1000F49DD2AA1E5
:10991000D1E9000102460B4601F036FE83468A4635
:109920005BE74FF6FF76C4F23F36B4453DDC4FF6B9
:10993000FF73C3F6EF739C457FF761AF4FEA2C5678
:1099400040F213418E4240F37384C6F58666F31CE1
:1099500020FA03F101FA03F686427FF450AF01F0DA
:109960000103C3F102064BE7B9F1000FC0F24084D6
:10997000A346AA4631E700283FF43EAF22E708F1AC
:10998000404101F58013134300F03F834FF6FF7011
:10999000C3F6EF70804540F39D83B9F1000FBFF629
:1099A0001CAF4FF0000BDA4617E7022628E72046E7
:1099B000294622462B4687E79C7500883CE4377E83
:1099C00010C60008B8F5801F80F2A0830023002293
:1099D000C4F2403301F0D8FD6FF03404884628F01B
:1099E0007F434FEA285549F68E0223F47001A5F211
:1099F000FF3EC0F2030241F07F530EEB0408914298
:109A0000CDF83C8043F4401540F37D834BF27964FC
:109A1000C0F20B04A14240F31A84414600244A1CC0
:109A20000F92A5F58015A1460246AB484FEAC90C36
:109A300000EB0C01D1E900892B46CDE90423DDE9D7
:109A4000040142464B46CDF800C001F0E9FB424616
:109A50004B46CDE90A01DDE9040101F0E3FB0B46C9
:109A600000210246C3F6F071002001F0B7FECDE9F7
:109A70000C01DDE90C23DDE90A0101F085FDCDE9EA
:109A800006019DED067B00208DED087B08909DED85
:109A9000080B6B1043F0005505F500210B1900224F
:109AA00051EC100B8DED020B14461D4601F06CFDC0
:109AB00002460B46DDE90A0101F0B2FB4246CDE960
:109AC0000A014B462046294601F0AAFB02460B46F6
:109AD000DDE9040101F0A4FB02460B46DDE90201C9
:109AE00001F052FD02460B46DDE90A0101F098FB48
:109AF000DDE90C2301F048FDCDE90401DDE90601B3
:109B000002460B4601F040FD02460B4604460D4658
:109B100001F03AFD5EA3D3E9002380468946204642
:109B2000294601F031FD5CA3D3E9002301F07AFB63
:109B300022462B4601F028FD59A3D3E9002301F06A
:109B400071FB22462B4601F01FFD57A3D3E90023EA
:109B500001F068FB22462B4601F016FD54A3D3E921
:109B6000002301F05FFB22462B4601F00DFD52A3BE
:109B7000D3E9002301F056FB02460B464046494616
:109B800001F002FDDDE9062304460D46DDE9020190
:109B900001F048FBDDE9042301F0F6FC22462B46E8
:109BA00001F040FB80468946DDE9020102460B4692
:109BB00001F0EAFC00220023C4F20803CDE90A0107
:109BC00001F030FB42464B4601F02CFB089A0D4653
:109BD0002B46DDE90201144601F0D6FC22462B4655
:109BE000CDE90201DDE9040101F0CEFC0023CDE95D
:109BF0000401002220462946C4F2080301F010FBAC
:109C0000DDE90A2301F00CFB02460B4640464946BB
:109C100001F006FBDDE9062301F0B6FC02460B4627
:109C2000DDE9040101F0FEFA8046894642464B46D2
:109C3000DDE9020101F0F6FA089B1C46204620A34C
:109C4000D3E900230D4601F09FFC1FA3D3E90023B5
:109C5000CDE904012046294601F096FCDDE9022306
:109C6000CDE906012046294601F0DAFA02460B4604
:109C70004046494601F0D4FA15A3D3E9002301F088
:109C800083FC02460B46DDE9060101F0CBFA25E034
:109C9000EF4E454A287ECA3F65DBC9934A86CD3FD1
:109CA00001411DA96074D13F4D268F515555D53FB7
:109CB000FFAB6FDBB66DDB3F033333333333E33F4F
:109CC000000000E009C7EE3FF5015B14E02F3EBE47
:109CD000FD033ADC09C7EE3F40C60008DDF800C0CE
:109CE000AF4B03EB0C02D2E9002301F09BFA804654
:109CF0000F98894601F0E2FBDDF800C00D46A94946
:109D0000044601EB0C0090ED001B42468DED061B56
:109D10004B46DDE9040101F085FADDE9062301F097
:109D200081FA22462B4601F07DFA089B224618460E
:109D30002B46CDE9020101F073FADDE9062301F0BB
:109D40006FFADDE9042301F06BFA02460B46404648
:109D5000494601F065FA80468946013E3E4340F09F
:109D6000B4819FED7B3B8DED083B0024224653469A
:109D70005846514601F054FADDE9022301F004FC93
:109D8000554606460F4642464B465846294601F080
:109D9000FBFB02460B463046394601F043FADDE94B
:109DA000022382468B462046294601F0EDFB0446FD
:109DB0000D465046594622462B4601F033FA4FF6DF
:109DC000FF78C4F28F08414506460F46894640F3A6
:109DD000268101F13F4000F5E00151EA060340F021
:109DE00013825DA3D3E900235046594601F01AFAC5
:109DF0002246CDE902012B463046394601F010FAE1
:109E000002460B46DDE9020101F04EFE002840F05B
:109E1000FB8127F000480026C3F6E076B04500F34A
:109E20001C814FF0000CCDF808C000264CA3D3E9EC
:109E3000002330463946CDF800C001F0A5FB22468C
:109E4000804689462B463046394601F0E9F90246FC
:109E50000B465046594601F0E3F943A3D3E90023EA
:109E600001F092FB42A3D3E9002304460D4630469D
:109E7000394601F089FB02460B462046294601F08F
:109E8000D1F906460F4632463B464046494601F068
:109E9000C9F942464B4604460D4601F0C1F9024657
:109EA0000B463046394601F0BBF9224682468B46C6
:109EB0002B462046294601F067FB2FA3D3E9002358
:109EC00006460F4601F060FB2DA3D3E9002301F005
:109ED000A7F932463B4601F057FB2BA3D3E90023F9
:109EE00001F0A0F932463B4601F04EFB28A3D3E92E
:109EF000002301F095F932463B4601F045FB26A3CD
:109F0000D3E9002301F08EF932463B4601F03CFBD9
:109F100002460B462046294601F082F906460F46C6
:109F200032463B462046294601F02EFB0022804661
:109F30008946304639464FF0804301F071F90246B8
:109F40000B464046494601F049FC2DE0AFF3008046
:109F5000000000000000F0BFFE822B654715973C13
:109F600000000000432EE63FEF39FAFE422EE63FA6
:109F7000396CA80C615C20BED0A4BE726937663E05
:109F8000F16BD2C541BDBB3E2CDE25AF6A56113FF9
:109F900093BDBE166CC1663F3E5555555555C53FE0
:109FA00030C6000820C60008524606460F465B46EB
:109FB0002046294601F0E8FA52465B4601F032F9A4
:109FC00002460B463046394601F02AF922462B4616
:109FD00001F026F90B4600210246C3F6F07100207D
:109FE00001F01EF9DDF800C00CEB0102B2F5801F94
:109FF000C0F2468111460B460246DDE9080101F038
:10A00000C3FA83468A46FFF7E8BB4FF0000A83464F
:10A01000C3F6F07AFFF7E1BB204629467AE44CF616
:10A02000FF3321F00048C4F2900398457FF7F3AE68
:10A030004FF45053C3F66F73CB18034340F00D81B8
:10A0400022462B4601F0ECF802460B465046594694
:10A0500001F016FD002840F000814FEA2857A7F2D2
:10A06000FE324FF4801343FA02F303EB0901C1F30C
:10A070000A504FF6FF76A0F2FF37C0F20F0621F02C
:10A080007F4846FA07F3C0F5826028F4700621EA9B
:10A09000030346F48017C11C002247FA01F6B9F108
:10A0A000000F0296C0F2E9802046294601F0B8F878
:10A0B00004460D462246504659462B4601F0B2F85A
:10A0C000029A0F464FEA025CAFE69FED752B8DEDCD
:10A0D000082B4AE6B9F1000FBFF663AC0AF1004A5B
:10A0E000FFF77BBBB9F1000FBFF65BAC0FE40B468B
:10A0F00000210246C3F6F071002001F06FFB834699
:10A100008A46FFF7D3BB0024A1468DE4002466E411
:10A110004FF6FE73C3F6EF739845E3DD0022C3F6F6
:10A12000F07290453FF7F0AB00230022C3F6F073C6
:10A1300001F076F85CA3D3E9002304460D4601F054
:10A1400023FA5BA3D3E900238046894620462946AB
:10A1500001F01AFA2246CDE902012B462046294693
:10A1600001F012FA0023CDE9080100222046294619
:10A17000C3F6D07301F008FA02460B464EA1D1E9AE
:10A18000000101F04DF822462B4601F0FDF90B4687
:10A1900000210246C3F6E071002001F041F80246BA
:10A1A0000B46DDE9080101F0EFF945A3D3E90023EF
:10A1B00001F0EAF902460B46DDE9020101F030F850
:10A1C00004460D464046494622462B4601F02AF8F1
:10A1D00042464B460020CDE9020101F021F802463B
:10A1E0000B462046294601F01BF880468946B4E517
:10A1F000002122462B460020C3F6F07101F0EEFA52
:10A2000083468A46FFF7E9BA2FA3D3E90023DDE9A5
:10A21000080101F0B9F92CA3D3E9002301F0B4F946
:10A2200083468A46FFF7D9BA012E7FF4D6AA55E7AE
:10A2300000287FF416ABC6F58263DE1C4CFA06F3E9
:10A2400003FA06F1614523D00646FFF7E1BA4FF461
:10A2500080244FF00109FFF7E7BB1DA3D3E90023DA
:10A26000DDE9080101F090F919A3D3E9002301F019
:10A270008BF983468A46FFF7B0BA7042029013E723
:10A2800041EC100B029800F06BFE53EC102BB4E67F
:10A2900003F00100C0F10206FFF7BABAAFF3008085
:10A2A000000000000000F03F000000604715F73F8D
:10A2B00044DF5DF80BAE543E555555555555D53FC9
:10A2C000FE822B654715F73F9C7500883CE4377E7E
:10A2D00059F3F8C21F6EA5012DE9F84353EC102B7A
:10A2E00000242646C7F6F074C7F6F0761C40B44248
:10A2F0002DED028BB0EE408AF0EE608A1D461846C6
:10A3000010EE101A00F0D380002B40F3B0801F1520
:10A3100000F0B88020F07F4626F47002A7F2FF34E8
:10A3200042F48013E20700F19780CD0F4FF0000C4C
:10A3300005EB430367104900162562464FF40010F1
:10A34000161844089E424FEAD17805F1FF354FEACE
:10A35000410102DC32189B1B844408EB43031019B3
:10A36000984202DC1B1A0219A444CE0F600849006F
:10A37000013D06EB4303E3D14FF020082C464FF09C
:10A38000004015E000F08F80CE0F06EB430340083D
:10A390004900934208F1FF3804EB00061EDC1BD095
:10A3A000CE0F40084900B8F1010806EB43032DD059
:10A3B000934204EB0006E5DD06F00049B9F1004FD9
:10A3C00006EB000443D091469B1A8E4288BF013BA6
:10A3D000891B2D184A46D7E78E42E1D806F000497E
:10A3E000B9F1004F06EB00042CD091468E42C2EB2F
:10A3F000030300D9013B891BCE0F2D1849004008EB
:10A40000B8F101084A4606EB4303D1D1194328D1DC
:10A410004FEA55084FEA6C0303F17F511CF0010F1E
:10A4200001F5001018BF48F0004800EB0753424602
:10A4300043EC182BB0EE480AF0EE680ABDEC028B34
:10A44000BDE8F883002CD0DB02F10109CEE7002C37
:10A45000B9DB02F10109B7E7C80F00EB430349007C
:10A4600063E76B1C30D005F001025519D0E723F0EB
:10A4700000401043DED073BB1F46C80A153F490594
:10A480000028FAD010F4801321D140000133C40217
:10A49000FBD5C3F10104C3F1200221FA02F53F19F3
:10A4A0002843994036E78E4286D91A466CE751EC2C
:10A4B000100B01F069F802460B4651EC180B00F046
:10A4C000B1FE41EC180BB5E70CF1010CA2E720221C
:10A4D00001240023E1E751EC100B0B4600F0A0FE35
:10A4E00002460B4601F07AF941EC180BA2E700BFD7
:10A4F00010EE102A22F0004130B499B3002A104621
:10A5000041DBB2F1FF4F45DAB2F5000F32DB002537
:10A5100020F07F444FF6203324F40002C0F24A03B7
:10A52000D11801F4000383F07E54C115144302F1E5
:10A530000F007F3920F4000005EE904A4919F7EE2C
:10A54000000A0F2801EBD35335EEE01A25DCB5EEF7
:10A55000401AF1EE10FA65D1002B40F08D809FED8E
:10A56000570A05E0DFED557A9FED557A87EE270A09
:10A5700030BC7047DFED537A20EE270A6FF01805E4
:10A5800010EE100AC4E770EE403A9FED4C2A83EEBD
:10A59000820AEDE730EE000AEAE7B0EE004A71EE1B
:10A5A000041A9FED496A81EE212A45F63041C2F531
:10A5B0005710CFF6CF71511800F5227242EA010010
:10A5C00000289FED423A62EE026ADFED414A66EEF4
:10A5D000A62ADFED403A02EE836A9FED3F5A42EE33
:10A5E000A34A06EE225ADFED3D7A9FED3D0A44EE86
:10A5F000A27A05EE220A00EE903A27EEA27AF8EE51
:10A60000E05A00EE267A44DDF6EE006A61EE262A74
:10A6100062EE814A34EE873AFBB943EE424A31EEAC
:10A62000640AA5E79FED2F0AB6EE007A01EE407AA4
:10A6300061EE010A60EE874A002BF0D005EE903AF9
:10A64000DFED291AB8EEE54A9FED286A44EE614A2B
:10A6500034EEC10A14EE060A8AE79FED235A65EE2E
:10A66000853A43EE023ADFED217A34EEE32A32EE08
:10A67000410A15EEA70A7BE701EE103ADFED1A2A30
:10A68000F8EEC16ADFED194A26EEA20A06EEA40A28
:10A690006EE731EE474A63B1DFED131A25EEA16A8A
:10A6A00014EE026A36EE410A9FED101A15EE810A89
:10A6B0005EE7B0EE410A04EE420A59E700000000EE
:10A6C000000000CC0000004C25333A3E9788173E2E
:10A6D000298E633E4FD01C3E2549923ECDCCCC3EC8
:10A6E000ABAA2A3FABAAAA3ED1F717378071313FF8
:10A6F0002DE9F04710EE904A34F000472DED028B23
:10A7000010EE905A10EE106A13D026F00048B8F1FF
:10A71000FF4F10EE109A06DD5E48BDEC028BBDE8DF
:10A72000F04700F0EDBCB7F1FF4F0ADDB8F17E5FF6
:10A73000F2D14FF07E5400EE104ABDEC028BBDE822
:10A74000F087002E59DB4FF0000AB7F1FF4F4DD0D4
:10A75000B7F17E5F64D0B5F1804F6DD0B5F17C5F0D
:10A7600000EE106A1ED000F08BFCB8F1FF4F22D033
:10A77000B8F1000F1FD0B8F17E5F1CD04FEAD9703E
:10A78000431E5AEA03027BD0B7F19A4F40F3888008
:10A790004FF6F770C3F67F70804518DC002D1EDB86
:10A7A0000024C8E7B9F1000FDDDBBDEC028BBDE88A
:10A7B000F04700F08DBA002DBCBFF7EE004A84EEE2
:10A7C000800AB9F1000F3EDB10EE104AB3E7072113
:10A7D000C3F68071884540F31782002DE0DDDFED80
:10A7E0002E2A22EEA20A10EE104AA4E7B8F17E5FEC
:10A7F0009FD01CDD002D9EDAD2E7B7F1974F13DA18
:10A80000B7F17E5F09DBFB15C3F1960047FA00F252
:10A8100002FA00F1B94200F096814FF0000A97E782
:10A82000002D1CDB344686E74FF0020A8DE7002D31
:10A83000B6DA84F000447EE703EE906A63EEA31A72
:10A8400011EE904A77E7A8F17E585AEA08080FD12E
:10A8500030EE401A81EE013A13EE104A6BE702EE39
:10A86000106AB7EE004AC4EE025A15EE904A62E74B
:10A87000BAF1010FA8D1F1EE400A10EE904A5AE762
:10A8800006EE906A76EEE67A87EEA75A15EE104A43
:10A8900051E700BF10C60008CAF249710000804BA2
:10A8A000B8F5000F80F257815FED047A20EE270A99
:10A8B0006FF0170710EE108A28F07F424CF27140BB
:10A8C00022F400024FEAE856C0F21C007F3E8242AA
:10A8D0003E4442F07E5140F33B814BF2D637C0F20A
:10A8E0005D07BA4240F38C8100200136A1F50001DA
:10A8F0000246DD4F9200BF1804EE901A97ED005A01
:10A9000075EE240AF7EE003A83EEA01A491041F0E2
:10A91000005101F580214018D44934EEC56ADFEDBD
:10A92000D45A66EE016ADFEDD31A26EEA67A03EE5C
:10A93000100A47EE251A88189FEDCF4ACF4901EE3D
:10A94000874A891816EE902A9FEDCD2A22F47F625D
:10A9500022F00F0202EE902A04EE072A33EE458A17
:10A9600002EEC36ADFEDC77A34EEC80A42EE077A18
:10A9700000EE626ADFEDC44A47EE874A26EE015ACE
:10A9800076EEA20A67EE073A20EE851A03EEA41AC5
:10A9900022EEA23AB0EE086A73EE061A90ED000AB3
:10A9A00031EE817AD1ED004A17EE102A22F47F624F
:10A9B00022F00F0204EE102A74EE465A22EE842A88
:10A9C00075EEC32A9FEDB13A31EE628A68EE266ACF
:10A9D00045EE046A9FEDAE4A72EE267A05EE106AE5
:10A9E00017EE900A20F47F6121F00F0203EE902A07
:10A9F00033EEC21A9FEDA72A36EEC17A63EE831AB0
:10AA000067EE045A43EE825AF8EEC50A75EE802AC4
:10AA100031EEA28A38EE240A70EE206A16EE900A11
:10AA200020F47F6121F00F0207EE902A37EEE05A02
:10AA300075EE644A74EEE10A72EEE03A25F47F6541
:10AA400025F00F0500EE904A01EE105A06EE102A8E
:10AA500030EEC13A60EEA33A43EE063A66EE011AD2
:10AA60000AF1FF3A33EEA14A5AEA030A14EE103A09
:10AA7000BFEE007AB7EE008A08BFB0EE478A002B1F
:10AA800023F0004440F3A580B4F1864F70DC64D01D
:10AA9000B4F17C5F75DC0023184614EE102A22F412
:10AAA0007F6424F00F0104EE901A74EEE10A9FED2A
:10AAB0007A3A33EEE01A9FED796A64EE833A41EE1A
:10AAC000063ADFED771A24EEA14A9FED760A34EEBE
:10AAD000232ADFED755A22EE027ADFED742A57EE53
:10AAE000005ADFED736A45EE872ADFED727A52EE87
:10AAF000876AF0EE424A46EE877A32EE445A47EED3
:10AB0000C74AB0EE003A73EEC50A22EE241A74EE7C
:10AB1000C33A42EE200A81EE236A76EE601A31EEE5
:10AB2000C24AB7EE002A32EE440A10EE102AD318B9
:10AB3000B3F5000FC0F2958000EE103A28EE008ABF
:10AB400018EE104AF7E502F00103C3F1020AFFE52F
:10AB500000200246CDE60027AEE6DFED576A34EE70
:10AB6000610A73EEA67AF4EEC07AF1EE10FA08DD0F
:10AB7000DFED525A28EE258A28EE257A17EE104A84
:10AB8000D9E5E2157E3A4FF4000040FA02F5EA18E2
:10AB9000C2F3C7514FF6FF70A1F17F05C0F27F00ED
:10ABA00040FA05F022F07F4422EA000224F4000477
:10ABB00005EE102A44F40004C1F1960144FA01F0B4
:10ABC000002B71EEC51AB8BF4042C30533EEA14A4F
:10ABD00063E70021C4F216318C4208DC7FF458AFE1
:10ABE00074EE615AF4EEE53AF1EE10FAC9D89FED31
:10ABF000342A28EE028A68EE022A12EE904A9AE57A
:10AC00004FF40010012274E6B7EE001A30EE413A1C
:10AC10009FED1B6AF5EE001A03EE616AB6EE004A7C
:10AC200006EE434A23EE037A9FED262A67EE045A86
:10AC30009FED258A65EE822A53EE082A9FED230AAE
:10AC400063EE006A76EEA27A17EE902A22F47F6015
:10AC500020F00F0205EE102A75EE664A72EEE43A15
:10AC6000ECE600F053FA69E760C6000858C6000831
:10AC700042F1533E55326C3E05A38B3E50C6000850
:10AC8000ABAAAA3EB76DDB3E9A99193F0038763FD2
:10AC90004F38763FA0C39D368CBEBF351872313F0A
:10ACA0000072313F4CBB31330EEADD3555B38A3883
:10ACB000610B363BABAA2A3E3CAA3833CAF2497133
:10ACC0006042A20D3BAAB83F70A5EC3600AAB83F7F
:10ACD00010EE103A23F00042B2F1FF4FF0B449D227
:10ACE000002A45D0002B4EDBD915B2F5000F09D252
:10ACF00013F400044CD15B0001341802FBD5C4F1FD
:10AD00000100091823F07F4525F40006A1F17F0713
:10AD1000F90746F4000248BF520053004FF0807418
:10AD200000267F109C42304627DD5B004FF4000276
:10AD30001824851851089D4204F1FF3402DCA8183C
:10AD40005B1BB6185B0042189A4202DC9B1A501833
:10AD500076185B004A08013CEBD113B106F0010103
:10AD60007618701000F17C5606EBC75600EE106A9C
:10AD7000F0BC704700EE000AFAE74FF0007003F1F4
:10AD80007F432646D1E730EE400A80EE000AEFE727
:10AD90000120B6E751EC100B53EC102B21F00043CF
:10ADA00043EC102B704700BF53EC102B43F00040D6
:10ADB00000F58011C80F704753EC102B10EE100AED
:10ADC0001A4663B1B3F1004F09D04FF6FF73A2F5F5
:10ADD0008011C7F6DF73994205D804207047002818
:10ADE000F3D10220704702F1FF4101F5E0019942E1
:10ADF000F3D94FF6FF73C0F20F039A4201D8032034
:10AE0000704702F100419942F9D90023C7F6F07367
:10AE10009A4204D012F5801F01D000207047D0F173
:10AE2000010038BF0020704700207047000000007C
:10AE30009FED010B704700BF000000000000F87F8D
:10AE4000F0B553EC102BC3F30A54A4F2FF31DE0F1C
:10AE5000132983B0184634DC002952DB4FF6FF700B
:10AE6000C0F20F0040FA01F000EA0304144326D0B8
:10AE7000450805EA03073A430BD04FF4802023EA44
:10AE8000050340FA01F013290CBF4FF000420022E5
:10AE900003431D46314B03EBC606D6E900672B463C
:10AEA00030463946144600F0BDF9CDE90001DDE930
:10AEB000000132463B4600F0B3F941EC100B03B001
:10AEC000F0BD33290ADDB1F5806FF8D151EC100BDC
:10AED0000B4600F0A7F941EC100BF0E7A4F2134485
:10AEE0004FF0FF3020FA04F01042E8D04508154238
:10AEF000CFD04FF0804722EA050247FA04F42243FC
:10AF0000C7E723F0004151EA0203D8D020F07F4484
:10AF100024F47005114C2A43514204EBC605D5E9CF
:10AF20000045114353EC102B0B0B03F40021400C94
:10AF300041EA40432046294600F074F9CDE900017A
:10AF40002B46DDE90001224600F06AF921F00043BA
:10AF500043EAC67141EC100BB1E700BF68C60008B8
:10AF600053EC102BC3F30A5170B51C46054600295B
:10AF700041D123F0004414433CD0002351EC100B8A
:10AF80000022C4F2503300F0FFFA43F6B044CFF68B
:10AF9000FF74A54241EC100B0B4654DBC3F30A517E
:10AFA00036391E464C1940F2FE739C422DDDB0EE40
:10AFB000401AF0EE601A9FED2E0B00F00DF92CA355
:10AFC000D3E9002351EC100B00F0DEFA41EC100B3A
:10AFD00070BD26F0FF46363426F4E006002351EC1F
:10AFE000100B002246EA0451C3F6904300F0CCFA5D
:10AFF00041EC100B70BD40F2FF7291422BD01E4607
:10B000004C1940F2FE739C42D1DC002C0ADD26F084
:10B01000FF4153EC102B21F4E00646EA045343ECC5
:10B02000102B70BD14F1350FD3DA4CF2503085423D
:10B03000B0EE401AF0EE601ABDDC9FED0F0B00F091
:10B04000CBF851EC100B0CA3D3E9002300F09CFAD1
:10B0500041EC100B70BD51EC100B10EE102A0B469A
:10B0600000F0E0F841EC100B70BD00BFAFF30080C2
:10B070009C7500883CE4377E59F3F8C21F6EA50129
:10B0800010EE102A22F0004300EE103A704700BF85
:10B0900010EE103A23F00040B0F1FF4FACBF00209B
:10B0A0000120704710EE103A0BB902207047B3F13F
:10B0B000004FFAD0A3F500016FF00142914201D890
:10B0C0000420704703F1FF419142F9D94FF6FE7217
:10B0D000591EC0F27F02914201D80320704703F14C
:10B0E000004101399142F8D9B3F1FF4F05D013F572
:10B0F000000F14BF0020012070470120704700BFDF
:10B100009FED010A704700BF0000C07F08B510EE38
:10B11000103A33F000422DED028B11D0B2F1FF4F07
:10B1200011D2B2F5000F11D3D10D0A18FE2A2FDC6F
:10B13000002A1BDD23F0FF4040EAC25200EE102A35
:10B14000BDEC028B08BD30EE000AF9E743F6B043D0
:10B15000CFF6FF73DFED1C7A984220EE270A22DB40
:10B1600010EE103AC3F3C7511939DEE712F1160F8A
:10B170001EDA4CF2503398420ADC9FED148AF0EE4E
:10B18000400AB0EE480A00F039F820EE080AD7E786
:10B190009FED0F8AF0EE400AB0EE480A00F02EF85C
:10B1A00020EE080ACCE7DFED090A20EE200AC7E707
:10B1B000193223F0FF4040EAC2519FED060A07EE24
:10B1C000101A27EE000ABBE70000004C6042A20DF7
:10B1D000CAF249710000003351EC100B30B455EC49
:10B1E000114B53EC102B05F0004021F0004140EAD8
:10B1F000010343EC102B30BC704700BF10EE101A57
:10B2000010EE900A21F0004300F0004242EA0301F0
:10B2100000EE101A704700BF81F0004102E000BF4D
:10B2200083F0004330B54FEA41044FEA430594EA06
:10B23000050F08BF90EA020F1FBF54EA000C55EA41
:10B24000020C7FEA645C7FEA655C00F0E2804FEA12
:10B250005454D4EB5555B8BF6D420CDD2C4480EAF4
:10B26000020281EA030382EA000083EA010180EA24
:10B27000020281EA0303362D88BF30BD11F0004F72
:10B280004FEA01314FF4801C4CEA113102D04042A8
:10B2900061EB410113F0004F4FEA03334CEA1333E3
:10B2A00002D0524263EB430394EA050F00F0A780FB
:10B2B000A4F10104D5F1200E0DDB02FA0EFC22FAF6
:10B2C00005F2801841F1000103FA0EF2801843FAEA
:10B2D00005F359410EE0A5F120050EF1200E012ADB
:10B2E00003FA0EFC28BF4CF0020C43FA05F3C01819
:10B2F00051EBE37101F0004507D54FF0000EDCF192
:10B30000000C7EEB00006EEB0101B1F5801F1BD33A
:10B31000B1F5001F0CD349085FEA30004FEA3C0C3E
:10B3200004F101044FEA445212F5800F80F09A8034
:10B33000BCF1004F08BF5FEA500C50F1000041EB38
:10B34000045141EA050130BD5FEA4C0C404141EB3C
:10B35000010111F4801FA4F10104E9D191F0000F63
:10B3600004BF01460020B1FA81F308BF2033A3F1E6
:10B370000B03B3F120020CDA0C3208DD02F1140CDD
:10B38000C2F10C0201FA0CF021FA02F10CE002F118
:10B390001402D8BFC2F1200C01FA02F120FA0CFC11
:10B3A000DCBF41EA0C019040E41AA2BF01EB04515A
:10B3B000294330BD6FEA04041F3C1CDA0C340EDC58
:10B3C00004F11404C4F1200220FA04F001FA02F39B
:10B3D00040EA030021FA04F345EA030130BDC4F159
:10B3E0000C04C4F1200220FA02F001FA04F340EA4E
:10B3F0000300294630BD21FA04F0294630BD94F0FF
:10B40000000F83F4801306BF81F480110134013DE5
:10B410004EE77FEA645C18BF7FEA655C29D094EA56
:10B42000050F08BF90EA020F05D054EA000C04BFD4
:10B430001946104630BD91EA030F1EBF00210020BF
:10B4400030BD5FEA545C05D14000494128BF41F05E
:10B45000004130BD14F580043CBF01F5801130BDC2
:10B4600001F0004545F0FE4141F470014FF000004D
:10B4700030BD7FEA645C1ABF194610467FEA655CFE
:10B480001CBF0B46024650EA013406BF52EA0335A0
:10B4900091EA030F41F4002130BD00BF90F0000F8E
:10B4A00004BF0021704730B54FF4806404F13204CA
:10B4B0004FF000054FF0000150E700BF90F0000F83
:10B4C00004BF0021704730B54FF4806404F13204AA
:10B4D00010F0004548BF40424FF000013EE700BF7A
:10B4E00042004FEAE2014FEA31014FEA02701FBF0A
:10B4F00012F07F4393F07F4F81F06051704792F0DC
:10B50000000F14BF93F07F4F704730B54FF4607455
:10B5100001F0004521F0004120E700BF50EA0102A0
:10B5200008BF704730B54FF000050AE050EA01024D
:10B5300008BF704730B511F0004502D5404261EBBD
:10B5400041014FF4806404F132045FEA915C3FF4FE
:10B55000DCAE4FF003025FEADC0C18BF03325FEA97
:10B56000DC0C18BF033202EBDC02C2F1200300FA4C
:10B5700003FC20FA02F001FA03FE40EA0E0021FA71
:10B5800002F11444C1E600BF70B54FF0FF0C4CF45B
:10B59000E06C1CEA11541DBF1CEA135594EA0C0F11
:10B5A00095EA0C0F00F0DEF82C4481EA030621EA4C
:10B5B0004C5123EA4C5350EA013518BF52EA033587
:10B5C00041F4801143F4801338D0A0FB02CE4FF039
:10B5D0000005E1FB02E506F00042E0FB03E54FF069
:10B5E0000006E1FB03569CF0000F18BF4EF0010E61
:10B5F000A4F1FF04B6F5007F64F5407404D25FEA5D
:10B600004E0E6D4146EB060642EAC62141EA55510F
:10B610004FEAC52040EA5E504FEACE2EB4F1FD0C51
:10B6200088BFBCF5E06F1ED8BEF1004F08BF5FEACF
:10B63000500E50F1000041EB045170BD06F0004681
:10B6400046EA010140EA020081EA0301B4EB5C042E
:10B65000C2BFD4EB0C0541EA045170BD41F4801126
:10B660004FF0000E013C00F3AB8014F1360FDEBF4B
:10B67000002001F0004170BDC4F10004203C35DA27
:10B680000C341BDC04F11404C4F1200500FA05F3AA
:10B6900020FA04F001FA05F240EA020001F000424B
:10B6A00021F0004110EBD37021FA04F642EB0601C1
:10B6B0005EEA430E08BF20EAD37070BDC4F10C04EB
:10B6C000C4F1200500FA04F320FA05F001FA04F2AF
:10B6D00040EA020001F0004110EBD37041F100019B
:10B6E0005EEA430E08BF20EAD37070BDC4F12005A6
:10B6F00000FA05F24EEA020E20FA04F301FA05F20E
:10B7000043EA020321FA04F001F0004121FA04F2B5
:10B7100020EA020000EBD3705EEA430E08BF20EA85
:10B72000D37070BD94F0000F0FD101F000464000BF
:10B7300041EB010111F4801F08BF013CF7D041EA41
:10B74000060195F0000F18BF704703F00046520045
:10B7500043EB030313F4801F08BF013DF7D043EA16
:10B760000603704794EA0C0F0CEA135518BF95EACC
:10B770000C0F0CD050EA410618BF52EA4306D1D153
:10B7800081EA030101F000414FF0000070BD50EA72
:10B79000410606BF1046194652EA430619D094EAFC
:10B7A0000C0F02D150EA013613D195EA0C0F05D1E6
:10B7B00052EA03361CBF104619460AD181EA03013A
:10B7C00001F0004141F0FE4141F470014FF00000F2
:10B7D00070BD41F0FE4141F4780170BD70B54FF08D
:10B7E000FF0C4CF4E06C1CEA11541DBF1CEA13550D
:10B7F00094EA0C0F95EA0C0F00F0A7F8A4EB0504EF
:10B8000081EA030E52EA03354FEA013100F08880E5
:10B810004FEA03334FF0805545EA131343EA1263AE
:10B820004FEA022245EA111545EA10654FEA002663
:10B830000EF000419D4208BF964244F1FD0404F51C
:10B84000407402D25B084FEA3202B61A65EB030578
:10B850005B084FEA32024FF480104FF4002CB6EB35
:10B86000020E75EB030E22BFB61A754640EA0C00B5
:10B870005B084FEA3202B6EB020E75EB030E22BFF5
:10B88000B61A754640EA5C005B084FEA3202B6EB36
:10B89000020E75EB030E22BFB61A754640EA9C00F5
:10B8A0005B084FEA3202B6EB020E75EB030E22BFC5
:10B8B000B61A754640EADC0055EA060E18D04FEA83
:10B8C000051545EA16754FEA06164FEAC30343EA23
:10B8D00052734FEAC2025FEA1C1CC0D111F4801FF0
:10B8E0000BD141EA00014FF000004FF0004CB6E7E9
:10B8F00011F4801F04BF01430020B4F1FD0C88BF88
:10B90000BCF5E06F3FF6AFAEB5EB030C04BFB6EB92
:10B91000020C5FEA500C50F1000041EB045170BD85
:10B920000EF0004E4EEA113114EB5C04C2BFD4EBB2
:10B930000C0541EA045170BD41F480114FF0000E36
:10B94000013C90E645EA060E8DE60CEA135594EAB2
:10B950000C0F08BF95EA0C0F3FF43BAF94EA0C0FB5
:10B960000AD150EA01347FF434AF95EA0C0F7FF42A
:10B9700025AF104619462CE795EA0C0F06D152EA7E
:10B9800003353FF4FDAE1046194622E750EA410662
:10B9900018BF52EA43067FF4C5AE50EA41047FF473
:10B9A0000DAF52EA43057FF4EBAE12E74FF0FF3CD8
:10B9B00006E000BF4FF0010C02E000BF4FF0010CA9
:10B9C0004DF804CD4FEA410C7FEA6C5C4FEA430C22
:10B9D00018BF7FEA6C5C1BD001B050EA410C0CBF71
:10B9E00052EA430C91EA030F02BF90EA020F0020D3
:10B9F000704710F1000F91EA030F58BF994208BF3A
:10BA000090422CBFD8176FEAE37040F001007047F6
:10BA10004FEA410C7FEA6C5C02D150EA013C07D14D
:10BA20004FEA430C7FEA6C5CD6D152EA033CD3D098
:10BA30005DF8040B704700BF8446104662468C4692
:10BA40001946634600E000BF01B5FFF7B7FF0028C5
:10BA500048BF10F1000F01BD4DF808EDFFF7F4FFEE
:10BA60000CBF012000205DF808FB00BF4DF808ED79
:10BA7000FFF7EAFF34BF012000205DF808FB00BF9C
:10BA80004DF808EDFFF7E0FF94BF012000205DF8BE
:10BA900008FB00BF4DF808EDFFF7CEFF94BF012073
:10BAA00000205DF808FB00BF4DF808EDFFF7C4FF6C
:10BAB00034BF012000205DF808FB00BF4FEA4102BF
:10BAC00012F5001215D211D56FF47873B3EB6252F0
:10BAD00012D94FEAC12343F0004343EA505311F017
:10BAE000004F23FA02F018BF404270474FF00000A9
:10BAF000704750EA013005D111F0004008BF6FF0E7
:10BB0000004070474FF00000704700BF4A0011D25C
:10BB100012F5001211D20DD56FF47873B3EB6252A7
:10BB20000ED44FEAC12343F0004343EA505323FAB3
:10BB300002F070474FF00000704750EA013002D128
:10BB40004FF0FF3070474FF0000070474FEA41025E
:10BB5000B2F1E04324BFB3F5001CDCF1FE5C0DD96B
:10BB600001F0004C4FEAC0024CEA5070B2F1004FB5
:10BB700040EB830008BF20F00100704711F0804FB8
:10BB800021D113F13872BCBF01F00040704741F47D
:10BB900080114FEA5252C2F11802C2F1200C10FA81
:10BBA0000CF320FA02F018BF40F001004FEAC12365
:10BBB0004FEAD32303FA0CFC40EA0C0023FA02F309
:10BBC0004FEA4303CCE77FEA625307D150EA0133DF
:10BBD0001EBF4FF0FE4040F44000704701F00040AF
:10BBE00040F0FE4040F40000704700BF00210A22F0
:10BBF00000F09CBB40F26843C2F200031868704733
:10BC00000F2A2DE9F00340F2958041EA00039B07DB
:10BC100040F092800C6804604D6845608E68A2F127
:10BC200010038660CC681D460F2DC460C3F3001658
:10BC300001F1100400F1100322D966B126681E60DC
:10BC400066685E60A6689E60E668103DDE6010343F
:10BC500010330F2D14D926681E6066685E60A668D2
:10BC60009E60E668DE6026691E6166695E61A6699F
:10BC70009E61E669203DDE61203420330F2DEAD835
:10BC8000A2F1100323F00F0402F00F031034032B72
:10BC900000EB0408214451D9A3F104090B464FEAF3
:10BCA000990901EB890C53F8046BC1EB0C05444670
:10BCB0000CF1040C634544F8046BC5F3800512D005
:10BCC0002DB153F8045B634544F8045B0BD01E466A
:10BCD000254656F8047B45F8047B5F68331D676092
:10BCE0002C1D6345F3D109F101039C00091902F0F1
:10BCF00003024444DAB123460D7803F8015BA2182D
:10BD0000E4431419934204F0010410D02CB111F84B
:10BD1000014F03F8014B934209D04D781C4604F8BB
:10BD2000015B8D785D70631C02319342F5D1BDE8F3
:10BD3000F00370470446DDE70446DCE744461A4654
:10BD4000D8E700BF830770B5064614D10368A3F196
:10BD5000013222EA030010F0803F0CD1331D1A4655
:10BD600053F8044BA4F1013525EA040414F0803F94
:10BD7000F5D0104600E0304603782BB1421C104647
:10BD800001320478002CFAD100F06EF9304670BD13
:10BD9000C9B2F0B400294BD082070FD00278002A34
:10BDA00071D0914242D0431C05E013F8012B002AC8
:10BDB0003BD091423AD09A071846F6D10368A3F1D6
:10BDC000013222EA030241EA012712F0803F47EAEA
:10BDD00007471CD17B40A3F1013222EA030313F091
:10BDE000803F14D1021D02E014F0803F0FD11046B5
:10BDF00052F8043BA3F1013687EA030426EA030361
:10BE0000A4F1013513F0803F25EA0404ECD0027858
:10BE1000002A38D0914209D0431C01E0914205D05C
:10BE2000184613F8012B002AF8D11046F0BC7047D1
:10BE300083070BD00278002AF8D0431C03E0017876
:10BE400001330029F2D099071846F8D10168A1F111
:10BE5000013323EA010212F0803F0AD1031D184684
:10BE600053F8041BA1F1013424EA010212F0803FCF
:10BE7000F5D00378002BD9D0411C08460131027857
:10BE8000002AFAD1D2E71046D0E700BF80EA0102CB
:10BE900012F0030F40F03A8010F0030220F003008C
:10BEA00021F0030150F804CB08BF51F8043B0DD03A
:10BEB00082F003024FEAC2026FF07F4323FA02F2DC
:10BEC00051F8043B4CEA020C43EA0203ACF10132A4
:10BED0009C4501BF22EA0C0212F0803F50F804CBCF
:10BEE00051F8043BF2D04FEA0C604FEA1C2C0128B9
:10BEF00028BFB0EB036F08BF1B0AF4D003F0FF03A9
:10BF00004FEA1060A0EB0300704700BF10F0030F72
:10BF10000AD010F8012B11F8013B012A28BF9A42E0
:10BF2000F4D0A2EB030070474DF8045D4DF8044DCA
:10BF30004FF0010242EA022242EA024201F0030CFF
:10BF400021F0030150F8044B51F8045BBCF1020FDF
:10BF500026D04BD824F07F4CBCEB152FA4EB02036A
:10BF600023EA04030DD113EAC21308BF51F8045B9E
:10BF70000AD18CEA040CBCEB056F0CD150F8044BD1
:10BF8000E8E74FEA15255CE033F07F4352D10D78A6
:10BF90004FEA146C55E04FEA146C05F0FF0550E0D1
:10BFA0004FEA044CA4EB02034FEA1C4C23EA0403BF
:10BFB000BCEB154F17D113EAC21308BF51F8045B4D
:10BFC00007D18CEA040CBCEB054F08D150F8044BA8
:10BFD000E6E71B042ED10D884FEA144C31E04FEAFE
:10BFE00005454FEA144C4FEA15452AE004F0FF0CD2
:10BFF000BCEB156FA4EB020323EA04030DD113EA93
:10C00000C21308BF51F8045B0AD18CEA040CBCEBE4
:10C01000052F0AD150F8044BE8E74FEA156510E008
:10C0200014F0FF0F06D051F8045B4FEA142C25F0F2
:10C030007F4506E04FF000005DF8044B5DF8045BBF
:10C0400070470CF0FF0205F0FF00012828BF904266
:10C0500004BF4FEA1C2C2D0AF3D0A2EB00005DF8C0
:10C06000044B5DF8045B704780EA0102844612F0DD
:10C07000030F4FD111F0030F32D14DF8044D11F0E1
:10C08000040F51F8043B0BD0A3F101329A4312F094
:10C09000803F04BF4CF8043B51F8043B16D100BF6D
:10C0A00051F8044BA3F101329A4312F0803FA4F1FE
:10C0B00001320BD14CF8043BA24312F0803F04BF85
:10C0C00051F8043B4CF8044BEAD023460CF8013BF2
:10C0D00013F0FF0F4FEA3323F8D15DF8044B70479C
:10C0E00011F0010F06D011F8012B0CF8012B002ADA
:10C0F00008BF704711F0020FBFD031F8022B12F0C9
:10C10000FF0F16BF2CF8022B8CF8002012F47F4F83
:10C11000B3D1704711F8012B0CF8012B002AF9D18B
:10C12000704700BF20F0030110F00300C0F10000D1
:10C1300051F8043B00F1040C4FEACC0C6FF0000204
:10C140001CBF22FA0CF213434FF0010C4CEA0C2CEA
:10C150004CEA0C4CA3EB0C0222EA030212EACC12CA
:10C1600004BF51F8043B0430F4D013F0FF0F1FBF9D
:10C17000013013F47F4F013013F47F0F18BF0130EB
:10C18000704700BF40F26842C2F200020123126809
:10C190005C3200F001B800BFF0B4002825D007469B
:10C1A00038460D460678013715F8014B3CB1A642DA
:10C1B000FAD1002BF4D1176007F8013C11E0C6B1A9
:10C1C0003D4600E01BB915F8016B0C46284614F8F3
:10C1D000013B9E42F6D136B1002105F8011C1060EA
:10C1E000781EF0BC70473046F9E710680028D6D1B9
:10C1F000F7E716603046F4E72DE9F00F4A4C82B0BD
:10C20000D4F800C001900846044614F8015B0CEB1A
:10C2100005062046777807F00806F7B2002FF3D11D
:10C220002D2D62D02B2D03BF2446BB4614F8015B95
:10C23000BB46002B41D1302D43D00A239A46BBF197
:10C24000000F0CBF6FF000464FF00046B6FBFAF946
:10C2500000200AFB1967009780460CE0303DAB4296
:10C260001BDD461C05D0C84539D835D00AFB085817
:10C27000012014F8015B0CEB0506767806F0040744
:10C28000FFB2002FEAD116F0030606D0012E14BF2C
:10C2900057263726AD1BAB42E3DC431C2AD0BBF14B
:10C2A000000F01D0C8F10008002A31D0D0B94046B3
:10C2B000116002B0BDE8F00F7047102BBED1302DD9
:10C2C000BCD12578782D25D0582D23D043BB4FF0F5
:10C2D000080A30255346B2E700988542C6DD4FF084
:10C2E000FF30C6E74046611EE2E714F8015B4FF0FD
:10C2F000010B9EE7BBF1000F01990CBF6FF00040EE
:10C300004FF0004022230B60002AD2D0611ECFE7FD
:10C310004046CEE74FF0100A6578534602348EE768
:10C320009A4630258BE700BF6C04002070B440F2C1
:10C330006844C2F2000406460D46206813463146A2
:10C340002A4670BCFFF758BF037830B483B1094D5B
:10C35000421E2968CC181946647804F00304022CA4
:10C3600008BFA3F1200102F8011F5378002BF0D180
:10C3700030BC70476C040020300000002E0000002C
:10C38000652B0000652D0000694D65742D585132F4
:10C390002076312E30340D0A0000000058512C0058
:10C3A0002C0000000D0A00002F0000002C000000EF
:10C3B0003A00000055626C6F7820656E67696E65A3
:10C3C000206661696C656420636F6E66696775726B
:10C3D0006520706F72742E0D0A00000055626C6F3C
:10C3E0007820656E67696E65206661696C6564209A
:10C3F0004E41563520636F6E666967757261746968
:10C400006F6E2E0D0A00000055626C6F7820656E0D
:10C4100067696E65206661696C6564204E415635BA
:10C420005820636F6E66696775726174696F6E2EEE
:10C430000D0A000055626C6F7820656E67696E6545
:10C44000206661696C65642050565420636F6E6687
:10C45000696775726174696F6E2E0D0A00000000C5
:10C4600055626C6F7820656E67696E6520666169DC
:10C470006C65642053415420636F6E666967757202
:10C480006174696F6E2E0D0A00000000554258203D
:10C49000434F4D4D53204661756C740D0A000000EA
:10C4A0002C00000045525230320D0A004F4B0D0A4D
:10C4B000000000005374617274696E6720746F200D
:10C4C00065726173652E2E2E00000000464D4F3DB3
:10C4D000000000000D0A00000D000000464D4F3D19
:10C4E000300D0A00464D4F3D310D0A00464D4F3D7F
:10C4F000320D0A0045525230330D0A0058512C00BB
:10C500002C0000002F0000003A0000004D454D3D7A
:10C5100000000000434E543D0000000045525230E0
:10C52000340D0A0053524E3D000000004452523D6B
:10C53000000000005354303D000000005354313DD2
:10C54000000000005354323D000000005354333DBE
:10C55000000000004350423D000000003000000099
:10C56000303030004354423D000000000D3F3D009C
:10C570002F525354000000002F535450000000006D
:10C580002F535441000000002F455241000000008D
:10C590002F464D4F000000002F5244410000000084
:10C5A0002F524442000000002F4D454D0000000076
:10C5B0002F434E54000000002F534156000000004E
:10C5C0002F53524E000000002F4452520000000032
:10C5D0002F535430000000002F535431000000004E
:10C5E0002F535432000000002F535433000000003A
:10C5F0002F435042000000002F435442000000002F
:10C6000045525230310D0A00706F77006C6F6766CB
:10C6100000000000706F776600000000000000005E
:10C6200000000000000000000000004003B8E23FEE
:10C63000000000000000000006D0CF43EBFD4C3EA0
:10C64000000000000000F03F000000000000F83F84
:10C650000000000000C0153F00000000DCCFD13515
:10C660000000803F0000C03F000000000000304399
:10C6700000000000000030C3430000000020202024
:10C680002020202020202828282828202020202082
:10C690002020202020202020202020202088101052
:10C6A00010101010101010101010101010040404AE
:10C6B000040404040404041010101010101041416C
:10C6C000414141410101010101010101010101015A
:10C6D000010101010101010110101010101042426E
:10C6E000424242420202020202020202020202022A
:10C6F00002020202020202021010101020000000CA
:10C700000000000000000000000000000000000029
:10C710000000000000000000000000000000000019
:10C720000000000000000000000000000000000009
:10C7300000000000000000000000000000000000F9
:10C7400000000000000000000000000000000000E9
:10C7500000000000000000000000000000000000D9
:10C7600000000000000000000000000000000000C9
:10C7700000000000000000000000000000000000B9
:10C78000006CDC0200000000000000000102030455
:10C790000607080900000000010203040102030467
:10C7A0000607080902040608020406080A0C0E100F
:10C7B00014181C2024282C30010000000000000068
:10C7C000000000002C03002094030020FC03002044
:10C7D0000000000000000000000000000000000059
:10C7E0000000000000000000000000000000000049
:10C7F0000000000078C600080000000000000000F3
:10C800000000000000000000000000000000000028
:10C810000000000000000000000000000000000018
:10C820000000000000000000000000000000000008
:10C8300000000000000000000000000000000000F8
:10C8400000000000000000000000000000000000E8
:10C8500000000000000000000000000000000000D8
:10C8600000000000000000000100000000000000C7
:10C870000E33CDAB34126DE6ECDE05000B0000008C
:10C8800000000000000000000000000000000000A8
:10C890000000000000000000000000000000000098
:10C8A0000000000000000000000000000000000088
:10C8B0000000000000000000000000000000000078
:10CBE0000000000000000000400000207CC600089B
:0400000508000000EF
:00000001FF
